:020000022000DC
:1060000000000420FDA7020025A80200DD6D0200AB
:1060100029A802002BA802002DA802000000000001
:106020000000000000000000000000002FA8020097
:1060300031A802000000000033A8020035A80200C9
:106040002D83020037A8020035880200D18B0200A0
:10605000F18A020037A802008D8602002D89020015
:10606000A18B0200B18B020037A8020037A8020002
:1060700037A8020037A8020037A8020037A802009C
:1060800037A802005968020037A8020037A80200AA
:10609000F568020037A80200DD9C020037A8020064
:1060A00037A8020037A8020037A8020037A802006C
:1060B000E588020037A80200000000000000000090
:1060C00037A80200F58802000589020037A80200FF
:1060D00037A8020037A8020037A8020037A802003C
:1060E00037A8020037A8020037A80200000000000D
:1060F0000000000037A802000000000037A80200DE
:10610000000000000000000000000000000000008F
:10611000000000000000000000000000000000007F
:10612000000000000000000000000000000000006F
:10613000000000000000000000000000000000005F
:10614000000000000000000000000000000000004F
:10615000000000000000000000000000000000003F
:10616000000000000000000000000000000000002F
:10617000000000000000000000000000000000001F
:10618000000000000000000000000000000000000F
:1061900000000000000000000000000000000000FF
:1061A00000000000000000000000000000000000EF
:1061B00000000000000000000000000000000000DF
:1061C00000000000000000000000000000000000CF
:1061D00000000000000000000000000000000000BF
:1061E00000000000000000000000000000000000AF
:1061F000000000000000000000000000000000009F
:106200000348044B834202D0034B03B11847704745
:10621000AC9E0020AC9E002000000000054806490E
:106220000B1AD90F01EBA301491002D0034B03B1A4
:1062300018477047AC9E0020AC9E00200000000074
:1062400010B5064C237843B9FFF7DAFF044B13B1BE
:106250000448AFF300800123237010BDAC9E0020E2
:10626000000000006434030008B5044B1BB104496E
:106270000448AFF30080BDE80840CFE7000000000D
:10628000B09E002064340300A3F5803A704700BF3D
:10629000154B002B08BF114B9D46FFF7F5FF002162
:1062A0008B460F461148124A121A04F0B3FB0C4BEE
:1062B000002B00D098470B4B002B00D098470020B4
:1062C000002104000D000B4804F0B6FA04F0E4FAD3
:1062D0002000290000F046F804F0B4FA000008009D
:1062E000000000000000000000000420AC9E002020
:1062F00020AD002065A8020000B5182991B00A461B
:1063000028BF182201460B4804F0EAFA3C2200217B
:1063100001A804F07FFB062300218DF8073001A8B7
:10632000054B8DF804100A9304F038F911B05DF8AC
:1063300004FB00BFE99E0020B89400200749084AEA
:106340000878431CDBB20B2B00EB800088BF0023D6
:106350000B7010440521FFF7CFBF00BFE89E00205F
:10636000B018030008B54FF40041002001F0E4FA32
:1063700018B10F4A5E2100F01CFA01F001FA0D4835
:1063800004F0A8FB0C4804F0C1F80C4B186000F0B6
:106390000DFC0B4A0B48012100F050FC0A4800227A
:1063A0004FF4004100F05CFC04F0A4F8FCE700BFEF
:1063B000881803008F180300C494002090AC0020BC
:1063C0003D630200AC180300C89E002038B5054D9F
:1063D000044645F001054FF47A40A847013CFAD144
:1063E00038BD00BFB019030070B5054686B00E4633
:1063F000144672B601F0C2FC01F0F8FA0028FBD195
:10640000464804F067FB44F201039D4276D00AD867
:10641000012D12D041F201039D426DD0314640481A
:1064200004F058FB0CE044F202039D42F6D12288AE
:1064300061683C4804F04EFB02E03B4804F04AFB34
:1064400002F034F808B901F0F9FF0023ADF8143078
:106450008DF8163005A901230D208DF8153002F0B6
:106460002FF805A90E2002F02BF805A90F2002F045
:1064700027F805A9102002F023F80D2002F0D8F823
:106480000E2002F0D5F80F2002F0D2F8102002F012
:10649000CFF84FF4FA70FFF799FF0D2002F09AF849
:1064A0000E2002F097F80F2002F094F8102002F06E
:1064B00091F83220FFF78AFF0D2002F0B9F80E2084
:1064C00002F0B6F80F2002F0B3F8102002F0B0F896
:1064D0004FF4FA70FFF77AFF0D2002F07BF80E20E0
:1064E00002F078F80F2002F075F8102002F072F830
:1064F000FA20FFF76BFFC0E70C489FE7A168039104
:10650000084601F0BFFE23680196009302466368C7
:106510000399074804F0DEFA92E700BFEC18030085
:106520008919030044190300051903002219030007
:106530005F19030007B501F0B9FF08B901F07EFF4C
:106540000023ADF804308DF8063001A901230D2099
:106550008DF8053001F0B4FF01A90E2001F0B0FF65
:1065600001A90F2001F0ACFF01A9102001F0A8FF44
:106570000D2002F05DF80E2002F05AF80F2002F014
:1065800057F8102002F054F84FF4FA70FFF71EFF8E
:106590000D2002F01FF80E2002F01CF80F2002F070
:1065A00019F8102002F016F83220FFF70FFF0D2027
:1065B00002F03EF80E2002F03BF80F2002F038F80F
:1065C000102002F035F84FF4FA70FFF7FFFE0D20AF
:1065D00002F000F80E2001F0FDFF0F2001F0FAFF9D
:1065E000102001F0F7FFFA20FFF7F0FEC0E7036983
:1065F000C1688B429DBF8268D21802F1FF3203F15D
:10660000FF3394BF501A581A70472DE9F843D0E968
:1066100002940546A9EB04084068904520440F46C3
:10662000144404D904F05CF9EC60BDE8F8834246F8
:10663000A4EB090404F054F96868224607EB08014A
:10664000F0E72DE9F843C5680646894617464FF03E
:1066500000083469B3687068A54228BFE418013C9B
:10666000621B5C1BBC4228BF3C46944228BF1446B8
:1066700049462844224604F033F9B3682544AB4226
:1066800008BF00253F1BA044A144F560E1D140466E
:10669000BDE8F88310B5114C114AA2610223C4E988
:1066A0000433104BE361A2644FF400730E4A0F49A8
:1066B0002362E26400231022E01DA3626362E362AE
:1066C000A3656365E365226504F0CAFA08492046BC
:1066D00004F0C6FA2023A37110BD00BF94AC0020C3
:1066E000B6190300119F0020019F0020BF1903006D
:1066F000C3190300F8B5184C182300FB033503FB3E
:1067000000402544C46A012C0F4616460FD0022CC7
:106710001AD0F4B92846FFF76AFF864205D83246F8
:1067200039462846FFF771FF34462046F8BD284613
:10673000FFF75DFF8642344628BF044622463946AD
:106740002846FFF762FFF0E72846BDE8F840FFF76C
:1067500078BF0024E9E700BF94AC002073B50E4B6E
:106760001B7804460D4616460BB9FFF793FF00232E
:106770000DF107008DF8073000F0D8FA32462946AF
:106780002046FFF7B7FF04469DF8070000F0FEFA29
:10679000204602B070BD00BF94AC0020FFF77ABF66
:1067A00010B511461C461A460020FFF7D7FF2046B9
:1067B00010BD00B583B002900091019244F2010037
:1067C00071466A46FFF710FE03B000BD094A5378D0
:1067D00091780133DBB2994208BF002311789942C6
:1067E0001FBF03705078182303FB002014BF043030
:1067F0000020704714A1002073B5054600240DF158
:1068000007000E468DF8074000F090FA0DF10600E3
:10681000FFF7DCFF90B10670094B9DF8062045603C
:106820005A709DF8070000F0B1FA24B9054B4FF4F7
:106830008012C3F80021204602B070BD0424F0E7A6
:1068400014A1002000E100E0024B4FF43C6043F053
:1068500001031847D0190300F8B51F491F4B002545
:10686000C1F84051C1F84451C1F84851C1F84C51E8
:10687000C1F80051C1F804511B684BB3D1F804456D
:1068800017490968641A24F07F442F461A68A24207
:1068900009D8A41A15441A7CDE691AB1D3E9052077
:1068A0001F749047AEB90F4A0F4B11781B788B427B
:1068B00005D10133DBB2022B08BF0023137012781D
:1068C0000A4B43F822500A4B4FF48012C3F80021C0
:1068D000F8BD3346DAE700BF0010014034A20020C3
:1068E00030A200202DA200202CA2002024A20020F3
:1068F00000E100E02DE9F04FA14AA24913780978A0
:10690000A14D994285B03CD00133DBB2022B08BFC8
:10691000002313709D4912789D4B0F6853F8220095
:106920003B1823F07F4300220B602B681646144669
:10693000944613B942B12B6006E0196881420ED922
:1069400002B12B60091A196001272B68DFF848A2F1
:1069500001934FF00008BEB9DFF844B262E0401A7C
:106960000C44D968D3F81CE0C3F800C031B13A191F
:1069700022F07F42C3E90121DE611E4673460122F7
:10698000D7E700263746E0E73446F6697F4A636872
:106990001268DFF810C2A068991A21F07F416145A2
:1069A00000F2A88001442160012222742A68002399
:1069B000C4E90133E361002A40F0A5802C60CAE7F6
:1069C0009BF802105A1CD2B291428BF8002004BFEF
:1069D00000228BF80020182202FB03B32A681979E1
:1069E0009C68022977D0032900F08180012919D100
:1069F000207CB8B9D96861601A69A2605A69E260FE
:106A00009B69A361634B1B78002B18BF0146616033
:106A1000BCE78C4200F091808946C9690029F8D111
:106A2000002323749BF800309BF801209A42C7D1C1
:106A30002B68B8F1000F04D1019A9A4201D1002FBE
:106A400043D0002B41D0D3F800A0534D4F4BD5F885
:106A500004751C68DFF850813E1B98F8003026F062
:106A60007F4603369BB94FF48033C5F84433C5F8ED
:106A700004334A4B4FF40032C3F880211A604FF0C0
:106A80000109C5F80090FFF7DFFE88F80090B245D5
:106A90002CBF5444A41924F07F44C5F84045D5F8D0
:106AA0000435DB1B23F07F43E41B033324F07F44D6
:106AB000A3420AD9D5F80435C5F84035FFF7C4FE1E
:106AC000364B4FF40032C3F80021324B00221A70CB
:106AD00005B0BDE8F08F114691469FE71174D26969
:106AE0000123002AFAD1002B9CD02A609AE70023C8
:106AF0001946F6E7D31A23F07F43834234BFC31A03
:106B00000023236050E721681368994213D8591A6B
:106B10001160E26152E7091AD8691A4638B1034692
:106B200018688842F7D3401A186018461346216047
:106B3000E061DC610FE71346F2E74C4511D1D36900
:106B40002B6073B9DFF844E00120CDE90212CAF8E6
:106B50000800CEF800300F4B1870FFF775FEDDE926
:106B600002120B68C969C9F81C1011B10868034406
:106B70000B602B68934218BF4FF0010850E700BF2D
:106B80002CA200202DA2002034A2002030A2002040
:106B900024A2002020A200200010014000E100E01B
:106BA00014A10020FEFF7F0021A20020F8B51B4E9B
:106BB0004FF40033C6F88030BFF34F8FBFF36F8FB1
:106BC000174D184F4FF480330124C5F84833C5F8EA
:106BD00008336C60FFF738FEAC6000243C60FFF7C0
:106BE00033FE114B1C70114B0B221C809A70104B02
:106BF0001C60104B1C70104B4FF480121C70E02373
:106C0000C6F8802186F814333260C5F8084586F846
:106C10001133D5F804353B602046F8BD00E100E0B3
:106C20000010014030A2002021A2002014A1002069
:106C300034A200202CA200202DA20020074B9B781C
:106C40004BB132B128B10368187C20B959745A612C
:106C50007047072070470820704700BF14A100202C
:106C60002DE9F743DFF8848098F8023005460E4698
:106C70001746ABB3A0B3042930D9436983B3437C2F
:106C80000024012B0DF107000CBF8946A1468DF8A9
:106C9000074000F04BF80DF10600FFF797FDD8B163
:106CA000012303700F4B4560D3F80435C0E9049706
:106CB000C0E902369DF8063088F801309DF80700DB
:106CC00000F064F824B9084B4FF48012C3F8002197
:106CD000204603B0BDE8F0830424EFE70724F7E77C
:106CE0000824F5E70010014000E100E014A10020B5
:106CF000064A92783AB130B1426922B10022027458
:106D00000221FFF779BD0820704700BF14A10020C1
:106D1000EFF30583C3F308032BB9EFF31480C043EB
:106D200000F00100704701207047000070B5044674
:106D3000FFF7EEFF012803D01049432003F082FA49
:106D4000EFF3108672B60E4A9068012398B99360EB
:106D50000C4B0D4DD3F8801029401160C3F88050C2
:106D6000D3F8841051604FF0FF32C3F884202070B4
:106D700006B962B670BD2370FAE700BFD6190300EA
:106D80000CAD002000E100E0FC06FFBD10B504469C
:106D9000FFF7BEFF012803D00949512003F052FA42
:106DA000084B9A685AB154B9EFF3108172B6064A8B
:106DB00018681060586850609C6001B962B610BDD8
:106DC000D61903000CAD002000E100E0024B1B6867
:106DD0000021986803F092BEF09400201EF0040F8A
:106DE0001CBFEFF309800AE0EFF308800549064A6B
:106DF000884201D8904202D88D464FF00000034BE4
:106E0000184700000000042000E00320116E02007B
:106E10002DE9F347054600F0B1FF00F0E7FD00283B
:106E2000FBD12F4C2F48304B241AE40824049F6ACE
:106E300044F00104002D4ED0AA692C49204600F0F0
:106E400045FFEB680193AB68294900932046D5E9DB
:106E5000002300F05AFFEB6900932649D5E904238B
:106E6000204600F046FF204BDB6A980703D52249F5
:106E7000204600F027FFDFF89490DFF894A000266A
:106E80004FF0010808FA06F33B4206D059F82620D5
:106E90001AB15146204600F019FF01361A2EF1D1E1
:106EA000390605D5104B15495A6B204600F00EFFE8
:106EB0003A0405D50C4B12499A6B204600F006FFA8
:106EC000104B1B68DB0700D500BE2846FFF732FBDE
:106ED00002B0BDE8F0870C49204600F0F3FEC2E79F
:106EE000E03403007834030000ED00E02B1A0300C7
:106EF000401A0300751A0300D01A03001F1B030079
:106F00003F1B0300F0ED00E09D1A03001C2003006E
:106F1000141B030010B5034653E8000F0A4643E86C
:106F2000002494F0000FF7D110BD10B5034653E8CC
:106F3000002F42EA010043E8000494F0000FF6D16C
:106F400010BD10B5034653E8000F00EA010243E804
:106F5000002494F0000FF6D110BD10B5034653E89D
:106F6000002F02EB010043E8000494F0000FF6D17B
:106F700010BD10B5034653E8002FA2EB010043E813
:106F8000000494F0000FF6D110BD0121FFF7CDBF32
:106F90000021FFF7D6BF000010B50446002834D00A
:106FA00003681BB91A49FF2003F04CF9636823B941
:106FB00017494FF4807003F045F9A36823B91449C9
:106FC00040F2011003F03EF9E36823B910494FF491
:106FD000817003F037F9238A23B90D4940F2031079
:106FE00003F030F9D4E9012321689B1ADBB20A606F
:106FF000013BDBB2FF2B226802D10020107110BDD3
:107000001168481C10600B70F2E70E20F7E700BF14
:107010008420030037B5044620B914494FF4927018
:1070200003F010F900250DF107008DF80750FFF768
:107030007DFE2268616813688B4210D9591E116069
:1070400013F8015C228AE36802FB05352268A36815
:1070500011685B1A1179DBB2994238BF13719DF840
:107060000700FFF793FE284603B030BD84200300DD
:1070700037B50C46054620B9104940F2471003F0D9
:10708000E1F824B90D494FF4A47003F0DBF80023B4
:107090000DF107008DF80730FFF748FE2A681368E6
:1070A000591C1160E968641A298AB4FBF1F41C7058
:1070B0009DF80700FFF76AFE03B030BD842003008F
:1070C00038B5074C051E04F1080318BF1C46236899
:1070D0002BB11A6822605B6828469847F7E738BDED
:1070E00040A2002020B9054B01225A70FFF7E8BFEB
:1070F000012802D1014A9070F8E7704738A20020B9
:1071000020B9034B01225A70FFF7DABF704700BF66
:1071100038A2002038B50B4C237883B90A48636045
:10712000A3602361E36001F0B7F8054602F0BCFDFF
:1071300008B901F0C5F801232370284638BD85251C
:10714000FBE700BF38A20020E570020013B5164C23
:10715000237823B915494FF4857003F073F8E36879
:1071600023B9124940F20B1003F06CF800230DF123
:1071700007008DF80730FFF7D9FDE368013BE360B6
:10718000E36853B902F090FD18B10849792003F083
:1071900059F801F0B3F80023A3709DF80700FFF73A
:1071A000F5FD02B010BD00BF38A20020D4200300BE
:1071B000012813B50CD0032820D038B9164B012272
:1071C000C3F88020BFF34F8FBFF36F8F02B010BDA5
:1071D000124C00230DF107008DF80730FFF7A6FDD4
:1071E00023780BB9FFF796FFE3689DF8070001339A
:1071F000E3600123A370FFF7C9FDE7E7074B1B78A6
:1072000023B9074940F2452003F01CF801F058F873
:10721000FFF79CFFDAE700BF00E100E038A20020A2
:10722000D420030010B5044618B90649312003F0F4
:1072300009F8A2682AB16369216820699847002388
:10724000A36010BD292103000EB433B5059D04468B
:1072500018B91149422002F0F5FF63691BB90E49C4
:10726000432002F0EFFF23681BB90B49442002F0D2
:10727000E9FF63681BB90849452002F0E3FF35B117
:1072800006AB01AA29462046019300F071F802B02E
:10729000BDE8304003B0704729210300826830B454
:1072A0000468551C8560A154D0E901329A4202D38A
:1072B00030BCFFF7B7BF30BC704700002DE9F84F76
:1072C0009846DDE90A43154682460F460A464FF0C6
:1072D0000109AA420FD2C14538BFC14613F0010BC4
:1072E00001D16CB900240126B8F1010F1BD908F1B6
:1072F000FF386E43F8E709F10109B2FBF5F2E8E760
:107300009B070ED5B8F1000F0CBF30262026A145F3
:10731000E9D2013C31465046FFF7C0FF002CF6D1C0
:10732000E0E72026F3E7B7FBF6F39D42E1D9DFF86B
:107330003C80B7FBF6F3504618F8031006FB1377B2
:10734000FFF7ACFF3346AB42B6FBF5F6F1D2BBF12B
:10735000000F02D00CB1A14501D3BDE8F88F202168
:107360005046013CFFF79AFFF4E700BFBC21030041
:107370002DE9F74F88461746054620B9B1494FF425
:10738000A27002F05FFF6B6923B9AE494FF4A3709E
:1073900002F058FF2B6823B9AA4940F2471002F0C7
:1073A00051FF6B6823B9A7494FF4A47002F04AFF5C
:1073B000B8F1000F00F0428118F8011B49B92B7B8E
:1073C000002B00F03B81284603B0BDE8F04FFFF7EB
:1073D00029BF252940F0B780002698F800302D2BD2
:1073E000424608F1010823D0302B24D02B2B25D086
:1073F00000242A2B02F1010123D13B681A1D3A60B7
:107400001B680A461C4413782E2B26D101324FF0FC
:10741000000A104610F8011BA1F1300CBCF1090F55
:107420001DD80A2303FB0A13A3F1300A0246F0E732
:1074300046F00106D1E746F00206CEE746F0040624
:10744000CBE711F8013CA3F130000928DBD80A2270
:1074500002FB0434303C0A46CBE74FF0000A12F836
:10746000011B01F0FB0068289046F8D0782909D864
:107470006F290CD8632962D022D8252963D05829D6
:1074800000F0888098F80030002B95D197E770398C
:107490000829F7D801A353F821F000BF177602009E
:1074A0008574020085740200A575020085740200CF
:1074B00083750200857402008574020095750200D0
:1074C000642901D06929DDD13A68111D3960D2F8EB
:1074D000009089EAE972A2EBE9724FF0010B092AE8
:1074E00035DCD34538BFD3462CB1B9F1000F01DBF1
:1074F000720700D5013CB30702D5BAF1000F03D0E3
:10750000F00701D44CBB0024B9F1000F2DDAC9F10A
:1075100000092D212846FFF7C1FE06F00302022ACA
:1075200004D1BAF1000F01D11CBB0024CDE9004603
:1075300053460A2249462846FFF7C0FEA2E73B68A9
:107540001A1D3A6019782846FFF7A8FE9AE70A2321
:107550000BF1010BB2FBF3F2C1E7A345D4D220211A
:107560002846013CFFF79AFECCE77107D5D52B21C1
:10757000D0E7A345DAD230212846013CFFF78EFE42
:10758000D2E73968CDE900460A1D3A6053460A221F
:107590000968D0E739680A1D3A60CDE900465346CC
:1075A0001022F5E73B681A1D3A6016F00106D3F881
:1075B000009028D1B9F1000F03D0484603F0C0FB7A
:1075C0000646B44200D904BB09F1FF3919F8011F7E
:1075D00000293FF457AF2846FFF760FEF6E728463C
:1075E0000136FFF75BFE19F806100029F7D1A64215
:1075F000BFF448AF002C3FF445AF20212846013CA2
:10760000FFF74CFEF3E70026EDE720212846013C7A
:10761000FFF744FED5E73B681A1D3A603021284643
:107620001C68FFF73BFE78212846FFF737FE002253
:107630000823CDE90032214610227CE703B0BDE8E3
:10764000F08F00BF6F2103007047000007B5044BA7
:107650000093044A402300F032F803B05DF804FBC5
:10766000697602004DA200202DE9F84388461446B1
:10767000B2B10F4B0F4E0325002743F001092246FC
:1076800008EB07010020FFF735F80744241A48B932
:1076900033782BB14FF47A40C847013D02D13570A1
:1076A000BDE8F88301233370002CE8D1F8E700BF70
:1076B000E02103004CA200207047FFF76FB8F0B53F
:1076C00095B01D46164608460C4600F02AFD1A9B4A
:1076D0000D93CDE9086500252B46082205A9204613
:1076E0000A958DF82C500C9500F042FD079B0293F3
:1076F000069B03939DF814308DF8115003F003029C
:10770000012A1DD1BDF81420059DC3F3C203C2F3A5
:1077100083168DF81030B20008230EA9204600F021
:1077200027FDC5F3952508AB0093324602AB0EA9A1
:10773000284600F099FB204600F0F7FC15B0F0BD9C
:10774000022AF8D1BDF81650C3F3C203C5F3891558
:107750008DF810300827082D2E4628BF08263B46F6
:1077600032460EA9204600F003FDAD1B08AB02AA6D
:1077700031460EA8374400F0DBFB002DEBD1DAE7F1
:1077800008B5FFF79AFF0748042100F0CDFA00285A
:1077900003DA0549412002F055FD044B01225A71DC
:1077A00008BD00BF5C350300F4210300D494002021
:1077B000037813F0040216D003F00303012B03D067
:1077C000022B09D0012070470A6800880232C0F3FA
:1077D000831002440A60F5E70B684288023303EB2A
:1077E00092130B60EEE71046704700002DE9F04F52
:1077F00089B000230446861C0DF10F000F46154684
:107800008DF80F30FFF792FA494801683960D0E9E6
:107810000132134401335B1A824600F21C4700F523
:10782000836900F21448B3421CD30020002D7BD0A2
:1078300004F00F039B0143F0050363F30F00DAF834
:107840000020DAF808301340033316444AF82300C6
:107850009DF80F00CAF80060FFF798FA012009B000
:10786000BDE8F08F01213846FFF777FB4846FFF768
:107870008CFB4046FFF789FBDAF80400DAF808B021
:10788000049000EA0B0003300AEB800004A9FFF724
:107890008FFF049B0246F8B90BEA03010AEB810152
:1078A00003F1020CC8680590013303EA0B0B0AEBE5
:1078B0008B0B00F003000128DBF80C10CDF810C092
:1078C0002AD002280BD01B4901924FF4BF7002F05E
:1078D000B9FC019A93460CE00BEA0300D3E7BDF82C
:1078E0001630C3F3891303334FEA114B0CEB9303A8
:1078F00004934046FFF74CFB10B1049BCAF80430D8
:1079000059463846FFF729FBDAE901231344DAF830
:10791000002001339B1A86E7BDF81430C3F38313AC
:107920004FEA114B6344E3E7A40544F0060086E701
:1079300060A30020632203000B4B0C48FF2210B50C
:107940009A600022C3F81824C3E90022C3F8142463
:10795000012283F8202400F09DFB044610B904485E
:1079600000F030FC204610BD60A30020103503005D
:10797000D022030030B50A4C71B10A4A0A49121BE1
:10798000D20800239A4201D1002030BD31F82350A3
:10799000854202D00133F5E7034654F83300F4E79B
:1079A0007834030010350300AC9E0020094B0139E8
:1079B00003EBC000032909D8DFE801F00A0204063E
:1079C0000420704700797047407970470020704765
:1079D0000220704778340300034BD3E90030C31A08
:1079E00058425841704700BF60A300202DE9F04382
:1079F00087B0FFF7F1FF0646002840F0F9807D4D83
:107A0000C5F81804BFF34F8F6B68AC68029323402E
:107A1000033305EB830002A9FFF7CAFE029B18B1EE
:107A2000D5F81824002A5FD004EA0302991C013318
:107A300005EB8202234005EB8303D268DB680493E5
:107A400002F00303022B0392029160D1BDF80E30C5
:107A50006948C3F38917502FB84628BF4FF0500824
:107A600068F38F1308F10801ADF80E3000F02AFB1F
:107A70000646002800F0A78000F053FB00230822F0
:107A800003A9304600F060FB029924EA01020132AA
:107A9000B8EB820F4FEA820332D95FFA88F85BB302
:107AA0002140DCB2A8EB040803315FFA88F9A04654
:107AB000524C05EB810108234246304600F044FB5E
:107AC00034B108F108034A462146304600F03CFB39
:107AD000029B033703EB97070297D5F81834002B66
:107AE00049D1D5F8104459E02A689A428FD86A6083
:107AF000304607B0BDE8F08340491C469946DAE7B6
:107B00000C40E11C0823424605EB8101DDE7012B17
:107B100059D1BDF80C303848C3F38311062928BF6A
:107B2000062161F3891302318900ADF80C3000F0B1
:107B3000C9FA0646002846D000F0F3FA00230822CE
:107B400003A9304600F000FB0027BDF80C20C2F36B
:107B50008312BB00974203F10803BED202994A1C6C
:107B600021400331029205EB81010422304600F0EE
:107B7000EBFA0137E9E7304600F0D7FAFFF72CFFC0
:107B800080F00100C6B2B3E7E3685B7923B12368F4
:107B900031461B6820469847E3681C68002CF3D1E7
:107BA000304600F0C2FA0DF107008DF80740FFF7EC
:107BB000BDF8D5F818340BB9029B6B609DF807002F
:107BC000FFF7E4F8DAE7D5F8104454B90C4B0D4848
:107BD0000D49C01AC008000440F0020000F072F81D
:107BE000CCE7236820469B689847E3681C68ECE76D
:107BF00000267DE760A30020103503006CA3002061
:107C000078340300D0340300BA2203002DE9F74F83
:107C1000274D04460F46914601A901221846D5F882
:107C200008A09846FFF7E2FD78B3019E0023B01C40
:107C3000434503EB000132D100211E48FFF76AF9EA
:107C40004FEA144980F3100B1B4B1C4A9B1AB9EBEB
:107C5000D30F04D31A4940F2A31002F0F3FA731CB5
:107C600003EA0A03E40005EB830304F0380449EA5D
:107C70000B4006EA0A0644F00104D860033644EAE1
:107C8000881343EA872345F8263095F820341BB142
:107C9000FFF7ACFE0028FBD103B0BDE8F08F0AEA85
:107CA000010105EB810159F82320CA600133BFE7C8
:107CB00060A300207CA70020103503007834030067
:107CC0006322030000231A46FFF7A0BF07B5012374
:107CD000019201AAFFF79AFF03B05DF804FB07B514
:107CE000CDE9002302236A46FFF790FF03B05DF859
:107CF00004FB1FB5CDE90123069B039301AA0323CF
:107D0000FFF784FF05B05DF804FB1FB5CDE9002344
:107D1000069B0293079B03936A460423FFF776FFB3
:107D200005B05DF804FB000030B5134AD2F81044EA
:107D300003460020214649B9DC682071D2F810447E
:107D400054B9C2F81034DB68196030BDC9680D79C8
:107D500085420AD00968EEE7E468D96824680C60B7
:107D6000D2F81024D2681360EFE701300A28E1D17D
:107D70004FF0FF30E9E700BF60A3002038B5094AA3
:107D80000123D2F8104482F820341D4604B938BDCE
:107D9000E3685D71236820465B689847E3681C6868
:107DA000F4E700BF60A3002007B503460846197A30
:107DB000052911D05B7A2BB1094A0A490190FFF7D6
:107DC00043FA019808490190FFF73EFA019803B081
:107DD0005DF804EBFFF726BA002AF8D0F2E700BFFF
:107DE000DC220300E12203000123030030B5C38835
:107DF00085B004460D4633B1144A00921449154A21
:107E00002846FFF721FA217A05291DD0637A4BB164
:107E1000A088FFF7CBFD104B104953F820202846CF
:107E2000FFF712FA227A0E4BA08853F82220039211
:107E30000021FFF79FFD039A0A490346284605B033
:107E4000BDE83040FFF700BA05B030BDDC220300CA
:107E5000EC220300E422030068230300E122030074
:107E60008C230300042303002DE9F04385B01F4653
:107E70000C9D002395F80C902B7306460C469046FB
:107E800029463846FFF7B2FFB8F1060F09D8DFE8F8
:107E900008F00412181F2833400031462846FFF727
:107EA000D3F9002229463846FFF77EFF85F80C906B
:107EB00005B0BDE8F083226831462846FFF7C4F9D3
:107EC000EFE7D4E9002331462846FFF7BDF9E8E79C
:107ED000A36800933146D4E900232846FFF7B4F99C
:107EE000DFE7E3680193A36800933146D4E90023F8
:107EF0002846FFF7A9F9D4E723690293E3680193C1
:107F0000A36800933146D4E900232846FFF79CF983
:107F1000C7E76369039323690293E3680193A36846
:107F200000933146D4E900232846FFF78DF9B8E7DE
:107F300008292DE9F84F80460E4617461C463BD8C7
:107F4000002593F80C901D7319461046FFF74EFF5D
:107F5000DFF88CA0DFF88CB0AE422FD918F80520DE
:107F600059462046FFF770F90135082DF4D119491B
:107F7000194DDFF874A02046FFF766F94FF0000BAB
:107F80005E4522D918F80B207E2A1CD8134BD15CF1
:107F900011F0970F08BF2E2251462046FFF754F9E3
:107FA0000BF1010BBBF1080FEAD101222146384643
:107FB000FFF7FAFE84F80C90BDE8F88F5146204692
:107FC000FFF742F9D0E72E22E6E729462046FFF7E1
:107FD0003BF9E5E71823030016230300D53003001F
:107FE000142303000E2303001A2303002DE9F74F87
:107FF00099469DF83030009388469346064618B956
:108000002349B62002F01EF9F18872794A43043AF6
:108010004A4505D81E490192C42002F013F9019A7D
:10802000DBF80070B6F806A007EB0901914209F1F0
:10803000040488BFA2EB0907B4FBFAF5CBF8007083
:108040000AFB154445B9AAEB040BBB4528BFBB4648
:108050002FB903B0BDE8F08F3668013DF2E7009B11
:10806000043408EB050034445A466BB12146A7EBB3
:108070000B0702F035FCBA455D443668D3464FF035
:10808000000428BFBB46E3E701462046EFE700BFF8
:10809000A0230300FEF780BFF8B546790146721EA3
:1080A0000546002393422D6803D30024A64202D83C
:1080B000F8BD0133F6E70F682846FEF7D9FF013413
:1080C0003946F3E72DE9F843CD1C068A0746FEF74B
:1080D000A1FF043E35440446B5FBF6F5F0B14FF47C
:1080E0008073EDB28380C680013D076081464FF00A
:1080F0000008A84512D23846FEF78CFF064648B164
:1081000063790133637108F10108C9F80000076061
:108110008146EEE72046FFF7BFFF34462046BDE824
:10812000F88301210430FEF718BF10B50121044681
:108130000430FEF71EFF10F0FF0F04D12046BDE80B
:108140001040FFF7A9BF10BD1FB5144603920022CF
:10815000009203AAFFF74AFF039BA34203D00349FF
:10816000F62002F06FF804B010BD00BFA02303009A
:108170001FB5144603920122009203AAFFF736FFAF
:10818000039BA34204D003494FF4807002F05AF8D5
:1081900004B010BDA0230300064B10B500241C70D2
:1081A000054B1C60BFF35F8F0449054800F018F8C9
:1081B000204610BD24A8002028A80020FC2303008E
:1081C0001CA8002082680023936082681361826883
:1081D00053618268D360826853608268136070471D
:1081E00038B50D46044618B90849502002F02AF85F
:1081F0001DB90649512002F025F825602B686360FF
:108200006A68934204BF0023636038BD08240300FA
:1082100010B5044618B90B49632002F013F823681F
:108220001BB90849642002F00DF8636843B1226865
:1082300091680B4463605268934204BF00236360FB
:1082400010BD00BF0824030010B50D49A1F59472BC
:10825000914201D800200FE08C1AE30F03EBE403F6
:108260005B1002EBC30452F83330834205D802D2CC
:1082700004F10802ECE7606810BD2146E8E700BFA2
:108280006829030008B5FFF7DFFF024B002808BF8D
:10829000184608BD2B28030010B5044618B9064936
:1082A000A02001F0CFFF054A107918B90121146010
:1082B000918010BD8520FCE7682903002CA80020D0
:1082C00008B50B4B1B791BB90A49B92001F0BAFF5D
:1082D000094B1A68D20704D4E02283F80023012254
:1082E0001A604FF080430122C3F8182508BD00BF73
:1082F0002CA800206829030000E100E008B5084B25
:108300001B791BB90749F32001F09CFF064B0122A2
:108310001A604FF08042D2F81834DB03FBD408BD5A
:108320002CA80020682903000C00004007B5154B5D
:108330001A687AB100221A601B680093009B4FF004
:1083400080430122C3F808230F4B587910B95A71A2
:108350001B6898470D4B1A6882B100221A601B688F
:108360000193019B4FF080430222C3F80823064B80
:108370001B68012003B05DF804EB184703B05DF8FB
:1083800004FB00BF000100402CA8002004010040B5
:1083900000F1804000F5C040002382B00360036814
:1083A0000193019B02B07047054B4FF0FF32072845
:1083B00043F8202084BFC01880F85820704700BFC1
:1083C00034A8002010B503682F2B044604D90749B0
:1083D0004FF4F37001F036FF23681F2B83BF03F0C7
:1083E0001F03034823604FF0A04010BDBB290300CA
:1083F0000003005013B5019001A80C46FFF7E2FFFF
:10840000019B00EB8300D0F8003723F44033C0F821
:108410000037D0F8003743EA0443C0F8003702B011
:1084200010BD00004FF0A043D3F810350360024B9D
:10843000D3F81035436070470003005010B5174C57
:1084400094F86A3043BB04F130033021FF22013934
:1084500011F0FF0103F8012BF9D1C8B2FFF7A4FF17
:1084600001310C29F9D1062200210D4802F0D2FA7F
:108470000C4BE02283F8062340221A604FF4BE70B2
:10848000FFF786FF084B4FF00042C3F80423012397
:1084900084F86A30002010BD0820FCE734A80020D2
:1084A00098A8002000E100E000600040034B93F832
:1084B0006A00003818BF0120704700BF34A80020B0
:1084C0002F2873B504460D4604D93F494FF49870E0
:1084D00001F0B8FE3D4E96F86A30012B04D03A49BF
:1084E00040F2311001F0AEFE25B937494FF49970D2
:1084F00001F0A8FE331993F93020013261D1AA7836
:10850000002A52D0314B002253F8041B013146D1CE
:10851000331983F83020002346F82230920002F10C
:10852000804202F5C0422B78D2F81005697820F419
:1085300099101B04090520F4F85001F4801103F48C
:108540004033C2F810050B432102D2F8100501F4A4
:108550007C510B430343C2F810356D780194012D13
:1085600001A826D1FFF72EFF019B9D40C0F80855BA
:1085700001A80194FFF726FF019B154903F5E0735D
:10858000032240F8232024FA02F2012304F007001A
:1085900003FA00F08B5C18438854002003E001329A
:1085A000082AB1D1042002B070BDFE2283F8302029
:1085B000D3E7FFF707FF019A01239340C0F80C357A
:1085C000D6E70820EFE700BFFE29030034A800200B
:1085D00098A800202F2837B5044604D912494FF433
:1085E000BE7001F02FFE114D2A1992F93020013290
:1085F00004D10D4940F27D1001F024FE2B1993F8AF
:108600003030072B04D808494FF4BF7001F01AFE30
:1086100001A80194FFF7D6FE019A01239340C0F808
:10862000083503B030BD00BFFE29030034A8002088
:108630002F2837B5044604D912494FF4C37001F00E
:1086400001FE114D2A1992F93020013204D10D4951
:1086500040F2871001F0F6FD2B1993F83030072B0C
:1086600004D808494FF4C47001F0ECFD01A801944E
:10867000FFF7A8FE019A01239340C0F80C3503B020
:1086800030BD00BFFE29030034A800202DE9F04FC3
:1086900000248BB0CDE90244624D4FF48072012179
:1086A00002F1804303F5C04390B21B68012B06D151
:1086B000D5F804330B4202D0FFF76AFE0C430432B4
:1086C000B2F5907F4FEA4101EAD1574B1B68012B6D
:1086D00008D14FF4BE70FFF75BFE02A844F00044DF
:1086E000FFF7A0FE14F0FF0F1AD0504F002501260F
:1086F000344210D0AB0003F1804303F5C043D3F8FC
:108700001005D3F8101557F8253023B1C1F30141F6
:10871000C0F3052098470135082D4FEA4606E7D1FA
:10872000002C7BDA04AF002304937B604FF0FF330F
:10873000CDE90633DFF8F4903D4B00930026354633
:10874000009A12F9013B00925A1C51D0C3F3C200A7
:108750000121DAB203F03F0B03F0070301FA03F43F
:108760000AAB191811F8103C234241D04FEA921A73
:1087700009EB0B0292F9302059F82280B8F1000F72
:1087800009D1BAF1030F33D117F800C04CEA040C39
:1087900007F800C002E0BAF1030FF5D008A8019174
:1087A000CDF820B0FFF70EFE089B019903F5E07CA1
:1087B00011F8201C50F82C002142C0F3014006D0D3
:1087C000022815D1BAF1030F0CD1514605E0032858
:1087D0000ED1BAF1030F05D102215846FFF70AFE68
:1087E0000135EDB2B8F1000F02D051465846C047EE
:1087F0000136042EA4D18DB108A8FFF713FE029B09
:10880000089A9A42099B02D103998B4206D00292A0
:108810000393049A059B069207938DE70BB0BDE87E
:10882000F08F00BF006000407C61004034A8002051
:1088300094A8002010B5054C22681AB904495120AB
:1088400001F000FD2368BDE810401847A0A80020F3
:10885000572A03000023435082B043580193019BE1
:1088600002B0704770B5D0F8103105460C4653B1D0
:108870004FF48871FFF7EEFF63795A0703D5236839
:108880000BB101209847D5F814315BB14FF48A71D0
:108890002846FFF7DFFF63791B0703D523680BB179
:1088A00002209847D5F81C315BB128464FF48E71F1
:1088B000FFF7D0FF607910F0100002D1236803B1F8
:1088C0009847D5F8043163B14FF482712846FFF719
:1088D000C1FF0123237123681BB1BDE87040032051
:1088E000184770BD01490248FFF7BCBFA8A8002087
:1088F00000C0014001490248FFF7B4BFB0A8002002
:108900000010024001490248FFF7ACBFB8A80020A0
:108910000020024000F1804000F5E040002382B0DA
:10892000036003680193019B02B07047F0B5504BA0
:10893000504C1B6885B0002B3DD04FF4827094F8EA
:108940002E20FFF7E7FF2AB394F82F3013BB4A4BD2
:108950001B68002B33D04FF48070FFF7DBFF638B75
:1089600094F82D108B424FD922895B1A9BB292B298
:108970006383D31A626802EB4303404AC2F82C3681
:10898000C2F830164FF48270FFF7C4FF3C4B01224F
:108990001A6014E0636802932389ADF80C30E36831
:1089A00000218DF8041023BB2374236801A8984785
:1089B000002384F82F3094F82E30002BC7D1314B90
:1089C0001B685BB14FF48870FFF7A4FF002323748A
:1089D00002238DF8043001A8236898472A4B1B68AE
:1089E000EBB14FF48A70FFF795FF0023237405B0B5
:1089F000F0BD208B608363602081E160002AD4D1C8
:108A00001E4B01221A60D0E7BCD1E368012284F832
:108A10002F2013B100226283AFE76383B2E7666958
:108A20004FF000470125002EE1D0B6FA86F227FA72
:108A300002F34632920026EA030602F1804303F570
:108A4000E0431B68002BEED01046FFF763FFA2F552
:108A50008C72D30882F00402C2F380028DF80830D1
:108A60008DF8045023688DF8092001A89847DAE7AB
:108A700004710040C0A80020007100400070004058
:108A800004700040107100401471004010B503687C
:108A90002F2B044604D907494FF4F37001F0D2FBA1
:108AA00023681F2B83BF03F01F03034823604FF08D
:108AB000A04010BDBB2903000003005007B5019082
:108AC00001A8FFF7E3FF019A01239340C0F80C359A
:108AD00003B05DF804FB07B5019001A8FFF7D6FFCE
:108AE000019A01239340C0F8083503B05DF804FBF8
:108AF00013B54FF04023D3F818310BB3114B124C80
:108B000000221A601B680193019B236823B90F4957
:108B10004FF4277001F096FBE07FFF2803D0A37F7E
:108B20005BB1FFF7CBFF002363772372D4E90031F9
:108B3000074802B0BDE810401847FFF7CCFFF2E746
:108B400002B010BD18410040F0A80020B42A030074
:108B5000F8A800202DE9F743002406460F4600F54B
:108B6000A0754FF48038A146A30003F5A07398B216
:108B70002B686BB1D6F8043308FA04F21A4207D016
:108B8000C5F800902B680193019BD7E90031984705
:108B90000134042C05F10405E6D103B0BDE8F083EF
:108BA00001490248FFF7D6BF14A900200080004009
:108BB00001490248FFF7CEBF20A9002000900040E5
:108BC0000023435082B043580193019B02B0704789
:108BD000F0B54F4C236887B023B94E4940F2452089
:108BE00001F030FB4C48D0F8243105469BB14FF4DE
:108BF0009271FFF7E5FFD0F8043163B9A368C0F8BC
:108C000008330223A360A368C0F80433012303627E
:108C1000436107B0F0BDD5F80431002B49D03F4F78
:108C20003D484FF48271FFF7CBFF0FCF01AE0FC667
:108C30003B68336094F82E307BB1237B012B0CBF53
:108C4000D5F83C25D5F84C250292022B324B0CBFAF
:108C5000D3F83C35D3F84C3503932F484FF4B0711B
:108C6000FFF7AEFF2C484FF4AE71FFF7A9FF94F861
:108C7000303013B194F82E303BB1274B0022C3F8AB
:108C80000022A260264AC3F80823234AD2F8C4343B
:108C9000C2F8C4349A0736D501238DF8003094F811
:108CA00030300BB984F82F30D4E90031684698474A
:108CB000AFE719484FF4A471FFF782FF237B83B914
:108CC000164F0FCF01AE0FC63B68336094F83030BB
:108CD000002BDAD1C5F80032A360114BC5F8083378
:108CE000D3E74FF40073C5F8003240F20223A360CB
:108CF00003F1CE73C5F80833A368C5F80433012324
:108D0000AB602B6285E713F0040318BF0223C4E7AE
:108D10002CA900200B2B03000030004038A90020B4
:108D200002029C016DDF704779DF70477DDF70477D
:108D300064DF70472DE9F04F85B000250E9CBDF82B
:108D40003CB0B4F800A00191074690461E46A946E3
:108D50003A884A450DDC45B12388013BA3EB0A0361
:108D60009BB2FF2B3AD806F80A30002005B0BDE8C8
:108D7000F08F7A6852F82900039000220DF10B0160
:108D800003A8FFF7D5FF0028F0D19DF80B2042453E
:108D900021D12288002D14BF0020022002EB0801FF
:108DA000014459451ADC3DB9013292B2019B22803F
:108DB000B35422880132228022880DF10B01324403
:108DC00003A8FFF7B5FF0028D0D121889DF80B201C
:108DD0000A442280012509F10109B9E70C20C5E701
:108DE0002DE9F341089FBDF824801546CDE90078B0
:108DF000022204461E46FFF79DFF50B9334610225B
:108E000029462046CDE9087802B0BDE8F041FFF7D9
:108E100091BF02B0BDE8F0812DE9F04F0023178823
:108E2000138090F82D3085B006460D46144653B396
:108E3000082F01D80C2027E102A8FFF773FF0028B4
:108E400040F0228123880822EA54238801339BB210
:108E50001B222380EA542088013080B22080062221
:108E60000DF10901284401F03BFD23889DF80820FD
:108E700006339BB212F0FE0218BF01222380EA548F
:108E8000238801332380B378FBB123880433BB42AA
:108E9000D0D802A8FFF748FF002840F0F5802388CB
:108EA0000322EA54238801339BB219222380EA5417
:108EB0002388BDF8082001339BB2E9182380EA54C7
:108EC000120A4A70238802332380F2789AB12388E9
:108ED000D91CB942AED80221E954238801339BB290
:108EE00001212380E95423880B449BB22380EA5458
:108EF00023880B4423807268AAB12388D91CB94205
:108F000098D8022192F90020E954238801339BB2BA
:108F10000A212380E954238801339BB22380EA5439
:108F20002388013323803389002B40F0A180338ACA
:108F30005BB1CDE900472B460722032106F1100063
:108F4000FFF74EFF002840F09F80338B5BB1CDE9E7
:108F500000472B461522142106F11800FFF740FFA9
:108F6000002840F09180326A002A40F09080D6F8C4
:108F70002480B8F1000F30D0B8F804302188981C54
:108F80008A1C0244BA423FF655AFFE283FF652AF64
:108F900003336B54238801339BB2FF222380EA54AE
:108FA000238801339BB22380B8F80020EA54E918E3
:108FB000120A4A702088023080B22080B8F804205B
:108FC0005AB1D8F8081000296BD0284401F088FC69
:108FD0002388B8F804201344238096F82C30002B03
:108FE00040F09A80307800284ED03388012B58D03A
:108FF000228802F1020CBC453FF61CAF012805D1C6
:109000007378023313449F42FFF414AF023FBF1A38
:10901000BFB202A905EB0C00ADF80870FFF786FEA1
:1090200090BB3178BDF80830022900F0BA80727820
:109030009A4202D3BB4240F2B280012940F0B38091
:10904000974293B2C0F0AF80ADF808300821BDF868
:109050000830FE2B3FF6EEAE22880133AB54228857
:10906000013292B22280A9542288134423800BE05B
:10907000CDE900472B460622022106F10800FFF742
:10908000AFFE00283FF453AF05B0BDE8F08FB4F851
:1090900000C00CF10603BB423FF6CCAE1188052997
:1090A00001D80720F0E76FF4486E01EB0E039BB286
:1090B0004FF27D3E7345F4D95388052BF1D96FF4F7
:1090C0004860181880B27045EBD94FF6FF708142A6
:1090D00003D0834201D09942E3D8052305F80C3030
:1090E000238801339BB212212380E9542388013362
:1090F0009BB223801188E954E818090A417023883B
:1091000002339BB223805288EA54E918120A4A704B
:109110002388023323802AE7B36A002BC1D04FF0A3
:1091200000094FF00C0A4FF0160B96F82C305FFA3E
:1091300089F293427FF656AFB16A0AFB02F201EB65
:109140000208B8F80430981CFE283FF673AE208859
:1091500003332B54238801339BB2238005F803B0DB
:10916000238801339BB223808A5AEA54E918120AF1
:109170004A702088023080B22080B8F804205AB1AA
:10918000D8F8081000298CD0284401F0A9FB2388C6
:10919000B8F804201344238009F10109C5E7092127
:1091A00055E7BB42FBD9ADF808704FE770B5C0B1C9
:1091B0004AB116880024B44203D305196D789D4244
:1091C00008D0A14201D800200BE0055D01352C44F8
:1091D000A4B2F0E7A142F6D9A31C1380005D0138C8
:1091E00080B270BD13B513460022ADF806200DF114
:1091F00006020446FFF7DAFF10B1BDF80630E018AA
:1092000002B010BD72DF704773DF704738B50122BE
:1092100004460D46B0F83812D0F83402FFF7E2FFEA
:1092200000B1057004F13C0204F50D7104F1540025
:10923000BDE83840FFF7E6BF80F830107047F8B55A
:1092400004460F46002975D0002873D091F87A3073
:109250001BB191F89830002B6ED1D7F8A030042BB9
:109260006AD0D7F89C30042B66D04FF0000C84F8FD
:1092700002C007F178060FCE251D0FC50FCE0FC512
:1092800096E8070085E8070084F830C0D7F8A430D6
:109290006363D7F8A830A3634FF6FF7504F50D7329
:1092A000C4F84432A4F848520722614604F24A2026
:1092B00001F0B0FB23780BB984F8545094F82430B3
:1092C000002B14BFEE231F2304F15501C4F8341200
:1092D000A4F8383204F50E723846FFF79DFD40BB06
:1092E00094F82430002B14BFEE231F2304F2431103
:1092F000C4F83C12A4F8403204F5107207F13C00A7
:10930000FFF78AFDA8B9A369A4F848304FF4807329
:109310000125A4F8503063692064014684F83C506C
:10932000636404F13C0204F15400FFF76BFF00B9E1
:109330002570F8BD0E20FCE70720FAE7F8B507789E
:1093400004460D46002F00F0048100F24A26817089
:1093500007220021304601F05DFBE38813B1A378BA
:10936000012B04D0E3794BB1A378022B06D1636BB8
:10937000A3B1012284F8512208209847334604F50E
:10938000147113F8012F12B99942FAD117466B1EC6
:10939000032B52D8DFE803F0050B0F1284F851328B
:1093A000ECE7A3791BB194F8243003B95FB9E379F2
:1093B0000BB1002F43D1237A002B42D1637A002BCB
:1093C0000CBF00250425636BA570002B3BD0033D2B
:1093D000012D38D86279002A35D094F8522292BBF8
:1093E00084F85422012284F853220720984704F17C
:1093F0003C0518220021284601F00CFBE36A94F892
:109400002420581E0121022828BF0B4684F83C1056
:1094100084F8513032B1884296BFA36A84F8521062
:1094200084F85230A178002384F8503004291BD8E6
:10943000DFE801F0770D223559000025C3E702254A
:10944000C1E70325BFE7002384F85332CFE7C4E91F
:109450001063C4F844320223012284F83C30802394
:1094600084F83120A4F84830A378002B5CD1636BDA
:10947000002B6AD1002067E00223002A84F83130F3
:1094800014BF0723032384F83C302369A4F8483031
:109490000023C4F84432E36826646364E4E7636944
:1094A0006364A369A4F8483012B1062384F83C3001
:1094B0006379B3B194F852329BB994F8543283B1C2
:1094C000022384F8503004212046FFF79FFE002835
:1094D000CAD1052384F8313004F50D73C4F8443241
:1094E000C2E70323F6E7E3696364236AA4F848301C
:1094F00012B1062384F83C30637983B194F8523278
:109500006BB994F8543253B1022384F850300421DB
:109510002046FFF77BFE0028A6D10623DAE70423C6
:10952000D8E784F831309FE7D4F844122A4604F192
:109530005400FFF767FE38B994F8301094F85400DF
:10954000FFF762FE002892D0F8BD94F831009847EA
:1095500090E70820F8E710B50388112B0C460AD0D5
:10956000262B1FD0102B05D1C37B012B02D1838862
:10957000A1F8483210BD002381F852328288B1F838
:1095800048329A42F6D10B79002BF3D101212046C3
:10959000FFF7D4FE0028EDD0A36B002BEAD0BDE886
:1095A00010401847037A013B012BE3D88978052343
:1095B0000131B1FBF3F303EB8303C91AC9B2E6E748
:1095C000704775DF704776DF70477ADF70477BDF63
:1095D00070470000034B1A8882420CBF18460020D7
:1095E000704700BF7CA90020024B9B6903B118475C
:1095F000704700BF60A9002073B585B22846FFF709
:10960000E9FF044670B1164E027A337B9A420BD2C0
:1096100000F10A012846FFF7D4FFE8B1112801D074
:10962000FFF7E2FF02B070BD00230372337C43B149
:109630003B212846FFF7C7FF30F0080301D0FFF7B2
:10964000D3FF7369002BEDD000228DF80420ADF814
:10965000065001A89847E5E7237A01332372E1E732
:1096600060A9002037B50B46497A0F4A71B9D2E993
:1096700001141D7A0246002D18BF21465868FDF7D7
:10968000EFFA08B1FFF7B0FF03B030BD0021197247
:109690005369002BF8D00122ADF806008DF80420A4
:1096A00001A89847F0E700BF60A900204B88028816
:1096B0009A4213D842889A4210D380888A8840F20E
:1096C000F313984294BF031AC31A934206D800F2C8
:1096D000F310904234BF00200120704700207047F3
:1096E00070B50388122B014659D004D8102B1ED018
:1096F000112B44D070BD502BFCD12F4BC288DB897D
:109700009A42F7D1038A022BF4D186883046FFF7BC
:1097100061FF05460028EDD001F1120000F08AF843
:1097200038BB6868FDF7E4FA0028E3D009E0C37BA2
:10973000012BDFD14FF6FF70FFF74CFF054620B934
:109740000420BDE87040FFF74FBF8E881B4A06809B
:10975000002303721368C0F80A305368C0F80E3053
:1097600010310A30FFF7A2FF134B6872DB89002B20
:10977000C0D129463046BDE87040FFF773BF8088EE
:10978000FFF728FF04460028B4D04068FDF7B0FA80
:1097900008B1FFF729FF4FF6FF732380AAE78688F9
:1097A0003046FFF717FF05460028A3D008310A30DE
:1097B000FFF77CFF6872DCE760A9002090A9002019
:1097C000F8B5064648B305460FCD154F3C460FC4C5
:1097D00095E8070084E807003068124C3C60B0B19F
:1097E000FFF7F3FEC0B93268136823605368636003
:1097F0000D480E4A4FF6FF7303800D4B40F8043FAF
:109800000021FDF71BFA002818BF032004E02046C2
:10981000FFF7DDFE0028EBD0F8BD0E20FCE700BF0F
:1098200060A9002090A900207CA90020F9950200E1
:1098300098A90020007800F00100704790DF704781
:10984000A5DF7047B5DF70477FB50023ADF808107E
:10985000ADF80A106A4602A9064603930093ADF8D4
:109860000430FFF7EBFF054600B3124B124CE41A2D
:10987000E408FEF707FD240444F0010403460F4901
:1098800032462046FEF72BFABDF80020BDF8023024
:1098900052EA030103D00A492046FEF720FABDF838
:1098A00004201AB107492046FEF710FA284604B0F2
:1098B00070BD00BF78340300E8340300672B030059
:1098C000B12B0300F02B030080B14FF0F7130360BE
:1098D000FB230371F723C3801723038141F6FB3277
:1098E0000023016143818281184670470E20704732
:1098F00013B5034680880C46B8B91A88242A00F0AC
:10990000968014D8112A71D0232A00F09E80102A44
:109910003BD0A37A4BB1E1880020FFF791FF0028EC
:1099200040F099804FF48073638102B010BD3A2AF1
:1099300065D0552AEDD1DB88C988A072172B38BFB6
:1099400017238B4228BF0B462381FFF77BFF60B1B3
:10995000FEF798FC484B4949024649481B1ADB0868
:109960001B0443F00100FEF7B1F9E37A002BD0D1DC
:109970002369002BCDD040F6772200922289ADF8E2
:109980000420694620469847C3E70A790A73DB7BBF
:10999000012B13D0022B14D0E18823898B4205D2EE
:1099A0000020FFF74DFF70B90123E372217B637B39
:1099B0008B42AED20020FFF747FFAAE70B88E38077
:1099C000EAE74B88FBE7112802D10123A372EDE7F8
:1099D000FEF758FC284B2B49024629481B1ADB0886
:1099E0001B0443F00100FEF771F9DFE7F723CB809A
:1099F00017230B8141F6FB3348818B8189E75B8913
:109A0000CA88934228BF1346172B0A6938BF172309
:109A10000B814AB1C97A39B140F677210091ADF88E
:109A200004306946204690470023638171E71A7A23
:109A30000B694A73002B3FF46CAF4DF67A218DF819
:109A4000050000918DF804209BE7197A237B994249
:109A500028BF1946AFE711283FF467AFFEF712FCA5
:109A6000054B0849024606481B1ADB081B0443F055
:109A70000100FEF72BF958E7E8340300772C0300C8
:109A800078340300462C0300B0DF704766DF704770
:109A900010B5002104464088FFF7F8FF034608B9D7
:109AA000237210BD112801D10123F9E76368BDE8D5
:109AB0001040184760B159B10378DE2B0AD00B680B
:109AC0004360DE2303704FF6FF734380002070472E
:109AD0000E2070470820704728B10378DE2B04D190
:109AE0004180002070470E20704708207047F0B575
:109AF000054685B00C46F1B1E8B10B78DE2B1AD1E2
:109B000082884B889A4204D10B7A13B10846FFF73A
:109B1000BFFF2B88112B32D0512B0ED0012B0AD135
:109B20002B7A012B07D1A9886288914203D1237235
:109B30002046FFF7ADFF05B0F0BDAE886388B342A5
:109B4000F9D1AF79022FF6D1AD7B2B1F022BF2D8C2
:109B500000211022684600F05DFF052D14BF4FF470
:109B6000C0730023694630468DF80070ADF80430AC
:109B7000FFF78AFF0028DED063689847DBE7638839
:109B8000AA889A4204BF4FF6FF736380D3E710DFC1
:109B90007047000013B5044609496846FEF720FBEC
:109BA000019808B902B010BDD0E9002120469047C5
:109BB00018B16846FEF72CFBF2E71120F2E700BF70
:109BC000102D030013B5044607496846FEF708FB4D
:109BD000019B0BB902B010BD2046D3E9002190478C
:109BE0006846FEF715FBF3E7282D03000C4991F8B2
:109BF00016335A09EC231341DB0706D5094B9A6843
:109C00004AB94FF480030B607047074AA12142F222
:109C10000200FCF7CEBD1A6842F480021A60704759
:109C200000E100E00CAD0020B32C0300F7B5194FA4
:109C30003C7864BB184E012520463570FFF7AAFF1B
:109C4000112821D02046FFF7BDFF144B8DF80340AB
:109C5000186801900DF10300FDF768F8104901A89C
:109C6000FFF795FF0446B0FA80F0400938709DF880
:109C70000300FDF78BF83CB90A4B34701C70FFF7FA
:109C8000B5FF2846FFF79EFF204603B0F0BD08242D
:109C9000FAE700BFB9A90020B8A90020092D0300E8
:109CA000E9630200BAA90020014B1878704700BF91
:109CB000B9A9002007B508496846FEF791FA019B4B
:109CC00013B903B05DF804FBD3E900209047684660
:109CD000FEF79EFAF3E700BF1C2D0300FFF7EABF73
:109CE00060DF704769DF704761DF704730B5134D43
:109CF000ADF5017D4FF4FA740DF1020103A8ADF842
:109D00000240FFF7F1FF70B9294601A8FEF768FA93
:109D1000029B002BF0D003A8D3E90021904701A8B3
:109D2000FEF776FAF4E7052804D0054A40F2391127
:109D3000FCF73FFD0DF5017D30BD00BF0430030091
:109D4000342D0300024B1B780BB1FFF7CFBF7047D8
:109D5000BBA9002030B5054685B00C46002900F0AF
:109D6000B6805C4B0B600C22002101A800F052FE73
:109D700001238DF8063022688DF80450062301A9CE
:109D80002020ADF80830FFF7ADFF60B1FEF77AFA9A
:109D9000514B5249024652481B1ADB081B0443F040
:109DA0000100FDF793FF0C22002101A800F032FE14
:109DB00001238DF805302268002301A94020ADF869
:109DC0000630FFF78FFF60B1FEF75CFA424B454962
:109DD000024643481B1ADB081B0443F00100FDF751
:109DE00075FF0C22002101A800F014FEF723226861
:109DF0008DF8045001A92320ADF80630FFF772FF5B
:109E000060B1FEF73FFA344B3749024634481B1A1B
:109E1000DB081B0443F00100FDF758FF0C22002172
:109E200001A800F0F7FD0A2322688DF8043001A98B
:109E30000120FFF757FF60B1FEF724FA264B2B49AC
:109E4000024627481B1ADB081B0443F00100FDF7FC
:109E50003DFF0C22002101A800F0DCFD4FF4B063AF
:109E60002268019301A9A120FFF73CFF60B1FEF732
:109E700009FA194B1E49024619481B1ADB081B0434
:109E800043F00100FDF722FF0C22002101A800F0A1
:109E9000C1FD9DF8043022686FF3000301A9A020E2
:109EA0008DF80430FFF71EFF034668B1FEF7EAF9AC
:109EB000094B104902460A481B1ADB081B0443F0F1
:109EC0000100FDF703FF0023184605B030BD0E2347
:109ED000FAE700BFB894002000350300862D030088
:109EE00078340300CC2D0300182E03005F2E0300EE
:109EF000AB2E0300FC2E030073B505460668FFF782
:109F0000EFFE2B68B34204461DD91A481A4B1B4971
:109F10001B1ADB081B0443F002000190FDF7D2FE80
:109F20002B68174901983246FDF7D9FE4FF0805350
:109F30002A68D3F80C31134901989B0203F10053AE
:109F40009A1AFDF7C3FE2CB90F4B01221A70204656
:109F500002B070BD2046FEF795F9074B0B4902464B
:109F600004481B1ADB081B0443F00100FDF7AEFE9A
:109F7000EDE700BF78340300003503004F2F0300E6
:109F80007E2F0300AF2F0300BBA90020D92F0300B1
:109F90006CDF704772DF704774DF704776DF7047A1
:109FA00078DF70477ADF70477CDF70477FDF70476C
:109FB00086DF70478ADF70478FDF7047B1DF7047F9
:109FC00033DF704741DF70477047000037B50388C3
:109FD000212B044632D80F2B06D87D4B13B12046D7
:109FE000AFF3008003B030BD103B112BF5D801A2B8
:109FF00052F823F071A00200B5A00200DB9F02001E
:10A00000EFA002002BA10200DB9F0200DB9F0200F9
:10A01000DB9F0200DB9F0200DB9F0200DB9F020050
:10A0200047A10200DB9F020097A10200DB9F020014
:10A03000DB9F0200DB9F0200B5A102003B2B00F07A
:10A040008F80503B9AB2062AC7D8062BC5D801A2EA
:10A0500052F823F0D1A00200DFA002000FA10200FD
:10A06000DB9F0200DB9F0200DB9F020077A1020062
:10A07000584D818858482980FFF72EFD20B1574A56
:10A080004FF49D71FCF795FB002328881A4619466A
:10A09000FFF794FF20B1514A4FF4A171FCF789FBFF
:10A0A0004F4800F017FD4F4B002B96D02046AFF3E2
:10A0B000008092E7474B4C484FF6FF721A8000F041
:10A0C00009FD4A4B002B88D02046AFF3008084E77F
:10A0D000474B002B81D02046AFF300807DE7454BF6
:10A0E000002B3FF47AAF2046AFF3008075E7394884
:10A0F000002300881A468521FFF758FF00283FF407
:10A100006CAF364A40F28111FCF753FB65E73148EA
:10A11000002300881A461946FFF750FF00283FF435
:10A120005CAF2E4A40F28711EEE72A4800230088F0
:10A130001A461946FFF73CFF00283FF44EAF274A66
:10A1400040F29111E0E7037A012B7FF446AFFFF76D
:10A1500037FF00283FF441AF204A4FF4CC71D3E7DA
:10A1600080881321FFF71AFF00283FF436AF1B4AFF
:10A170004FF4D071C8E7A379002B7FF42EAF154BB5
:10A1800013211888FFF70AFF00283FF426AF134A6F
:10A1900040F2A711B8E7184B0BB1AFF30080174995
:10A1A0000020FFF707FF00283FF417AF0B4A40F2EB
:10A1B000C711A9E700238088ADF8043001A9FFF793
:10A1C000FBFE00283FF409AF044A40F2D1119BE79F
:10A1D0000000000018AD00202CAC0020103003005F
:10A1E0003F300300000000004F300300000000007B
:10A1F000000000000000000000000000E0940020CB
:10A2000008B5024AB021FCF7D4FA08BD10300300AB
:10A2100008B503784BB9054B3B211888FFF7BEFE04
:10A2200018B1034ABA21FCF7C4FA08BD18AD0020E2
:10A230001030030008B5024AAC21FCF7BAFA08BD99
:10A240001030030013B504460548019100F042FCAC
:10A25000019A04482146FCF7ACFA02B010BD00BFD9
:10A2600061300300EFBEADDE1FB5184C0023029332
:10A27000ADF80030CDF80B3023681B788DF8023034
:10A28000E5238DF8033006224CF2980369460DF160
:10A290000900ADF8043000F023FB23685B884FF61B
:10A2A000FF72934207D0062269460DF10900ADF80E
:10A2B000003000F015FB02A8FFF76AFE20B1044A47
:10A2C00040F22B21FCF775FA04B010BDBCA90020A8
:10A2D0001030030007B5FFF7A9FC20B10F4A40F288
:10A2E0003321FCF766FA002301A901200193FFF74F
:10A2F00031FD20B1094A40F23921FCF75AFA01A890
:10A30000FFF7FAFD20B1054A40F26E21FCF751FA41
:10A31000FFF7AAFF03B05DF804FB00BF1030030095
:10A3200010B51D4C86B011238DF80C302368596888
:10A330000191084600F004FD019982B203A8FFF7DD
:10A3400033FE20B1154A4FF42071FCF732FA4FF476
:10A350007070FFF725FE20B1104A4FF42171FCF711
:10A3600028FA0822002104A800F054FB23685A8927
:10A370009B89ADF8123004A84FF0C873ADF81020D7
:10A380000593FFF70FFE20B1044A40F28F21FCF73E
:10A3900010FA06B010BD00BFBCA9002010300300A9
:10A3A00000B5ADB0AC22002101A800F033FB0223C0
:10A3B0008DF8043040F20163104AADF806300123F5
:10A3C000ADF8143006928DF880304FF4F07200230F
:10A3D000CDE923230A480B4B2A9301A9FEF72FFF4F
:10A3E00020B1094A40F2B221FCF7E3F90448012107
:10A3F000FEF722FF2DB05DF804FB00BFDC940020C7
:10A40000C0A90020C99F02001030030000B589B028
:10A410001C22002101A800F0FDFA00234FF4203295
:10A42000CDE90132ADF812304FF470228DF81430BE
:10A43000094B039206930322084B8DF8102001A8C4
:10A440000793FFF7BDF920B1054A4FF43271FCF7CD
:10A45000B0F909B05DF804FB11A2020001A20200EC
:10A460001030030007B5074B0748019301A9FFF718
:10A4700021FB20B1054A40F2D321FCF79AF903B041
:10A480005DF804FB35A202002CAC00201030030064
:10A4900008B5FCF78BFB20B1024A40F22531FCF7EE
:10A4A00088F908BD1030030008B506480321FEF7FF
:10A4B00045FF30F0080304D0034A40F23231FCF784
:10A4C00078F908BDC0A900201030030008B5074B7B
:10A4D00093F85400FFF760FD30F0080304D0044AFD
:10A4E0004FF44F71FCF765F908BD00BFC0A900200B
:10A4F0001030030008B5FFF765FD20B1024A40F2B5
:10A500005131FCF756F908BD1030030008B51A4B5D
:10A510001860FDF741FE20B1184A40F25E31FCF7A9
:10A5200048F9FFF7B5FFFFF7D5FE154800F0D2FA5E
:10A53000FFF7F6FE134800F0CDFA13480021FFF7AD
:10A54000C3F920B10D4A40F29621FCF732F90F48C9
:10A5500000F0C0FAFFF724FF0D4800F0BBFAFFF748
:10A5600081FF0C4800F0B6FAFFF750FF0A484FF69B
:10A57000FF73038008BD00BFBCA90020103003009A
:10A58000863003009730030018AC0020A23003008F
:10A59000AE300300C130030018AD002070B5064690
:10A5A0000D461C4CFFF792FF7EB11F23D4F83412E6
:10A5B000A4F8383204F50E723046FEF72DFC20B1B7
:10A5C000154A40F2FD41FCF7F4F8F5B11F23134A98
:10A5D000D4F83C12A4F840322846FEF71DFC20B106
:10A5E0000D4A40F20451FCF7E4F80D4A02F5FC7103
:10A5F00002F11800FFF7CEFC20B1074A40F20C51DF
:10A60000FCF7D7F8FFF750FF70BDC4F83C52A4F830
:10A610004052EAE7C0A900201030030000AC00203F
:10A62000FCA90020054B1B68082B01BF044B1868D0
:10A63000B0FA80F0400918BF0020704730010010C8
:10A640003401001008B54FF080430022C3F80C21FC
:10A65000C3F81021C3F838254FF0805203F540436A
:10A66000D2F80414C3F82015D2F80814C3F824153E
:10A67000D2F80C14C3F82815D2F81014C3F82C150E
:10A68000D2F81414C3F83015D2F81814C3F83415DE
:10A69000D2F81C14C3F84015D2F82014C3F844159E
:10A6A000D2F82414C3F84815D2F82814C3F84C156E
:10A6B000D2F82C14C3F85015D2F83014C3F854153E
:10A6C000D2F83414C3F86015D2F83814C3F86415FE
:10A6D000D2F83C14C3F86815D2F84014C3F86C15CE
:10A6E000D2F84424C3F87025FFF79CFF10B1384B13
:10A6F000384A1A60FFF796FF18B1374BFB22C3F8B0
:10A700001825FFF78FFF48B13449354B0A681B689D
:10A7100022F00F0203F00F0313430B60FFF782FFD9
:10A7200018B1304B4FF400721A604FF08043D3F8E9
:10A730000024D20744BF6FF00102C3F800242A4A64
:10A74000D2F8883043F47003C2F88830BFF34F8FDB
:10A75000BFF36F8F4FF01023D3F80022002A03DBE2
:10A76000D3F80432002B2FDA204B0122C3F8042542
:10A77000D3F80024002AFBD04FF010221221C2F897
:10A780000012D3F80024002AFBD04FF0102312222D
:10A79000C3F80422154B1A46D3F800140029FBD045
:10A7A0000021C3F80415D2F80034002BFBD0BFF30E
:10A7B0004F8F0D490E4BCA6802F4E0621343CB6021
:10A7C000BFF34F8F00BFFDE70A4B0B4A1A6008BD6D
:10A7D0008C5600404881030000F00040E40E004029
:10A7E000580200104096024000ED00E000E00140F9
:10A7F0000400FA05E89400200090D0030649074AB7
:10A80000074B9B1A03DD043BC858D050FBDCFFF715
:10A8100019FFFBF73DFD000074350300B8940020DC
:10A82000AC9E0020FEE7FEE7FEE7FEE7FEE7FEE760
:10A83000FEE7FEE7FEE7FEE7002301461A4618465C
:10A8400001F016BE08B50021044601F045FE044B98
:10A850001868C36B03B19847204606F0F7F900BFAC
:10A86000D831030038B50A4C0A4D641BA4100AD035
:10A8700004F18043013B05EB8305013C55F80439A5
:10A880009847002CF9D1BDE8384006F0F7BF00BF6B
:10A89000AC9E0020A89E002070B50D4E0D4D761B7D
:10A8A000B61006D00024013455F8043B9847A64260
:10A8B000F9D1094E094D761B06F0DAFFB61006D025
:10A8C0000024013455F8043B9847A642F9D170BDE5
:10A8D0009C9E00209C9E0020A89E00209C9E002004
:10A8E000844641EA000313F003036DD1403A41D39B
:10A8F00051F8043B40F8043B51F8043B40F8043B5A
:10A9000051F8043B40F8043B51F8043B40F8043B49
:10A9100051F8043B40F8043B51F8043B40F8043B39
:10A9200051F8043B40F8043B51F8043B40F8043B29
:10A9300051F8043B40F8043B51F8043B40F8043B19
:10A9400051F8043B40F8043B51F8043B40F8043B09
:10A9500051F8043B40F8043B51F8043B40F8043BF9
:10A9600051F8043B40F8043B51F8043B40F8043BE9
:10A97000403ABDD2303211D351F8043B40F8043B89
:10A9800051F8043B40F8043B51F8043B40F8043BC9
:10A9900051F8043B40F8043B103AEDD20C3205D399
:10A9A00051F8043B40F8043B043AF9D2043208D091
:10A9B000D2071CBF11F8013B00F8013B01D30B8803
:10A9C00003806046704700BF082A13D38B078DD0E1
:10A9D00010F003038AD0C3F10403D21ADB071CBFB3
:10A9E00011F8013B00F8013B80D331F8023B20F81D
:10A9F000023B7BE7043AD9D3013A11F8013B00F856
:10AA0000013BF9D20B7803704B7843708B788370DD
:10AA100060467047F0B4860746D0541E002A3CD0EA
:10AA2000CAB2034602E014F1FF3436D303F8012B17
:10AA30009D07F8D1032C29D9CDB245EA05250F2C65
:10AA400045EA054533D9A4F11006360903F120077C
:10AA500007EB061703F1100242E9045542E90255DB
:10AA60001032BA42F8D1721C14F00C0F03EB021230
:10AA700004F00F0613D0331F23F0030304331344F1
:10AA800042F8045B9342FBD106F003042CB1C9B237
:10AA90001C4403F8011B9C42FBD1F0BC70473446B8
:10AAA0001346002CF3D1F8E714460346C2E71A46D2
:10AAB0002646E0E70EB400B582B003AB816853F8D8
:10AAC000042B019300F0ACF902B05DF804EB03B085
:10AAD000704700BF0FB400B5074983B004AB0868E6
:10AAE00053F8042B8168019300F09AF903B05DF8E4
:10AAF00004EB04B0704700BFF094002000290CBFA5
:10AB0000022200224FF4806300F000B82DE9F043E8
:10AB1000524C256883B004460F4690461E4615B138
:10AB2000AB6B002B65D0B8F1020F06D0B8F1010F66
:10AB300000F29180002EC0F28E802146284602F05D
:10AB4000A9FD216B41B104F14003994202D028468E
:10AB500002F016FF00232363B4F90C300022A26137
:10AB600062601A064DD423F44A6323F00303B8F15C
:10AB7000020FA3814CD001AB6A462146284603F060
:10AB800053F8A3891843A08116B317B3AB6B63B313
:10AB9000009BB4F90C002760B3421CBF40F4006076
:10ABA000A081B8F1010F08BF40F0010083B208BFD7
:10ABB000A08113F00800C4E904761ED013F0010050
:10ABC00035D000207642A661A06003B0BDE8F083D6
:10ABD000009E304603F0A0F8074660B3A38943F017
:10ABE0008003A381AB6B002BD2D1284602F058FE24
:10ABF000CEE7284602F054FE95E7A06003B0BDE81A
:10AC0000F0832169284602F0BBFEB4F90C30AAE7B4
:10AC1000002004F1430243F0020300250121A38137
:10AC2000A5602260C4E9042103B0BDE8F083A660FA
:10AC300003B0BDE8F083DDF80090B14506D048468A
:10AC400003F06AF8074608B14E46C7E7B4F90C307E
:10AC50004FF0FF30DDE74FF0FF30CFE7F0940020FA
:10AC600080EA0102844612F0030F4FD111F0030F66
:10AC700032D14DF8044D11F0040F51F8043B0BD0C4
:10AC8000A3F101329A4312F0803F04BF4CF8043B19
:10AC900051F8043B16D100BF51F8044BA3F1013227
:10ACA0009A4312F0803FA4F101320BD14CF8043BDF
:10ACB000A24312F0803F04BF51F8043B4CF8044B10
:10ACC000EAD023460CF8013B13F0FF0F4FEA332381
:10ACD000F8D15DF8044B704711F0010F06D011F860
:10ACE000012B0CF8012B002A08BF704711F0020F4E
:10ACF000BFD031F8022B12F0FF0F16BF2CF8022B39
:10AD00008CF8002012F47F4FB3D1704711F8012B5B
:10AD10000CF8012B002AF9D1704700BF0000000099
:10AD20000000000000000000000000000000000023
:10AD30000000000000000000000000000000000013
:10AD400090F800F06DE9024520F007016FF0000C6B
:10AD500010F0070491F820F040F049804FF0000413
:10AD60006FF00700D1E9002391F840F000F10800EE
:10AD700082FA4CF2A4FA8CF283FA4CF3A2FA8CF326
:10AD80004BBBD1E9022382FA4CF200F10800A4FA8D
:10AD90008CF283FA4CF3A2FA8CF3E3B9D1E90423E1
:10ADA00082FA4CF200F10800A4FA8CF283FA4CF318
:10ADB000A2FA8CF37BB9D1E9062301F1200182FAD2
:10ADC0004CF200F10800A4FA8CF283FA4CF3A2FAD8
:10ADD0008CF3002BC6D0002A04BF04301A4612BAE6
:10ADE000B2FA82F2FDE8024500EBD2007047D1E9E9
:10ADF000002304F00305C4F100004FEAC50514F078
:10AE0000040F91F840F00CFA05F562EA05021CBF48
:10AE100063EA050362464FF00004A9E70000000062
:10AE20002DE9F04FBFB01C460491914605460890AD
:10AE300002F0F2FE036811931846FFF781FF0994B0
:10AE40000F901DB1AB6B002B00F067830499B1F933
:10AE50000C2093B29E04084607D4496E42F4005376
:10AE600021F40051838141669BB21D0740F1D080DF
:10AE7000049A1269002A00F0CB8003F01A030A2B0F
:10AE800000F0D4809FED9A7B00238DED0C7B0E9318
:10AE9000CDE922331093129305932EAB21939A465A
:10AEA00099F80030002B00F0DD80252B00F0BE86E5
:10AEB0004D4603E0252B00F0C78025466B786C1CBF
:10AEC000002BF7D1B4EB090600F0CC80DDE922328B
:10AED00001333244072BCAF80090CAF80460CDE968
:10AEE000223200F3B6800AF1080A059A6B783244E0
:10AEF0000592002B00F0B680002367788DF867304C
:10AF00001A46194606939B4604F101094FF0FF3695
:10AF100009F10109A7F12003582B00F20283DFE8B1
:10AF200013F0DA0200030003E2020003000300034F
:10AF30000003000300032902BC020003B702C102A0
:10AF40000003C000B100B100B100B100B100B10018
:10AF5000B100B100B10000030003000300030003CF
:10AF6000000300030003000300039D0251020003DD
:10AF7000510200030003000300034C02000300031E
:10AF800068000003000300030003000359000003EE
:10AF90000003340200030003000300030003000366
:10AFA0000003000300030003AE01740151025102CB
:10AFB00051026F01740100030003620100034C01A0
:10AFC0006A001C0117010003ED0000035B00000391
:10AFD0000003C5004BF0100B1BF0200F00F0928215
:10AFE000099C073424F00703F3E802450993012381
:10AFF000C3E04BF0100B1BF0200300F07982099C9A
:10B00000073424F00703F3E8024509930023B4E072
:10B010000499089801F0C4F9002841F01381049BB9
:10B020009B8903F01A030A2B7FF42CAF049BB3F91E
:10B030000E30002BFFF626AF23464A4604990898A7
:10B0400001F078F9059019E0B4EB09063FF454AF2C
:10B050003CE721AA0499089803F0E0FE48B90DF1F5
:10B06000B80A42E7239B23B10898049921AA03F068
:10B07000D5FE049B9B895A0601F1E48005983FB0F8
:10B08000BDE8F08FA7F13003002019F8017B00EB39
:10B09000800003EB4000A7F13003092BF5D906909F
:10B0A00038E74BF0800B99F8007031E7002A41F047
:10B0B000B180114B10931BF0200F00F06F81099CA1
:10B0C000073424F00703F3E8024509931BF0010F4E
:10B0D00000F0388254EA050300F0348230238DF802
:10B0E00068308DF869704BF0020B022345E000BF19
:10B0F000000000000000000020320300099C54F80A
:10B10000043B0A9300258DF86750002B00F07F86E2
:10B11000711C00F05387324629460A9803F0C0F8A4
:10B12000002801F059800A9BC31A07932E4623EA90
:10B13000E3739DF867800994CDF808B003930B96EC
:10B14000B8F1000F00F0AD80039B01330393A8E03A
:10B150004BF0200B99F80070DAE6099C54F8043B98
:10B16000099447F630021C46B74B1093ADF868209F
:10B170004BF0020B0025022378274FF000088DF8D2
:10B180006780721C00F0E2812BF08002029254EA88
:10B19000050240F0D981002E40F01284002B40F0CF
:10B1A000DC841BF00103079300F0498530238DF800
:10B1B000B7300DF1B7030A9359E0002A41F032800D
:10B1C000099A1BF0200F52F8043B099240F03B858E
:10B1D0001BF0100F40F054861BF0400F00F050861B
:10B1E000059A1A805CE699F800706C2F03BF99F8F5
:10B1F00001704BF0200B09F101094BF0100B87E6B1
:10B200004BF0400B99F8007082E6002A41F0128062
:10B210001BF0200F00F02B81099C073424F007035A
:10B220001946F1E80223099114461D46002A73F1DC
:10B230000003C0F2F184731C9DF8678008D02BF0E6
:10B240008003029354EA050300F08484DDF808B01B
:10B25000002D08BF0A2C80F054840123303407935A
:10B260000DF1B7038DF8B740CDF808B00A93079BEE
:10B27000B342B8BF3346039300230B9360E7099CA6
:10B28000002354F8042B8DF890208DF867300122AC
:10B2900024AB0392099407920A930026CDF808B0D4
:10B2A0000B96029B13F0020302D0039A0232039220
:10B2B000029A239C12F0840B05D1069A0399551A21
:10B2C000002D00F3E8829DF8672072B1229A0132C6
:10B2D00001340DF167000121072ACDE92224CAE9D2
:10B2E000000100F31A830AF1080A6BB1229B0133B3
:10B2F00002341AA90222072BCDE92234CAE900122E
:10B3000000F319830AF1080ABBF1800F00F0A8814D
:10B31000079BF61A002E00F3EC81029BDB0500F17F
:10B320004281229B0A9ACAF80020079ACAF8042090
:10B3300001331444072B2394229300F34E820AF125
:10B34000080A029B590705D5069B039A9D1A002DF2
:10B3500000F3FD82DDE9053203998A42ACBF9B18F8
:10B360005B180593002C40F0FE81002322930DF121
:10B37000B80A95E5099B99F8007053F8040B0690FC
:10B380000028C0F216850993C2E5002A40F05687CE
:10B390002E4B10931BF0200F7FF491AE099B1BF0F6
:10B3A000100F53F8044B099340F02B841BF0400F0F
:10B3B00000F02784A4B2002588E64BF0080B99F82A
:10B3C0000070A5E5002A40F02987099C073424F085
:10B3D0000703B3EC027B55EC174B099325F00043B0
:10B3E00015938DED147ADDE914014FF0FF32184BFF
:10B3F0008DED0C7B06F082F8002840F02B844FF096
:10B40000FF32134BDDE9140106F05AF8002840F032
:10B410002184002200232046294606F047F8002810
:10B4200040F03E869DF867800A4A0B4B03210026B8
:10B430002BF08000472FC8BF1A46039102900A9252
:10B4400007910B967CE600BF203203000C3203000C
:10B45000FFFFEF7FFC31030000320300002A40F0C1
:10B46000E5864BF0100B1BF0200F7FF4D5AE099B47
:10B470001BF0100F53F8044B099340F0C5831BF0E9
:10B48000400F00F0C18324B2E51722462B46CDE6DB
:10B4900099F800704BF0040B3AE599F8007001221E
:10B4A0002B2135E5484610F8017B2A2F00F0238731
:10B4B000A7F13003092B81464FF000063FF62AAD75
:10B4C00019F8017B06EB860603EB4606A7F130036D
:10B4D000092BF5D91EE599F8007000297FF418AD05
:10B4E0000122202114E54BF0010B99F800700FE5C3
:10B4F000099A52F8044B09921BF0100200F0518493
:10B5000000253AE6099B1BF0100F53F8044B0993F2
:10B5100000F03F84002501232FE6089802F0C0F9CF
:10B5200094E4002A40F0D685002F3FF49BAD002321
:10B5300001228DF8673024AB03928DF8907007924A
:10B540000A93AAE6022318E6DDF808B0012B3FF4BF
:10B550007FAE022B00F03C822EA900E01146E208EB
:10B5600042EA4572E80804F0070305461446303302
:10B5700054EA050001F8013C01F1FF32EED11BF065
:10B58000010F0A9200F0DF82302B00F04B840A9A00
:10B59000CDF808B03023023902F8013C2EAB5B1A1B
:10B5A00007930A9163E6652F40F32381002200236D
:10B5B000DDE90C0105F070FF002800F02282229BDB
:10B5C000BC4ACAF80020013301340122072BCDE91F
:10B5D0002234CAF8042000F39D840AF1080A1B9B58
:10B5E0000E9A239C934280F22483229B119ACAF8DC
:10B5F00000200F9ACAF8042001331444072BCDE928
:10B60000223400F3F7830AF1080A0E9B5D1E002D19
:10B610007FF797AE102D229ADFF89CB240F370842A
:10B620001026089FDDF8108005E00AF1080A103D99
:10B63000102D40F3658401321034072ACDE922240D
:10B64000CAE900B6F1DD21AA4146384603F0E6FB1F
:10B6500000287FF40EADDDE922240DF1B80AE6E7FB
:10B66000069B039A9D1A002D7FF752AE102D229A49
:10B67000DFF844B22DDD584653462146CA46BB4644
:10B68000B1464FF01008089C049E074604E0103DA8
:10B69000102D03F1080315DD01321031072ACDE921
:10B6A0002221C3E90078F2DD21AA3146204603F0C9
:10B6B000B5FB00287FF4DDAC103D102DDDE9222123
:10B6C0002EABE9DC4E46D1469A463B460C465F46D9
:10B6D0009B4601322C44072ACDE92224CAE900B551
:10B6E00000F32484079BF61A002E0AF1080A7FF75C
:10B6F00014AE102E229ADFF8C0B128DD5946234639
:10B70000BB461025DDF82080049C0F4604E0103E67
:10B71000102E0AF1080A16DD01321033072ACDE98E
:10B720002223CAE90075F2DD21AA2146404603F032
:10B7300075FB00287FF49DAC103E102EDDE922231E
:10B740000DF1B80AE8DC1C463B465F469B460132D9
:10B750003444072ACDE92224CAE900B600F3448222
:10B760000AF1080AD9E521AA0499089803F056FBC2
:10B7700000283FF4FAAD7CE421AA0499089803F06C
:10B780004DFB00287FF475AC1B9B239C0DF1B80A80
:10B79000002B40F0D883029B0E9A03F00103134361
:10B7A0003FF4CFAD229A119BCAF800300F9BCAF824
:10B7B000043001321C44072A2394229200F39E8411
:10B7C0000AF1080A0E9B0A9901321C44072ACDE9A6
:10B7D0002224CAE900137FF7B2AD21AA0499089880
:10B7E00003F01CFB00287FF444AC239C0DF1B80A45
:10B7F000A7E50E9A229B012A04F1010403F1010539
:10B800000AF1080640F3AF8101230A9ACAF8002022
:10B81000072DCDE92254CAF8043000F345830F9B6D
:10B82000119A01351C44072DCDE92254C6E90023A5
:10B8300000F32E8308366B1C1F46B8460E9F0793F5
:10B8400000220023DDE90C0106F1080A013F05F0A2
:10B8500023FE002840F09B810A9B776001333C4423
:10B86000B8F1070F33602394CDF8888000F3B282DB
:10B8700006F1100305F1020856469A46129A7260C4
:10B8800014441DABB8F1070F2394CDF888803360C2
:10B890007FF757ADA1E7102D229A31DD51462046A2
:10B8A000CA464FF01008B14613932E46089C049DDB
:10B8B00009E000BF3C320300EC310300103E102EC3
:10B8C00001F1080116DD0132C54B1030072ACDE920
:10B8D0002220C1E90038F1DD21AA2946204603F0E3
:10B8E0009DFA00287FF4C5AB103E102EDDE9222022
:10B8F0002EA9E8DC139B354604464E46D1468A46BF
:10B900000132B7492C44072ACDE92224CAE900159F
:10B9100000F3D6820AF1080AD5E421AA049908980E
:10B92000139303F07BFA00287FF4A3AB239C139BB3
:10B930000DF1B80AD9E421AA0499089803F06EFA27
:10B9400000287FF496AB239C0DF1B80ADCE4102D9F
:10B95000229B21DD1026089FDDF8108004E0103DB9
:10B96000102D0AF1080A17DD01339D4A1034072B08
:10B97000CDE92234CAE90026F1DD21AA4146384644
:10B9800003F04CFA00287FF474AB103D102DDDE974
:10B9900022340DF1B80AE7DC0133914A2C44072B1D
:10B9A000CDE92234CAE900257FF7D4AC21AA049955
:10B9B000089803F033FA00287FF45BAB239CC9E4BA
:10B9C000012B00F0B583022BDDF808B07FF4C4AD85
:10B9D000DDF840C02EAA230904F00F0043EA0573E6
:10B9E00029091C460D461CF8003002F8013D54EAB6
:10B9F0000503F0D12EAB9B1A0A92CDF808B007933D
:10BA000035E41B9B002B40F36A820E9B0B9A9342FA
:10BA1000A8BF1346002B1D460EDD229B0A9ACAF8CA
:10BA2000002001332C44072B2394CAF8045022939E
:10BA300000F3B5830AF1080A0B9B002DA8BF5B1B1E
:10BA4000002B1D4600F3F6811B9A0E9B9A4280F252
:10BA5000B581229B1199CAF800100F99CAF80410F9
:10BA600001330C44072B2394229300F326830AF11D
:10BA7000080A0B990E9B9142A3EB020380F2048209
:10BA80001D46002D10DD229ACAF80450DDE90A1087
:10BA9000013201442C44072ACAF80010CDE92224BF
:10BAA00000F38B830AF1080A002DACBF5D1B1D4615
:10BAB000002D7FF746AC102D229ADFF828B140F315
:10BAC0001F821026089FDDF8108005E00AF1080AA1
:10BAD000103D102D40F3148201321034072ACDE9B5
