:1000000090EA03200536000069350000353600000F
:10001000353600003536000035360000000000009F
:100020000000000000000000000000002934000073
:100030003536000000000000E1330000E92F000029
:10004000C5350000E95D0000C5350000C53500007C
:10005000C5350000C5350000C5350000C5350000B8
:10006000CD5D0000C5350000C5350000C535000078
:10007000C5350000C5350000C5350000C535000098
:10008000C5350000C5350000C5350000C535000088
:10009000C5350000C5350000C5350000C535000078
:1000A000C5350000C5350000C5350000C535000068
:1000B000C5350000C5350000C5350000C535000058
:1000C000C5350000C5350000C5350000C535000048
:1000D000C5350000C5350000C5350000C535000038
:1000E000C5350000C5350000C5350000C535000028
:1000F000C5350000C5350000C5350000C535000018
:1001000053B94AB9002908BF00281CBF4FF0FF317E
:100110004FF0FF3000F06CB9ADF1080C6DE904CE82
:1001200000F006F8DDF804E0DDE9022304B07047D2
:100130002DE9F047089E0D4604468E46002B40F000
:1001400082808A42174646D9B2FA82F24AB1C2F197
:10015000200105FA02F320FA01F1974041EA030E6B
:1001600094404FEA1748230CBEFBF8FCB9B208FBD9
:100170001CEE43EA0E430CFB01F098420AD9FB182F
:100180000CF1FF3580F01681984240F21381ACF1FA
:10019000020C3B441B1AA4B2B3FBF8F008FB10336B
:1001A00044EA034400FB01F1A14209D93C1900F1E2
:1001B000FF3380F00181A14240F2FE8002383C44CE
:1001C000641A40EA0C4000211EB1D4400023C6E965
:1001D0000043BDE8F08702B9FFDEB2FA82F2002ADE
:1001E0004FD1CB1B4FEA174E1FFA87F80121B3FB03
:1001F000FEFC250C0EFB1C3345EA034508FB0CF303
:10020000AB4207D97D190CF1FF3002D2AB4200F2AC
:10021000E7808446ED1AA3B2B5FBFEF00EFB105545
:1002200043EA054408FB00F8A04507D93C1900F152
:10023000FF3302D2A04500F2D7801846A4EB080491
:1002400040EA0C40C0E78B4208D9002E00F0AF8096
:100250000021C6E900050846BDE8F087B3FA83F13E
:1002600000294BD1AB4202D3824200F2B780841AFC
:1002700065EB030301209E46002EAAD0C6E9004E7E
:10028000A7E7C2F1200C01FA02F3974020FA0CF024
:100290004FEA174E21FA0CFC1843BCFBFEF1050C8B
:1002A0000EFB11CC1FFA87F845EA0C4501FB08F359
:1002B000AB4204FA02F409D97D1901F1FF3C80F048
:1002C0008B80AB4240F2888002393D44EB1A85B204
:1002D000B3FBFEF00EFB103345EA034500FB08F3C9
:1002E000AB4207D97D1900F1FF3C71D2AB426FD907
:1002F00002383D44EB1A40EA014178E7C1F1200C95
:100300008B4022FA0CF71F4320FA0CF405FA01F394
:100310004FEA174E25FA0CF51C43230CB5FBFEF9EA
:100320001FFA87F80EFB195543EA054509FB08FA41
:10033000AA4502FA01F200FA01F308D97D1909F180
:10034000FF3047D2AA4545D9A9F102093D44A5EBA2
:100350000A05A4B2B5FBFEF00EFB105544EA0544B5
:1003600000FB08F8A04507D93C1900F1FF352DD254
:10037000A0452BD902383C4440EA0940A4EB0804CC
:10038000A0FB02894C45C6464D4619D316D05EB136
:10039000B3EB0E0264EB050404FA0CFCCA404CEA11
:1003A0000202CC40C6E900240021BDE8F0873146B6
:1003B00030460EE7AC46EDE6184601E74345E6D287
:1003C000B8EB020E69EB07050138E0E72846D3E7F2
:1003D00060468FE78146BAE7614677E708464BE714
:1003E000ACF1020C3D4415E702383C4426E700BF5F
:1003F000704700BF70B491E87800B2E802105B1853
:1004000054EB0C04B2E802104D4156EB0C0680E8A8
:1004100078008041013070BC704770B491E878007A
:10042000B2E802105B1A74EB0C04B2E802108D41C2
:1004300076EB0C0680E878008041404270BC704743
:100440002DE9F00791E8F807B2E802105B1854EBC9
:100450000C04B2E802104D4156EB0C06B2E8021053
:100460004F4158EB0C08B2E8021059EB01095AEB66
:100470000C0A80E8F80780410130BDE8F0077047BA
:100480002DE9F00791E8F807B2E802105B1A74EB67
:100490000C04B2E802108D4176EB0C06B2E80210B3
:1004A0008F4178EB0C08B2E8021079EB01097AEB86
:1004B0000C0A80E8F80780414042BDE8F007704729
:1004C0002DE9F007524290E87800B1E88007174024
:1004D000DB1918EA020854EB080419EA020955EB83
:1004E00009051AEA020A56EB0A0678C090E8780075
:1004F000B1E8800717407B4118EA020854EB080472
:1005000019EA020955EB09051AEA020A56EB0A062E
:1005100078C080410130BDE8F00770472DE9F00751
:10052000524290E87800B1E880071740DB1B18EAD8
:10053000020874EB080419EA020975EB09051AEAC6
:10054000020A76EB0A0678C090E87800B1E88007E6
:100550001740BB4118EA020874EB080419EA0209C3
:1005600075EB09051AEA020A76EB0A0678C08041A3
:100570004042BDE8F007704790E8300091E8C000C5
:10058000A31B1340E41AF618EB1B1340ED1AFF18D7
:1005900030C0C0C17047F0B55242FFF7EDFFFFF722
:1005A000EBFFFFF7E9FFFFF7E7FFF0BD2DE9F007ED
:1005B0003AC91668A1FB069A4FF0000CE3FB06ACA3
:1005C0004FF00007E4FB06C74FF00008E5FB067894
:1005D00040F8049B56684FF00009E1FB06A9E3FBD5
:1005E00066C9E4FB6679E5FB668940F804AB96686A
:1005F0004FF0000AE1FB06CAE3FB667AE4FB668A79
:10060000E5FB669A40F804CBD6684FF0000CE1FB9E
:10061000067CE3FB668CE4FB669CE5FB66AC80E84D
:100620008017BDE8F00770470A462DE9F04F92E8C1
:10063000F00F2DE9F30F87B01EC90998A1FB0078D0
:100640004FF00009E2FB00894FF0000AE3FB009A3B
:100650004FF0000BE4FB00AB0D984FF0000CE1FBFA
:1006600000BC4FF0000EE2FB00CE4FF00005E3FBB4
:1006700000E54FF00006E4FB005600970A984FF0A3
:100680000007E1FB0087E2FB6097E3FB60A7E4FB68
:1006900060B70E98E1FB60C7E2FB60E7E3FB6057E1
:1006A000E4FB6067CDF804800B984FF00008E1FB95
:1006B0000098E2FB60A8E3FB60B8E4FB60C80F9819
:1006C000E1FB60E8E2FB6058E3FB6068E4FB607814
:1006D000CDF808900C984FF00009E1FB00A9E2FB6F
:1006E00060B9E3FB60C9E4FB60E91098E1FB605985
:1006F000E2FB6069E3FB6079E4FB6089CDF80CA064
:10070000089901F110011EC909984FF0000AE1FB98
:1007100000BAE2FB60CAE3FB60EAE4FB605A0D98B2
:10072000E1FB606AE2FB607AE3FB608AE4FB609ACB
:10073000CDF810B00A984FF0000BE1FB00CBE2FBC4
:1007400060EBE3FB605BE4FB606B0E98E1FB607BBE
:10075000E2FB608BE3FB609BE4FB60ABCDF814C075
:100760000B984FF0000CE1FB00ECE2FB605CE3FB5C
:10077000606CE4FB607C0F98E1FB608CE2FB609CAA
:10078000E3FB60ACE4FB60BCCDF818E00C984FF0E4
:10079000000EE1FB005EE2FB606EE3FB607EE4FBCB
:1007A000608E1098E1FB609EE2FB60AEE3FB60BEF2
:1007B000E4FB60CE079800F11C0181E8E05FBDE832
:1007C000F80380E8F8030AB0BDE8F08F30B44FF0CA
:1007D000000310F8014B11F8015B013A84EA0504AB
:1007E00043EA0403F5D1A3F101034FEAD37030BC0F
:1007F00070474FF0000310F8012B013943EA020360
:10080000F9D1A3F101034FEAD370704711F8013B0E
:1008100000F8013B013AF9D17047002200F8012BA2
:100820000139FBD1704700BF2DE9F00791E8F807C7
:10083000B2E802105B1854EB0C04B2E802104D4110
:1008400056EB0C06B2E802104F4158EB0C08B2E828
:10085000021059EB01095AEB0C0A8941B3F1FF333D
:1008600074F1FF3475F1FF3576F1000677F100077A
:1008700078F1000879F101097AF1FF3A51F10001AC
:100880004A425B184C414D4156F1000657F10007B2
:1008900058F1000859EB02095AEB010A80E8F80701
:1008A000BDE8F00770472DE9F00791E8F807B2E8D6
:1008B00002105B1A74EB0C04B2E802108D4176EB67
:1008C0000C06B2E802108F4178EB0C08B2E8021077
:1008D00079EB01097AEB0C0A89414A425B184C41D9
:1008E0004D4156F1000657F1000758F1000859EB49
:1008F00002095AEB010A80E8F807BDE8F0077047E3
:100900000A462DE9F04F92E8F00F2DE9F30F87B07A
:100910001EC90998A1FB00784FF00009E2FB00898D
:100920004FF0000AE3FB009A4FF0000BE4FB00AB32
:100930000D984FF0000CE1FB00BC4FF0000EE2FB05
:1009400000CE4FF00005E3FB00E54FF00006E4FBAE
:10095000005600970A984FF00007E1FB0087E2FB82
:100960006097E3FB60A7E4FB60B70E98E1FB60C70C
:10097000E2FB60E7E3FB6057E4FB6067CDF80480CF
:100980000B984FF00008E1FB0098E2FB60A8E3FB46
:1009900060B8E4FB60C80F98E1FB60E8E2FB6058D8
:1009A000E3FB6068E4FB6078CDF808900C984FF0AA
:1009B0000009E1FB00A9E2FB60B9E3FB60C9E4FBCD
:1009C00060E91098E1FB6059E2FB6069E3FB607944
:1009D000E4FB6089CDF80CA0089901F110011EC953
:1009E00009984FF0000AE1FB00BAE2FB60CAE3FBA2
:1009F00060EAE4FB605A0D98E1FB606AE2FB607A12
:100A0000E3FB608AE4FB609ACDF810B00A984FF0DF
:100A1000000BE1FB00CBE2FB60EBE3FB605BE4FB84
:100A2000606B0E98E1FB607BE2FB608BE3FB609BFD
:100A3000E4FB60ABCDF814C00B984FF0000CE1FB69
:100A400000ECE2FB605CE3FB606CE4FB607C0F9815
:100A5000E1FB608CE2FB609CE3FB60ACE4FB60BC10
:100A6000CDF818E00C984FF0000EE1FB005EE2FBC1
:100A7000606EE3FB607EE4FB608E1098E1FB609E9D
:100A8000E2FB60AEE3FB60BEE4FB60CEDDE9042385
:100A9000069C12EB0A0253EB0B0354EB0C0455EBD0
:100AA0000E05002040F1000012EB0B0253EB0C038B
:100AB00054EB0E0455EB0E0546410020474158EB20
:100AC000000859EB0A0940F10000B2EB0E0273F185
:100AD000000374F1000475EB0A0576EB0B0677EB67
:100AE0000C0778EB0A0879EB0C0960F10000B5EB14
:100AF0000B0576EB0C0677EB0E0778EB0B0879EB22
:100B00000E0960F100005FEAE07C7FEA0C0CDCF18A
:100B1000000EB2EB0C0273EB0C0374EB0C0475F1DA
:100B2000000576F1000677F1000778EB0E0879EB07
:100B30000C0960F100005FEAE07CDCF1000E12EBD2
:100B40000C0253EB0C0354EB0C0455F1000556F169
:100B5000000657F1000758EB0E0859EB0C0940F15D
:100B600000005FEAE07CDCF1000E12EB0C0253EBBC
:100B70000C0354EB0C0455F1000556F1000657F137
:100B8000000758EB0E0859EB0C09DDE900ABDDE975
:100B900002011AEB060A5BEB070B50EB080051EB66
:100BA00009015FF0000C4CF1000C1AEB070A5BEB3B
:100BB000080B50EB090051EB090152EB0C025FF0FE
:100BC000000C53EB0C0354EB0C0475414CF1000C7E
:100BD000BAEB090A7BF1000B70F10000B141BA4198
:100BE00073EB0803B44175EB08056CF1000CC91BED
:100BF00072EB080273EB0903BC4175EB09056CF15C
:100C0000000C5FEAEC787FEA0808D8F10009BAEB3B
:100C1000080A7BEB080B70EB080071F1000172F120
:100C2000000273F1000374EB090475EB08056CF125
:100C3000000C5FEAEC78D8F100091AEB080A5BEBCC
:100C4000080B50EB080051F1000152F1000253F182
:100C5000000354EB090455EB08054CF1000C5FEA66
:100C6000EC78D8F100091AEB080A5BEB080B50EBA3
:100C7000080051F1000152F1000253F1000354EB5E
:100C8000090455EB0805079FA7E8000C87E83F001B
:100C900011B0BDE8F08F00BF10B586B005F0B2F816
:100CA00000F026FD00F0D6F900F062F800F05AF8E6
:100CB00000F0FCFE00F000FE00F05AF8543001F0A5
:100CC000FFF900240720172814D8DFE800F03813B4
:100CD000131313131331131313132926131313139D
:100CE00013221313130C204602A900F067FE02A87A
:100CF00000F08CFF00F006FD18B100F0E1FD00F0FF
:100D000021FD00F02FFE04460028F3D000F03CFE49
:100D1000D9E7204600F0A4FDECE700F083FDE9E709
:100D2000204602A900F044FE02A801F079FCE1E7A8
:100D300001F07EFC00F0F0F900F024FADAE720463A
:100D40000DF1060202A90DF1070300F01FFE00F0ED
:100D5000E3F99DF806109DF8070002AA00F04AFA90
:100D6000C8E700BF4FF4EA72002102F0A1BE00BF45
:100D70000048704740050020F8B50D4E37689FB118
:100D80000D46044600F01CFF0146384600F02AFEDE
:100D9000084B306819681D60611A283900F018FE88
:100DA000BDE8F84000F0E0BCBDE8F84000F054BEFB
:100DB000200800201408002010B50446002005F08B
:100DC00017F904F16801022005F086FD05F052F9DB
:100DD00004F1CD01002005F07FFDBDE8104005F0D5
:100DE00007B900BF08B5002005F05AFC002005F047
:100DF000FFF800F0F9FE05F02BFABDE808400020EE
:100E000005F038B92DE9F04FDFF8988183B0074637
:100E10000D46FFF7ADFFD8F800308246002B00F0FA
:100E2000A7805C4EFFF7A4FF32788346002A74D176
:100E300090F83390002349FA03F414F0010440F0D1
:100E4000A6800133082BF6D1019205F07DF8019AB6
:100E5000002840F08480DBF8D031597800290CBF9D
:100E6000082100214C4B01911B78520042EA830279
:100E7000144305F067FA0199BBF8022064B20C43F1
:100E80000443E1B2D8F8000000F032FD434BD8F83B
:100E9000000019681D60B9F1020FA7EB01070CBF34
:100EA00018212821791A00F093FD00F05DFCDAF892
:100EB000D0311B7803F00303032B63D09AF804307E
:100EC000002B4ED13178DAF8D0010AF1540201F04A
:100ED000C3F9337883F0010333700BB39AF83260AF
:100EE00005F0A4F9044610B3022E35D0C43509210B
:100EF0002944002005F0F0FC05F07AF801F04AF8EA
:100F0000A0F19C01032005F0E7FC05F0A5F8244BB7
:100F100008221A7003B0BDE8F08F90F8329089E78C
:100F20009AF8336005F082F904460028DCD105F117
:100F30006801022005F0D0FC174B1B78002B0CBF7A
:100F4000FB22FF2207463146204605F02DF93846A0
:100F500005F090F8022EC9D1B4350521C8E7082163
:100F600080E73178504601F03DFD8AF80500A9E799
:100F700000F072FDDAF8D031064E1B7803F003035F
:100F8000032B9BD13178504601F042FD96E71C01BE
:100F900064B259E7100400207CE603201408002006
:100FA0007DE60320200800202DE9F84300F0BEFB79
:100FB000204A106000283AD000F080FC04461E4B06
:100FC0001B782BB3FFF7D4FE1C4B1B78054643BBA5
:100FD0001B4A90F83370D2E900891A4E1A483376CA
:100FE000C6E9048905F0F6F922461749304604F0AF
:100FF00073FF288B00F05EFF80F00101C9B2384614
:1010000004F07EFFFFF7B4FEC0F8D041BDE8F883DE
:10101000204605F0DFF9FFF7ABFEC0F8D041BDE890
:10102000F8830A4A90F83270D2E90089D5E7084C73
:10103000C5E700BF200800207CE603201004002044
:10104000300500200005002014070020280500209E
:1010500024080020084B10B5002202201A7004F06A
:101060007FFF0446012004F02DFF0146204605F0D5
:1010700043FB024B187010BD7DE6032078E6032089
:1010800038B5114C0D4610220146204605F084FF6C
:101090002946082204F1190002F0D6FC0B4B0C4A39
:1010A0001B780C490C4D1078237600220023C4E9EC
:1010B0000423C5E90023C1E9002305F061FB074BC8
:1010C00001221A7038BD00BF000500201004002066
:1010D00078E6032028050020300500207CE6032068
:1010E00008B5044B187805F079FB034B00221A7001
:1010F00008BD00BF78E603207CE6032004480549CC
:1011000000220023C0E90023C1E90023704700BF8B
:10111000300500202805002070B5134D2B78FBB951
:1011200005F04AF905F08AF8104B114E187805F0D1
:1011300055FB104B1049002400221C702046002350
:10114000C1E90023C6E9002305F096FA012005F065
:1011500093FA0A490A4B2C7001220C601A7070BD78
:10116000002004F045FFDBE77DE6032078E603205E
:10117000300500207CE60320280500202008002000
:101180001004002008B5FFF7C7FF164804F0AAFFB7
:10119000012004F095FF01212522084605F004F8FE
:1011A00000F018FD05F054F80F4805F0B3F80F48AB
:1011B00005F088F8022004F0D3FE0146002005F077
:1011C0009DFB082004F0CCFE0146012005F096FBB3
:1011D000002004F04FFFFFF7E7FE054B01221A70D5
:1011E00008BD00BFAD1400004C7F0000487F000028
:1011F0007DE603202DE9F0410E4615460446FFF733
:101200008BFF1F48DFF890801E4F04F06BFF01201A
:1012100004F056FF01210846252204F0C5FF00F026
:10122000D9FC05F015F8184805F074F8174805F0D2
:1012300049F8174B3E700622294640461C7002F0C2
:1012400003FC4146387805F099F804F0E5FF0220E8
:1012500004F086FE0146002005F050FB082004F053
:101260007FFE0146012005F049FB002004F002FF4B
:10127000FFF79AFE074B04221A70BDE8F08100BF09
:10128000AD14000079E603204C7F0000487F000089
:101290007BE603207DE603201808002070B50020BF
:1012A00005F0FEF9002004F0A3FEFFF761FD43887E
:1012B000013343800446FFF75BFD01F047FC294BF7
:1012C00001221A7000F0D6FE18B9237953B1637960
:1012D00043B1254A254B11781878254ABDE870405E
:1012E000FFF788BF608800F0DFFC04F0B1FF214BFE
:1012F00094F832501B78002B0CBFFB22FF222946AA
:10130000002004F051FF00F045FEA0F1280600F097
:1013100069FE022D1CD028300925054431460220E3
:1013200005F0DAFA29460646002005F0D5FA05460A
:10133000304604F09FFE284604F05AFE208B00F051
:10134000B9FD40B104F068FF0B4B07221A7070BD65
:1013500018300525E1E704F071FF074B07221A70EA
:1013600070BD00BF1004002079E603207BE6032057
:10137000180800207CE603207DE60320F0B583B04A
:101380000D460746FFF7F4FC0446FFF7C5FE0120B3
:1013900005F05EF93F4B2A781B781340C3F34013E6
:1013A000002684F831306680204601F029FB29466A
:1013B00004F1140000F008FD3749384801F086FABE
:1013C000294604F1540000F093FE354804F08AFEEB
:1013D000012004F075FE04F11F0004F09BFF04F1EE
:1013E000220004F06FFF2F4B94F832501B78B34269
:1013F0000CBFFB22FF223046294604F0D5FEA07F19
:10140000237DE28A218B0190A08B0090384600F06A
:1014100057FD022004F0A4FD0146304605F06EFAA7
:10142000082004F09DFD0146012005F067FA608860
:1014300000F03AFC04F00CFF00F0ACFDA0F128062F
:1014400000F0D0FD022D22D0283009250544314678
:10145000022005F041FA29460646002005F03CFA34
:101460000546304604F006FE284604F0C1FD208BF8
:1014700000F020FD40B104F0CFFEFFF795FD0A4BD0
:1014800007221A7003B0F0BD04F0D8FEF5E718305B
:101490000525DBE77AE6032030050020280500203B
:1014A000AD1400007CE603207DE603202DE9F04129
:1014B000044604F0A7FE02284FF000000CBF0525EB
:1014C000092505F037FA0746012005F033FA14F034
:1014D0000808A7EB0507A0EB050527D17D4E33785B
:1014E000013B072B00F2F280DFE803F00B0B0B3E11
:1014F00013185C59B8F1000F03D029463846FFF79E
:101500003BFCFFF76FFC01233370BDE8F041FFF7B0
:101510004BBD714B7149187804F030FFFFF762FC46
:1015200004233370BDE8F041FFF73EBD6C4B694EBC
:10153000187804F001FD3378013B072B00F2C680D8
:1015400001A252F823F000BF71160000331600000C
:10155000F514000069150000F1150000E115000008
:10156000AF15000067160000A306CED504F038FFC3
:101570005C4C0378237038462946FFF7FDFB24783E
:1015800004F0E0FE18B104F00F04022CC6D004F001
:1015900013FF2846FFF710FC05233370B5E7FFF76C
:1015A0007DFEB2E700F058FDFFF778FEADE7B8F139
:1015B000000FF7D0FFF7DCFB4B4B1B78002B6FD1F4
:1015C00090F83330022B0CBF18202820381A00F076
:1015D00033FD00F049FD29463846FFF713FC94E738
:1015E000B8F1000F9AD029463846FFF7C5FB95E7BA
:1015F000B8F1000F8DD029463846FFF7BDFB04F047
:10160000EFFE047804F00F0404F09CFE052C4AD091
:10161000032C7FF47EAF00283FF47BAF2E4B2F4985
:10162000187804F0ABFE2846FFF7C6FB062333709C
:101630006BE7B8F1000F3FF464AF38462946FFF777
:101640009BFB04F0CDFE047804F07CFE00283FF400
:1016500058AF04F00F04032C7FF453AF2846FFF774
:10166000ABFB347051E729463846FFF7CBFB4CE71C
:1016700038462946FFF780FB04F0B2FE047804F0F8
:1016800061FE00283FF43DAF14F00F0402D0062C99
:101690007FF437AF2846FFF78FFB0223337034E720
:1016A00090F832308EE700283FF433AF0F4B1878B4
:1016B00000287FF42EAF04F09BFC04F091FE01465D
:1016C0002846FFF75BFE072333701EE704233370C1
:1016D0001BE700BF7DE6032079E603201808002001
:1016E0007CE603207AE60320100400207BE603203A
:1016F0000249034A00230B801380704774E60320DD
:1017000076E60320064B074A1B8812889A421DBFC3
:1017100005484FF4967202FB03000020704700BF9B
:1017200074E6032076E6032020090020034A044BD8
:1017300012884FF4967000FB0230704776E6032063
:1017400020090020064A074913880988994205D0D4
:10175000072B1ABF01339BB200231380704700BFD1
:1017600074E6032076E60320044A1388072B1ABF89
:1017700001339BB200231380704700BF76E603203D
:1017800070B58378012B8CBF0588457882B003350E
:101790000446ADB201A804F0E1FD01A960190322DD
:1017A00005F0FAFBA81C691C235C1A0142EA13121B
:1017B000C2F38506930003F0CC0306F03302134313
:1017C0005A105B0002F0550223F0550313432354D3
:1017D000635C1A0142EA1312C2F38500930003F01E
:1017E000CC0300F0330213435A105B0002F05502A1
:1017F00023F0550313436354635D1A0142EA131245
:10180000C2F38501930003F0CC0301F033021343CC
:101810005A105B0002F0550223F055031343635541
:1018200002B070BD38B50B4C237803B138BD0A4AFD
:101830000A4803F0FF050123237011681368C37081
:10184000090A013301710821136000F091F9257034
:1018500038BD00BF7EE60320801200200C0000206F
:1018600070B5124C237803B170BD114A114DD0F8F8
:1018700006000123237011681368EB70090A013315
:101880001360297100F080F90A210646020C030E4C
:101890002846EE802A726B7200F06AF918B116B110
:1018A000304600F07DF90023237070BD7EE60320F2
:1018B0008012002000000020704700BF14307047E5
:1018C00010B5037A242B044606D901882046063138
:1018D000BDE8104000F04CB9143000F02DFC617DE3
:1018E0001431218020460631BDE8104000F040B997
:1018F000F0B51A4E337883B00BB103B0F0BD044697
:1019000003F0FF07012333701546637D144AE1712C
:10191000106803F1140121801368E3700221A170A3
:10192000000A0621617101332071136004F0BCFCD0
:10193000207204F0BFFC2B0AE3726072A57201A84A
:1019400004F0D4FC01A9042204F1100005F024FBEA
:101950002046FFF715FF377003B0F0BD7EE6032089
:101960008012002008B500F0B9F8034650B10068B5
:1019700059688278012A8CBF02884278931D8B4275
:1019800018BF002008BD00BF4079704770B50446FD
:10199000164608460622A11D1D4602F055F8237B77
:1019A0003370637B003B18BF01232B7070BD00BFF9
:1019B000034610220846991D02F046B88379CB7081
:1019C000C3790B70037A4B70437A8B70704700BFFA
:1019D00010B40A0C0C0A0B0E4473017310BC827312
:1019E000C3737047F0B51A4E337883B00BB103B0B0
:1019F000F0BD04460D46617D164A03F0FF07012342
:101A000033701431106821800A211368A1710221FA
:101A1000A170000A06216171E37020710133136027
:101A200004F090FC2572E071A772E77204F042FCAA
:101A3000607201A804F05AFC01A9042204F110000C
:101A400005F0AAFA2046FFF79BFE377003B0F0BD01
:101A50007EE6032080120020704700BF10B5064CC0
:101A6000064920464FF4806205F0A0FA214604485A
:101A7000BDE8104005F0EEBB0C1700200C13002051
:101A80001C17002010B5064C064920464FF4703252
:101A900005F08CFA21460448BDE8104005F0DABB99
:101AA00034D70320341700202817002008B5074832
:101AB00004F0DAF9FFF7D2FFFFF7E4FFBDE80840D2
:101AC000034A0449044804F09DBF00BF7FE6032099
:101AD00034D703200C1700201400002010B50D4C43
:101AE0000D4B2360214680230C48636005F00AFCFF
:101AF000002808BF002405F045F808B1204610BDB5
:101B0000074805F059FA0028F8D105F043F82046B7
:101B100010BD00BF04130020841200201C170020F9
:101B20000C17002070B505460E4804F0A1F90446D4
:101B300008B9204670BD284605F096FB06460A48BF
:101B400005F048FA864207D90024064804F0A0F9B7
:101B500004F0E0FF204670BD0448294605F0A0FBD4
:101B6000F3E700BF7FE6032034D7032028170020C7
:101B700000B583B003466846CDE90031FFF7D2FFD8
:101B800003B05DF804FB00BFB0F5E12F04D0034BB8
:101B900098420CBF18460020704700BF40420F001B
:101BA000B0F5E12F06D0054B984200D070471120C8
:101BB00004F072BF0F2004F06FBF00BF40420F005F
:101BC000024B034A1B78D05C704700BF80E60320BD
:101BD0001C000020024A034B002118781170704746
:101BE00080E603201C00002010B406480649037854
:101BF000CC785A1CB2FBF4F304FB1323037010BC23
:101C0000C85C704780E603201C000020014B006880
:101C1000186070471C0000200E4AF0B400230E4FDD
:101C200010601C460126C3F3C401014403F00702FF
:101C3000897C06FA02F21142DDB203F1010302D0FF
:101C4000621C3D55D4B2252BEDD187F82540F0BC60
:101C5000704700BF44D7032048D70320F0B40F4992
:101C60000F4C104F2060002213460A7014460126C4
:101C7000C3F3C401014403F00702897C06FA02F2AF
:101C80001142DDB203F1010302D0621C3D55D4B212
:101C9000252BEDD187F82540F0BC704781E6032065
:101CA00044D7032048D70320424B1A68537FF0B42F
:101CB000002B5AD0117C947BD57B537C45EA0425BC
:101CC00043EA01235D4080EA05010326002318460C
:101CD0000F0A47FA00F4C0F1070C04F0010404FAFB
:101CE0000CF4013023430828DBB2F2D11B0200249C
:101CF0001BB2C9B2274641FA07FCC7F107000CF036
:101D0000010C0CFA00FC01374CEA0404082FE4B281
:101D1000F1D123439BB203EB03132B44013E99B251
:101D2000D4D1254885EA0103A0FB0310191A00EB62
:101D30005100400900EBC00100EB8100181AC0F30C
:101D4000C4010A4400F00704917C0122A240114220
:101D5000C0B201D0F0BC7047184A92F8255003FB7E
:101D600005F31B14F0BCD05C704715495478087813
:101D7000144B204483FB004303445B1103EBC30477
:101D800003EB8403C01AC0B202EBD00200F00704D8
:101D9000927C08700123A3401A42DBD1074A92F8D3
:101DA0002510B0FBF1F301FB1300C0B2F0BC105CD6
:101DB000704700BF44D703204D91CFBA48D70320C6
:101DC00081E60320A7C867DD10B40A7AC275CA7914
:101DD00002768A7942764A7982760A79C276CA7818
:101DE00002778A7C82734A7CC2730A7C0274CA7B43
:101DF00042744A7D42730A7D0273CA7CC2728A7D34
:101E000002700C7ECA7D42EA042242808C7E4A7EA9
:101E100042EA042282800C7FCA7E42EA0422C28007
:101E20008C7F4A7F42EA04220281CA7F827491F841
:101E30002020C27491F82120027591F82220427569
:101E400091F82320827591F8242010BC02F01F0223
:101E5000427091F8242040F2011152098272C1832C
:101E6000FFF7FCBE10B403461430B3F84640B3F895
:101E7000481093F84A20DC84198583F82A2010BC86
:101E8000FFF7CABE30B40D460A78027004462B89AB
:101E9000A8884988ED88E5806180A080238130BCD6
:101EA00000F04AB88B7F03B18377CB7F03B1C37750
:101EB000704700BFB0F5506F94BF002001207047FD
:101EC000F0B49DF814501A4F1A4C05F00F05064651
:101ED00037F8150084F8210040F2E2450020B1F502
:101EE000506F2660A662C4E90600BDF81060A560C8
:101EF0001BD94FF47A7000FB01F1A1F54B11A1F54C
:101F0000006140F2E24000FB02F200FB03F042F20B
:101F10001073002503FB06F3C4E9032061606362CC
:101F2000656184F82050F0BC704705FB01F1E8E7DB
:101F3000507F000070D7032070B4154C6668656947
:101F4000B0F5506FC4E906561CD94FF47A7505FBFD
:101F500000F0A0F54B10A0F5006040F2E24589B218
:101F600005FB01F105FB02F542F2107202FB03F3DF
:101F70000022C4E9031560606362626184F8202076
:101F800070BC704740F2E24505FB00F0E5E700BF9A
:101F900070D70320114A70B4D2E90661D2E9023544
:101FA00092F820000E4C2B4406FB0111566955682F
:101FB000194492F821301268304405FB0010323386
:101FC00000FB03F303F57423203A03F23F2310448C
:101FD000A4FB0323A0EB934070BC704770D7032091
:101FE00083DE1B43124B70B4D3E90662D3E90205CA
:101FF00093F820100F4C284406FB02225E695D68AE
:10200000024493F82100314405FB012132301A6863
:102010001B6901FB00F0134400F5742000F23F201F
:102020002033A4FB00200B4403EB904070BC7047AE
:1020300070D7032083DE1B43064B00220121C3E936
:102040000322C3E90622186083F820105A619A60BF
:10205000704700BF70D70320024A536901335361B0
:10206000704700BF70D70320014B1A689A6270470F
:1020700070D70320114B93F82020C2B1D3E902019D
:102080001A68024470B458689E6A5D690A44D3E9CC
:10209000064105FB0000921B04FB01115B6A024430
:1020A000501883428CBF0020012070BC70475869D3
:1020B000052894BF00200120704700BF70D703207F
:1020C00010B5102204460021074801F0F1FC10224F
:1020D000002104F1170001F0EBFC0448214603F055
:1020E000DFFEA4F8BC0010BD1CD80320D5250000DD
:1020F00070B5002504460E460571857180F8BE5006
:102100000331062200F5937001F09EFC314604F580
:10211000B97011F8093BC3F3801384F82C310622FF
:1021200001F092FC337884F8BF50DB0984F87831F1
:1021300084F8C05070BD00BF2DE9F041037813F062
:1021400003052ED190F903204678C378002A04466F
:1021500029DA13F0400F00F1040106F1020200F148
:102160000A0003F03F070CBF4FF01B084FF0520866
:1021700001F050FC0623277284F807806572194627
:1021800033442278043B1BB2C3F30725314442F0A9
:1021900002020420E37000232571617022706071D7
:1021A000A371BDE8F081C11CF21C073001F032FCC4
:1021B00004231946E4E700BFF8B52249044620226B
:1021C000214804F0E9FE04F1E607204920482022D6
:1021D00004F0E2FE1C492022384601F0FDFB04F524
:1021E0009976054618492022304601F0F5FBA5B93D
:1021F000F0B131462022144804F0CEFE202204F52E
:10220000A971134804F0C8FE0123B4F8BC0084F897
:10221000BF30BDE8F84003F04DBE00B1F8BD39460F
:102220002022094804F0B8FE202204F58371E8E773
:102230000849202204F1C10004F0AEFE012384F815
:10224000BE30F8BD400000209CD703206000002075
:10225000BCD70320800000202DE9F04710605171A9
:1022600090F8008090F801A0154604460E46C9B1CA
:1022700002F1E20904F066F8074603F065FE3A460B
:1022800003463146204600F047FBBAF1000F07D065
:1022900008F00303022B36D0032B63D0012B04D0AC
:1022A000BDE8F08702F59779E4E700F02FFB0028FE
:1022B000F6D1B9F80030062BF2D16B79002B00F083
:1022C000098105F1E206B3780C2BE9D12968F3788E
:1022D0004C78E218402AC4BFC3F14004E4B204338E
:1022E000F0182246033101F0AFFBF3782344DBB250
:1022F000F3706A79002AD3D1402BD1D12846BDE8AA
:10230000F047FFF759BF2C68A279637943EA0223AB
:10231000062BA9F80030C3D16B79E279002B00F0CD
:10232000D68005F1E206531EB2700B2BB8D801A27D
:1023300052F823F0C9240000A1220000A1220000CD
:10234000B3240000A12200009924000071240000A1
:1023500059240000A1220000A1220000A1220000B7
:10236000232400002968CB78033B082B98D801A2CE
:1023700052F823F0D3230000A72300000D2400000F
:10238000A1220000A1220000A1220000A122000041
:10239000A1220000992300006B79002B80D1BDE8B9
:1023A000F047FEF79DBE0431082205F1930001F0CD
:1023B0004BFB2846042250F8AF1B0C3101F044FBC4
:1023C0000123B5F8BC0085F8C030BDE8F04703F044
:1023D00071BD0431082205F1810001F035FB28466A
:1023E000022250F8891B0C3101F02EFB28460822EE
:1023F00050F88B1B0E3101F027FB2846042250F8C1
:10240000AB1BBDE8F047163101F01EBB05F1B3016F
:1024100005F127000022FEF733FEBDE8F047FEF786
:102420006DBE2B680122AA715F78053FFFB2402F75
:10243000B84628BF4FF0400804F108014246301D5D
:1024400001F002FB86F803806B79002B7FF428AF44
:102450003F2F7FF625AF51E76B7904F10801002B80
:1024600042D005F141001022BDE8F04701F0ECBA7E
:102470006B79002B7FF414AF04F11001022205F1F7
:10248000370001F0E1FA04F1080105F139000822F2
:10249000BDE8F04701F0D8BA6B79002B7FF400AFAC
:1024A00004F1080105F117001022BDE8F04701F022
:1024B000CBBA6B7904F108017BB105F16100102200
:1024C000BDE8F04701F0C0BA01232B71E8E605F53D
:1024D000977628E705F59776F5E605F17100102265
:1024E000BDE8F04701F0B0BA05F151001022BDE897
:1024F000F04701F0A9BA00BF10B583798AB004464D
:10250000CBB190F8BE300BB90AB010BD02AA00F5ED
:10251000B973CDE9003200F1610100F5937300F168
:102520007102C13000F08EF9E01D102206A901F001
:102530008BFA0AB010BDC31D00F1610200F17101F8
:10254000024800F069F90AB010BD00BF1CD8032092
:1025500038B5037904468BBB04F19B05082204F1CE
:102560008B01284601F070FA082204F1930104F16E
:10257000A30001F069FA042204F1AB0104F1B300F5
:1025800001F062FA04F1AF01042204F1B70001F096
:102590005BFA022104F1890004F0EEFC28B1082165
:1025A00004F1810004F0E8FC58B92A4604F117014F
:1025B00004F12700BDE8384000F042B8FFF79CFF67
:1025C000CAE72A46E11D04F12700BDE8384000F0C3
:1025D00037B800BF90F8BF3010B5044653B994F82F
:1025E000C03003B910BD2046FFF7B2FF002384F8C6
:1025F000C03010BD074A0849084804F0EBFE0749FF
:10260000202204F1C10004F0C7FC0123A4F8BE306D
:10261000E5E700BF9CD7032020000020DCD7032083
:1026200001461022014804F0B7BC00BF1CD80320AB
:1026300002481022002101F03BBA00BF1CD8032041
:1026400010B4134604462246084610BC194603F04F
:1026500059BF00BF70B584B00E4615461B496A4687
:1026600003F050FF0DF10F04701E0DF1FF32002337
:1026700012F8011F43EA4103A24200F8013F4FEA6A
:10268000D113F5D19DF90F30002BB7BF33783278D5
:1026900083F087023270681E344605F10F01002373
:1026A00000E0227843EA420300F8013F14F8013BBE
:1026B00088424FEAD313F4D196F90F30002B03DA96
:1026C0002B7883F087032B7004B070BD2CD80320C7
:1026D00038B50546C2F110001446284401F0B4F99B
:1026E000C4F10F028023002AAB5400DC38BD284619
:1026F0000021BDE8384001F0DBB900BF2DE9F04F03
:1027000097B00DF1180A1C4683460F460846164638
:1027100002A95246CDF804B0FFF79CFF04F10F0365
:1027200004F00F021D0900922FD1294610220EA895
:1027300001F0BEF90DF1470512AC009A31460AA826
:10274000FFF7C6FF0DF1270213460DF117000DF13B
:10275000370613F8011F10F801CFB34281EA0C01CC
:102760001970F6D1314612F8013F11F8010F964267
:1027700083EA000305F8013FF5D1019A2146384666
:1027800003F0C0FE17B0BDE8F08F0EA810220021A4
:1027900001F08EF9012D5FFA85F839D0A8F1020316
:1027A000DBB2A4F12008A4F1100BA8EB031806F18A
:1027B000FF390DF1470512AC09EB0B000EAA2946B3
:1027C00012F8013B10F801CF944283EA0C0301F8A0
:1027D000013FF5D1ABF1100B0EAA2146384603F0AC
:1027E00091FEC345E8D1009B002BA6D10DF1270235
:1027F000013E02A9104611F8013B16F801CF8A45A7
:1028000083EA0C0300F8013FF5D10DF13706A9E783
:102810000DF1470512ACE6E770B5164684B0082204
:1028200005460DEB02001C4601F00EF931466846E4
:10283000082201F009F96A4629462046FFF700FF01
:1028400004B070BDF0B593B00C4615461E46024666
:102850001C49199F68462023FFF750FF4FF48073EF
:102860001899ADF8103007220DF1120001F0ECF8C4
:10287000314607220DF1190001F0E6F82946102231
:1028800008A801F0E1F8214610220CA801F0DCF8BC
:102890000D49042210A801F0D7F8002469463846F3
:1028A00004AA35238DF84440FFF728FF012404AA29
:1028B000694607F1100035238DF84440FFF71EFFED
:1028C00013B0F0BD647F0000607F0000F0B4084AE0
:1028D000084B094F094E0A4D0A4C10600A4A19600C
:1028E00000233B7033702B7023701370F0BC704763
:1028F0003CD8032040D8032084E6032085E603204B
:1029000083E6032086E6032082E60320014B187845
:10291000704700BF82E60320F0B404784578C4F322
:10292000C000F1B1284E294C3178294F81EA000CC2
:1029300084F800C0B5FA85F4640981423C700ED178
:1029400081F00101317055B14AB143B9214B1A6888
:10295000D2E90031013341F10001C2E90031F0BC9C
:1029600070471D4E194F317881EA000C814287F87B
:1029700000C013D181F0010131707DB117490968A0
:10298000D1E90005471C45F10006C1E900762AB1EE
:1029900023B9023045F10005C1E90005104B1A7852
:1029A000C4F38004A2420BD0094A127842B9094A02
:1029B0001168D1E90020013240F10000C1E9002096
:1029C0001C70F0BC704700BF86E6032082E603203F
:1029D00085E603203CD8032083E6032040D803206B
:1029E00084E60320C3798B4207D0D0F8D0218379C5
:1029F0001078C0F38000584070470020704700BF37
:102A000000230122027003720374037383807047F2
:102A100030B4D0F8D031DA78182A17D8DFE802F0CD
:102A20005F370D16161616161616161616161616E5
:102A300016161616161616161800027932B9012245
:102A400002711B78C171C3F3C003837130BC70473E
:102A5000DC799D7942883C4945EA0425AA1A81FB24
:102A600002418C18D117C1EBE431C1EB0141521A7C
:102A700047F6FE718A42E9DC1A7980F852205B79C8
:102A800080F853300123C581037330BC70479C7AB2
:102A90005D7A42882C4945EA0425AA1A81FB024145
:102AA0008C18D117C1EBE431C1EB0141521A47F642
:102AB000FE718A4243DC1A7980F846205A7980F800
:102AC00047209A7980F84820DA7980F849201B7AE3
:102AD00080F84A3001234582037430BC70479C7BE8
:102AE0005D7B4288184945EA0425AA1A81FB024108
:102AF0008C18D117C1EBE431C1EB0141521A47F6F2
:102B0000FE718A421BDC1A7980F8342099795A794F
:102B100042EA0122C286197ADA7942EA0122028760
:102B2000997A5A7A42EA012242871A7BDB7A4581F6
:102B300043EA0223012230BC8387027270470023DC
:102B400030BC0370704700BF01800080027C438866
:102B500010B5044612B1428A9A421DD0227A12B1AF
:102B600062899A420ED0227B12B1E2899A4200D049
:102B700010BD04F1340104F11400FFF793F90023B0
:102B8000237310BD04F1340104F11400FFF77AF946
:102B9000002323726388E6E7FFF764F900232374B8
:102BA0006388DBE70C4608B511461A460346204603
:102BB000984702F07BFE00F02BFE00BF8368D0F840
:102BC00004C0F0B40568C768B3F5004F2CBF55F8D2
:102BD000314035F83140B3F5004F04EA070234BF05
:102BE00000230123B2FA82F2C3F11F039B1A0CEBFC
:102BF000C30405EBC1066268571C67607AB9426975
:102C000001249C40224342614CF833108368B3F5A1
:102C1000004F2CD289B2B180F180F0BC704782683D
:102C20005CF83340B2F5004F05EBC40309D29A8833
:102C3000B280F48005EBC20589B2E9809980F0BCCE
:102C400070479A68B2608768B7F5004FF1D3F460B7
:102C50008468B4F5004F05EBC205EDD3E9608268E6
:102C6000B2F5004F28BF9960E9D289B2E6E7B160BA
:102C70008368B3F5004F28BFF160E0D289B2CBE79B
:102C8000F0B58E18073121F0070226F00706B61AB4
:102C9000F60802F11801B6F5004F0260B6FA86FE9A
:102CA000C2E90021966030D2CEF1200C2CF0604CAD
:102CB0000CF1030C47F6FF700023BEF1200FC2E9B0
:102CC000030C53612ED00020054647F6FF774D6078
:102CD00041F8085B9468BC4294BF00230123C3F110
:102CE0001F030130A3EB0E039842F0DDB4F5004F53
:102CF000A6EB0C0602EBCC0318D342F83C6010465E
:102D0000BDE8F0401169FFF759BFCEF11F0C2CF060
:102D1000604C0CF1030C6FF000400023C2E9030C7F
:102D20005361D0E7A6EB0C0602EBCC031E801169C1
:102D3000BDE8F0401046FFF741BF00BF704700BF3D
:102D4000C368C9B201EB410103EB81014B7A23B99E
:102D5000087AB0FA80F0400970470220704700BF3F
:102D600070B4C9B24568C0684FF04003EFF31186F4
:102D700083F31188BFF36F8F01EB410300EB8304F2
:102D80009A00237AB3B1013BDBB2237233B1002046
:102D900086F31188BFF36F8F70BC704705EB81011C
:102DA0000125C978835001F180426360184615609F
:102DB0006372EDE76FF04400EAE700BF2DE9F843E6
:102DC000D0F80CC04768CDB2002A56D005EB4503B9
:102DD0006C005CF823309A4251D013B11B68002B71
:102DE000F9D14FF04003EFF3118E83F31188BFF355
:102DF0006F8F63190CEB83069B00347A0134E4B2C5
:102E000034728EF31188BFF36F8F0AB396F809906E
:102E10004FF0804E4FF00308CEF80883B9F1000F51
:102E20001BD14FF04001EFF3118081F31188BFF304
:102E30006F8FC2F80090716829B30A60726080F3E6
:102E40001188BFF36F8F4FF080430322C3F8042330
:102E5000012C09D00020BDE8F883D2E90132CEF878
:102E600004839847012CF5D107EB85050020AB784A
:102E700003F180431C60BDE8F8836C00B1E76FF09C
:102E80000F00BDE8F88372604CF80320D7E700BF5D
:102E900010B4C2684468C9B24FF04003EFF3118028
:102EA00083F31188BFF36F8F01EB410302EB8302C1
:102EB000137A0133DBB2137280F31188BFF36F8F83
:102EC000012B05D104EB81018A7802F18042136065
:102ED000002010BC704700BF002238B50121044615
:102EE000104600F0C1FA002000F0AEFAE3684FF09F
:102EF0008042002001250321C2F81855C2F80413AE
:102F0000C3E90000E368C3E9030038BD2DE9F041DF
:102F10001A4DE96800EB400301EB830401220746E8
:102F20009B0062724FF04000EFF3118280F3118832
:102F3000BFF36F8FCB58D3B1A84666681D68256074
:102F40009E4208BF656082F31188BFF36F8FD3E99B
:102F5000015239464046A8474FF04003EFF3118233
:102F600083F31188BFF36F8F2368002BE5D182F3C1
:102F70001188BFF36F8FBDE8F08100BF18040020F7
:102F800000B5164B1A6883B072B14FF08042D2F888
:102F90000423D10708D5124A0021D26819601B68A2
:102FA000507A0093009BB0B10E4B1A6882B14FF07B
:102FB0008042D2F8042392070AD500221A601B68C7
:102FC0000193019B012003B05DF804EBFFF79EBF66
:102FD00003B05DF804FBFFF799FFE5E7000100404F
:102FE0001804002004010040704700BF704700BF74
:102FF000094B0A4A0A490020186082B01B680193F5
:10300000019B1368D1F84005C01A20F07F400344AB
:10301000136002B002F030BE401101405CD80320C2
:103020000010014030B583B0154801F015FD20B304
:103030008368144D1B6801219847134B134A0024E1
:10304000C5F808451C601B6801934FF400314FF42C
:1030500080330198C2F8801111202246C5F804334C
:10306000012100F001FA112000F0EEF9084A0123D5
:10307000136020462B6003B030BD4FF0FF30FAE7FD
:10308000747F0000001001404011014000E100E0A9
:10309000081001402DE9F041441C82B075D0424B2C
:1030A000013898427CDDDFF814E1404A4049D2F80B
:1030B000043508683F4DDFF804C14FF48037C2F88B
:1030C0000873D2F80485D2F840151B1A13F4000FC8
:1030D0004FF0000623F07F442E6018BFB646A1EBE8
:1030E0000803013429680191744423F07F4328F0D8
:1030F0007F41644594BF041900EB0C04012BDDF8FB
:1031000004E0C2F84015C2F8447341D02A4A274B64
:103110004FF40031C2F88011D3F80415621A22F07E
:103120007F42012A27D024F07F42C3F84025D3F8FC
:103130000425A41A023C210213D5911C21F07F41E1
:10314000C3F84015D3F8041591420AD0D3F80415FA
:103150008A1C22F07F42C3F84025D3F8042591420F
:10316000F4D1124B4FF48032C3F8042302B0BDE80F
:10317000F081D3F804158A1C22F07F42C3F8402561
:10318000D3F804259142F4D1EBE7DFF81CE08CE79B
:103190000F2002F003FC2E602B680093009BB5E724
:1031A00020EAE07E81E700BFFEFF7F0000100140C3
:1031B0005CD803204011014000E100E0FFFF7F00E8
:1031C0004FF04002EFF3118382F31188BFF36F8F4A
:1031D0000649074AD1F804051268801A20F07F409A
:1031E00083F31188BFF36F8F704700BF0010014059
:1031F0005CD80320FEE700BF014804F055BC00BFC7
:10320000A47F000048B108B5436823B1006801F00D
:1032100071FE002008BD024808BD6FF4E040704711
:10322000EA8FFFFF80B108B543685BB100684FF0DB
:10323000FF324FF0FF3301F0DDFD054B002818BFD2
:10324000184608BD034808BD6FF4E040704700BF52
:10325000E98FFFFFEA8FFFFF38B5044690B165683C
:103260004DB115F0020507D020681422002100F0AE
:103270001FFC0023636038BD2168054801F088FD0C
:103280002560F6E7034B04485B689847E7E700BF13
:1032900060D80320D0030020AC7F000010B50446A6
:1032A00050B1D4E9000303B958B101F09BFD636844
:1032B00043F00103636010BD104B11485B689847F1
:1032C000EFE710484FF0FF324FF0FF33214601F097
:1032D0002BFD70B1094B0C485B689847206814229D
:1032E000002100F0E5FBD4E9000343F00203636032
:1032F000DBE720680028F2D1ECE700BFD003002014
:10330000AC7F000060D80320D47F000008B50649D8
:1033100006484023142201F0E7FCBDE808400449B8
:10332000044804F0FDBB00BF7CD8032060D8032014
:10333000148000000480000038B5114C114B124875
:10334000E36110254FF48063104A114923626066DF
:103350000023A566E01D0325A3626362E362236781
:10336000E3666367A2612266C4E9045500F01AFBB4
:103370000849204600F016FB2023A37138BD00BF8A
:103380007CDD032034DE032024DE032028800000BF
:103390003480000038800000FFF7CEBF08B5FFF78B
:1033A000FBFF002008BD00BF0A4A0B49936810B418
:1033B0000C680A49C3E91B044B6843F080534B6017
:1033C000002383F31188BFF36F8F936810BC186FCD
:1033D000704700BF60E303202C81000000ED00E097
:1033E0000F498A684FF030001044EFF3098C80E8F1
:1033F000F01F402080F31188BFF36F8F094F4FF00B
:1034000000664A6A8A603E60D06E0023D36680F30D
:10341000118802F1300090E8F01F8CF309887047A2
:1034200060E3032004ED00E01EF0040F0CBFEFF397
:103430000880EFF30980816911F8021C0229FFD08E
:1034400001B500F08DF801BD43B2002B08DB054942
:1034500001225B0900F01F0002FA00F041F823008E
:10346000704700BF00E100E0D3075CBF02314901B3
:1034700043B254BFC9B20021002B06DB03F1604305
:1034800003F5614383F800137047034B00F00F000E
:1034900003441976704700BFFCEC00E000210120D6
:1034A00000F05CB808B572B6054B186A08B962B688
:1034B00008BD00221A6201F00FFB62B608BD00BF12
:1034C00060E30320F0B48C18203C24F007040A4D7C
:1034D0000166059E06994266049F236025F001055A
:1034E0004FF080720023C4E90261A5616760E26168
:1034F0000465C366F0BC7047A52B0000F8B506460E
:103500000C4617461D4600F0ADF9094BE11921F0B4
:1035100007019E60284681F30988002163B681F384
:103520001188BFF36F8F00220023FFF73BFB00BF22
:1035300060E30320014910220A60704710ED00E0AB
:1035400072B6404080F31188BFF36F8FBFF34F8F87
:1035500030BF62B6BFF36F8F704700BF01F0A0BAF3
:103560000146006801F09CBA08B500F005F8BDE816
:10357000084000F033B900BF30BFFFF7FDBF00BF08
:103580000E4A08B50E4B22F07F029A60BFF34F8FB0
:10359000BFF36F8FD3F8882022F47002C3F888201D
:1035A000EFF3148323F0040383F3148801F0B0FADB
:1035B00001F0B8FA00F020F901F0E6FA000000008E
:1035C00000ED00E001B572B60B4A106A00281EBF7C
:1035D0000021116201F080FA62B6EFF30580A0F1DC
:1035E00010004FEAC0000549014409C99847BDE8E9
:1035F000014003490847000060E30320C07D00004C
:10360000DD37000000F0BAFA402080F31188084846
:103610004FF40061401880F30988EFF31480022111
:10362000084380F31488BFF36F8FFFF7A9FF0000F2
:10363000D0EB0320EFF30880EFF30981724601B568
:1036400000F022F801BD00BF0E4B9A6A9A6A9A6A8E
:10365000920508D59A6B9A6A120404D518B19A6A31
:1036600022F400429A62074B9A6A9A6AD205054A86
:1036700058BF9B6A936A002043F47F4393620870AB
:10368000704700BF00ED00E070B54C4B5B688AB03E
:10369000C3F30803002585F31188BFF36F8F02F091
:1036A0007F44B4F17F4F33D102F00C04082C2FD0AB
:1036B00014074EBF0C46044601250022033B8DF83B
:1036C0000720032B10D8DFE803F02B4051023B4BBF
:1036D0009A6A9A6A9A6A9A6A9A6A9A6A9A6A6FEA75
:1036E00002426FEA12429A620026214602A8202274
:1036F00000F0AAF9099B6DB1C3F3080240F2FF1173
:10370000002A3FD002A93046FFF728FF0AB070BD5B
:103710002C46D2E723F4FF7323F001030993F1E76A
:10372000264BDA6A9207DFD4DA6A5600DCD5244ADF
:103730001278002A29D1234A1278002A33D1224A4A
:10374000128892B2002ACFD0C2E71C4B9A6A9A6ABA
:103750009A6A920744BF5A6B9B6A184B9A6A9A6A94
:103760009A6A9A6A42F0FF029A62BDE70DF1070178
:103770000020FFF769FF9DF807300646002BB4D004
:103780000AB070BD0B430993BCE79A6A9A6A9A6AB9
:103790009007E2D55A6B9A6A1106DED59A6A22F032
:1037A00080029A62D9E70DF107010120FFF74CFF73
:1037B0009DF807300646002BE2D196E700ED00E0C9
:1037C00028ED00E029ED00E02AED00E0024A53690F
:1037D00043F010035361704700ED00E0044B99681B
:1037E000586A884203D003494FF080520A607047FC
:1037F00060E3032004ED00E0044800234021C218E8
:103800000133302B82F80013F9D1704700E100E05A
:1038100038B504464FF04003EFF3118583F3118868
:10382000BFF36F8F01F0F4FD0C4B9B68A34204D0F3
:103830002846BDE8384001F0F5BB094B5A68C2F391
:10384000080242B15A6842F080525A602846BDE8E8
:10385000384001F0E7BB2846FFF7A6FD60E30320F0
:1038600000ED00E030B585B00749084801910290AD
:10387000074D084B084A039501AC012168460094A6
:1038800000F068F805B030BD000000200000000026
:1038900000000B060000042000000020D1E90023F6
:1038A000202B896818D9B3F1004F17D8013BB3FA20
:1038B00083F3C3F11F035B00072843EA01030FD81A
:1038C00022F01F020849024342F0100243F00103B4
:1038D0008860CA600B6170470823EDE73E23EBE781
:1038E0006FF01500704700BF90ED00E0164B30B44C
:1038F0001D68082D24D8BFF35F8F144C002262602E
:1039000095B159680B688868A26023F01F031343C0
:10391000013243F0100340F001009542E36001F1F1
:103920000C012061EED1EDB2094A084B1570052259
:103930005A60BFF34F8FBFF36F8F002030BC7047CA
:103940004FF0FF30FAE700BF5080000090ED00E03C
:1039500087E60320F8B5124F3A781346F1B10D46C9
:10396000041F002654F8041F4B6801368BB11F2B2F
:1039700003F1FF3C11D9D1F800E043EA0E0313EA4A
:103980000C0FD0B209D1FFF789FF10F1160F04D048
:10399000421CAE42E6D1D3B200E0EA233B70F8BD50
:1039A00087E603200B7802462BB102F8013B11F8A1
:1039B000013F002BF9D100231370704703780A7878
:1039C0009A4206D12BB110F8013F11F8012F934212
:1039D000F8D0981A704700BF8AB1013A16D070B477
:1039E000841801E084420CD00D46064611F8012BE4
:1039F00010F8013B9342F5D0981A70BC70471046FE
:103A0000704773786A7870BC981A704703780A78A0
:103A1000981A7047431A934210B40BD342B101393C
:103A20000244034611F8014F03F8014B9342F9D1C8
:103A300010BC70478B18024413F8014D02F8014D79
:103A40008B42F9D110BC704781EA0003F0B49E07A5
:103A500029D1850729D022B3034600E00AB311F823
:103A6000014B03F8014B9C0702F1FF32F6D1032A08
:103A70000ED9171F27F003070437CE191C1F51F862
:103A8000045B44F8045FB142F9D102F003023B4405
:103A90003AB1013B0A4411F8014B03F8014F8A4245
:103AA000F9D1F0BC70470346F2E70346DFE700BFF9
:103AB0008307C9B226D03AB3034600E022B303F825
:103AC000011B13F0030F02F1FF32F7D130B4032AC8
:103AD00041EA012545EA054512D9141F24F00304E3
:103AE00004341C4443F8045BA342FBD102F00302FC
:103AF00022B1224404F8011BA242FBD130BC704722
:103B00001C46F5E70346E1E7704700BF4FF040036E
:103B1000EFF3118283F31188BFF36F8F06484FF0E4
:103B200080410123C0F84035C1F8783582F311880F
:103B3000BFF36F8F0020704700E001404FF08043DB
:103B4000C0B2C3F81C05BFF34F8F0549054BCA68C7
:103B500002F4E0621343CB60BFF34F8F00BFFDE779
:103B600000ED00E00400FA0520B1034B800143F0B2
:103B700001031847704700BF407F000000F0F4BD0C
:103B8000F0B44368544D1E7AD5F80423C46801F09C
:103B90001F0343EA4613D0B282B02E46002202E051
:103BA0000132082A1BD002F5A27556F82550C5F33C
:103BB0000525AB42F4D120FA02F5ED07F0D59000CF
:103BC00000F1804000F5C0400125D0F8107505FADD
:103BD00002F227F00107C0F81075C6F808231F2B62
:103BE00087BF3E4A03F01F0018464FF0A04202EB89
:103BF0008002E068D2F80057C84025F4403510F044
:103C00000100C2F8005722D02069C84010F001001E
:103C10001DD0A069C84010F001001BD0E269CA4065
:103C2000D20729D46569CD4005F00105C5F102052B
:103C3000EDB2294C002202F5A27154F8210010F0D7
:103C400003001BD00132082AF5D16FF0120002B038
:103C5000F0BC70476369D2F8004723FA01F101F024
:103C6000010124F44033C1F1030143EA0141C2F8E8
:103C7000001702B0F0BC70470325DAE7910001F1AC
:103C8000804101F5C04102F14006D1F8107527F4DA
:103C90004F3727F44077B6001B02C1F81075B6B253
:103CA00003F47C5343EA054306F18046D1F81055EE
:103CB00006F5C0462B43C1F81035306033680193D8
:103CC000019BD1F8105501231D4303FA02F2C1F8FC
:103CD0001055C4F80423BAE7006000400003005008
:103CE000334BF0B4334C45681340A3425CD03FD80B
:103CF000062B4FD031D9B3F5801F35D14FF48073E7
:103D0000D0065ABFC2F34016B6000C2682F4807467
:103D10009705C4F30024C2F3402007D512F4006FC6
:103D20006F683AD001228A40C7F808252A7A01F044
:103D30001F0141EA42111F2940EA4402C6BF01F0B7
:103D40001F011D4D4FF0A045134301F5E0713343B2
:103D500045F821300020F0BC7047002BD0D0022B5A
:103D600008BF4FF48063CBD06FF01500F0BC7047F4
:103D7000124883420BD0B3F5A00F08BF4FF4407335
:103D8000BED0B3F5800FEFD14FF40073B8E74FF416
:103D9000A063B5E74FF4C063B2E75205C6D5012270
:103DA0008A40C7F80C25C1E74FF4E063A8E700BFDD
:103DB0000600F00006001000000300500200400062
:103DC00043685B68D3F810350B600020704700BF74
:103DD00043685B68D3F8040542400A404240C3F898
:103DE00004250020704700BF43685B680020C3F8CB
:103DF0000815704743685B680020C3F80C157047CE
:103E000043685A68D2F804354B40C2F804350020A4
:103E1000704700BFB2F5A03FF0B4C46831D0B2F52E
:103E2000005F4FF00102D4E9036502FA01F219D1F3
:103E300025EA020526EA0206C4E90365D543A66918
:103E40002E40B3F5C02FA66112D0E669B3F5802FDE
:103E500006EA0506E6610ED1656915436561F0BCA9
:103E6000FFF78EBE15431643C4E90365D543E6E765
:103E7000E3691A43E261626915406561F0BCFFF7CE
:103E80007FBE4268157A01F01F0242EA45121F2ADE
:103E9000C6BF02F01F020C4D4FF0A04502F5E072C4
:103EA00055F82220D2070BD4D4E9037501228A40A9
:103EB000A66915431743C4E903751643D543C0E704
:103EC0006FF02200F0BC70470003005070B4C4686B
:103ED0006068D0B10346002600E02B4699420BD023
:103EE0001D681E46002DF8D10AB30860A068616005
:103EF00098B1002070BC704796B10B683360A3681E
:103F0000994208BFA66000230B60002AF1D06068C8
:103F10000860A06861600028EBD1A16070BC7047A8
:103F2000A0680B6863608142EDD1A360EBE76FF09E
:103F30001500DFE710B4C468012223698A401343E7
:103F4000236110BCFFF71CBE10B4C46801222369B2
:103F50008A4023EA0203236110BCFFF711BE00BFB1
:103F6000F0B4C6684768D6E90341D6E906320C408A
:103F700013439C4327D0DFF858C0012100220C4294
:103F800002F01F0021D03D7A736940EA45101F28D6
:103F90008ABF65464FF0A04500F01F0005EB80008A
:103FA000D340D0F8005703F00103C3F1030325F415
:103FB000403524EA010445EA034301324900C0F8D0
:103FC0000037002CDBD1F0BC704701324900D6E746
:103FD00000030050F0B44668C3687268D3E9035127
:103FE000D2F81005D3E90542DB692940134360404C
:103FF00021EA030121EA0000F1B1124F012300245C
:10400000194204F01F0219D0357A42EA45121F2ADC
:104010008ABF3D464FF0A04502F01F0205EB820229
:1040200021EA0301D2F8005725F4403501345B0042
:10403000C2F800570029E3D1F0BC704701345B009F
:10404000DEE700BF000300500A4B1A780AB10020D7
:10405000704710B50521012406201C70FFF704FAF3
:104060000620FFF7F1F9044B4FF00042C3F8042398
:10407000002010BD88E60320006000402DE9F041DB
:10408000002584B0CDE90255464E3468002C71D12C
:104090000022454E17460125D6F80413930005FA71
:1040A00002F003F18043084203F5C24318D01968B7
:1040B00002F5A270A1B156F820101F60C1F3403084
:1040C0000DF1100C1B6801930CEB8000019B50F864
:1040D000083CC1F3042105FA01F1194340F8081C1A
:1040E0000132082AD8D1029E36BB039E26B9002C85
:1040F0004ED104B0BDE8F0812C4FD7F81C80D8F821
:104100000430002BF3D01D68002D07F1100738BFD5
:1041100000259A68D8F8101032400A4238461946ED
:1041200001D05B689847002DE1D02A68002A38BF8B
:1041300000222B461546ECE71C4FD7F80C80D8F828
:104140000430002BD1D01D68002D38BF00259A689F
:10415000D8F8101032400A423846194601D05B6840
:104160009847002DC1D02A68002A38BF00222B466C
:104170001546ECE70D48FFF72DFF03460C48029368
:10418000FFF728FF0390356033680093009B7FE7BB
:104190000648FFF7E5FE064804B0BDE8F041FFF72A
:1041A000DFBE00BF7C61004000600040580400207A
:1041B00068040020094B1A6862B10020186082B0C0
:1041C0001A680192A3F58473019AD3F818350B701D
:1041D00002B070474FF0FF30704700BF0821004029
:1041E000024BD3F88004C3F88004704700200040DD
:1041F000C2680B4692E8030083E803000020704782
:10420000F0B44B79012B67D0032B3DD110258B796E
:10421000032B39D1CC7924B1012C35D143681B78DB
:1042200093B30A7912B1022A2ED10E220B68B3F58C
:10423000164F00F0888038D8B3F5165F00F0818003
:1042400027D9B3F5E14F75D048D947F61226B342C6
:1042500008BF4FF4000317D13C4FC668C7F8243598
:104260002C432243C7F86C2503C9002386E80300CA
:104270001846F0BC7047B3F5967F51D0B3F5167F62
:1042800008BF4FF41C33E7D06FF022031846F0BC90
:104290007047B3F5966F4FD0EDD9B3F5166F42D096
:1042A000B3F5965FF0D12A4BD6E7B3F5613F46D020
:1042B00009D9B3F5612F3BD018D9264EB342E3D1CB
:1042C0004FF08053C8E7B3F5963F2FD016D9B3F51A
:1042D000E13FD9D1204BBFE7002598E7B3F5615FF7
:1042E0001BD0B3F5964FCFD11C4BB5E71C4EB34254
:1042F00010D0B3F5E12FC7D11A4BADE74DF6C0266C
:10430000B34204D0B3F5614FBED1174BA4E74FF4CD
:104310006503A1E74FF080639EE74FF46C139BE7C2
:104320004FF4A03398E74FF41D2395E70F4B93E725
:104330000F4B91E70F4B8FE74FF49E238CE70E4B0B
:104340008AE70E4B88E70E4B86E700BF002000404F
:1043500000B0130040420F0000E0D70100A04E0063
:1043600090D0030000705F0700F0EB0000903A016E
:1043700000D0BE0E00F0750000B0AF030050270063
:1043800000509D0070B54FF0A043174C032540210D
:1043900000220826C3F80815C3F81857C168C3F8E7
:1043A0002027C4F814650626C4F80C652026C3F837
:1043B0000865C3F8145705260725C3F81C2782B0E3
:1043C000C4F80865C4F81055FFF71AFF48B9074B41
:1043D0000422C4F8002518601B6801930123019A88
:1043E000236002B070BD00BF0020004008210040E3
:1043F000F0B583B00C4601F0CBFA68BB1D4E6427C4
:104400000125BFF35B8F56E8003F002B03D146E840
:104410000052002AF7D1BFF35B8F21D1164D174A06
:10442000174B002129602968019101210198116031
:10443000C3F81C454FF47A7403E000F0EBFA013C3A
:1044400003D02B680120002BF7D00E4A0121002356
:104450001160336003B0F0BD064E01233360DDE729
:1044600021200021013F01F001FA17F0FF07C8D118
:10447000F0E700BF74E203201C2100400820004048
:10448000002000400C200040F0B44B79012B054681
:1044900061D0032B44D110268B79032B40D1CC79EA
:1044A0002CB1012C3CD16B681B79002B38D00A79D8
:1044B00012B1022A34D10E220B686868B3F5164F88
:1044C000076800F08E801DD8B3F5165F00F0878076
:1044D0002BD9B3F5E14F7AD049D947F61220834260
:1044E00008BF4FF400031BD103C9ED68C7F824359A
:1044F000344322430023C7F86C2585E8030018469F
:10450000F0BC7047B3F5613F66D01AD8B3F5963F5B
:1045100058D03ED9B3F5E13F08BF4FF0EB73E3D07D
:104520006FF022031846F0BC7047B3F5966F50D079
:1045300013D9B3F5166F42D0B3F5965FF0D12A4B7D
:10454000D2E7B3F5612F3FD019D928488342E7D18C
:104550004FF08053C8E700269EE7B3F5967F2BD037
:10456000B3F5167F08BF4FF41C33BDD0D8E7B3F5C1
:10457000615F1FD0B3F5964FD2D11D4BB4E71D48F4
:10458000834214D0B3F5E12F08BF4FF0E863ABD0FE
:10459000C6E74DF6C020834206D0B3F5614F08BF91
:1045A0004FF46B03A0D0BBE74FF465039CE74FF0DB
:1045B000806399E7104B97E74FF4A03394E74FF4EB
:1045C0001D2391E70D4B8FE74FF070638CE70C4B89
:1045D0008AE74FF49E2387E74FF06C7384E7094B1B
:1045E00082E74FF41D037FE700B0130040420F0045
:1045F00000A04E0090D0030000F03A0000903A0175
:1046000000C0750000502700C2680B4692E8030006
:1046100083E803000020704743681B68D3F88004D8
:10462000C3F88004704700BF4368C0681B68D3F8B4
:1046300010216AB1027B0A70002082B0C3F8100119
:10464000D3F810210192019901221A6002B070473B
:104650004FF0FF30704700BF2DE9F04184B0436850
:104660008DF807101D68C66801F092F998BB06F135
:1046700008044FF064080127BFF35B8F54E8003F44
:10468000002B03D144E80072002AF7D1BFF35B8FFF
:1046900024D10023C5F82031D5F8203103930DF142
:1046A000070201230399C5F844254FF47A74C5F82D
:1046B0004835AB6003E000F0ADF9013C04D0D5F81B
:1046C00020310120002BF6D001220023EA60B360E4
:1046D00004B0BDE8F0810123B360DAE721200021B6
:1046E00008F1FF3801F0C2F818F0FF08C4D1EFE775
:1046F00030B54168144AC5680C680423C2F808350F
:1047000003210023C2F80817C2F80437222121230D
:10471000C4F80C1583B02946C4F81435FFF7B4FE6D
:1047200078B90823C4F80035C4F81001D4F8103162
:1047300001930C350123019AC4F83455C4F8383577
:10474000236003B030BD00BF0003005008B5002057
:10475000FFF7F4F908B5FEF74FFDFEF7D7FDBDE80A
:10476000084003F06FB900BF964B1B6810B45C1C87
:1047700000F0C780944A082B126830D0914B1B6818
:10478000082B00F08180591C14D08F4A1268082B26
:1047900018D04FF01023D3F80022002AC0F2E08096
:1047A000D3F80432002BC0F2DB80884B884A10BC5F
:1047B0001A607047874B884A1B781268082BC2F32F
:1047C0000312E6D1032AE4D84FF08043D3F8002443
:1047D000D20744BF6FF00102C3F80024D9E7032ACF
:1047E00040F2A280784A1268082BC7D1032AC5D8A4
:1047F0004FF08052794BD2F80414C3F82015D2F848
:104800000814C3F82415D2F80C14C3F82815D2F8EC
:104810001014C3F82C15D2F81414C3F83015D2F8BC
:104820001814C3F83415D2F81C14C3F84015D2F884
:104830002014C3F84415D2F82414C3F84815D2F84C
:104840002814C3F84C15D2F82C14C3F85015D2F81C
:104850003014C3F85415D2F83414C3F86015D2F8E4
:104860003814C3F86415D2F83C14C3F86815D2F8AC
:104870004014C3F86C15D2F84424C3F87025514B8A
:104880001B68082B7FF47FAF4F4B1B68032B80D82E
:10489000534AD25C12B1534A53491160534AD35C14
:1048A000002B5AD0474B52491B68474AFB20C1F89E
:1048B0001805082B12687FF466AF032A3FF669AF2C
:1048C0004C4B9B5C002B45D04B4B4C4C1A682068E2
:1048D0003D49A3F5947320F00F001B68096802F0AE
:1048E0000F020243082B22607FF44DAF03293FF6ED
:1048F00050AF434B5B5C33BB324B334A1B6812688F
:1049000045E7344A344B12781B68082A4FEA1313E0
:104910007FF434AF13F00C0F06D02F4A2D4B1268E2
:104920001B78C2F303125FE7264B1B684FF08042EF
:104930000021581CC2F80C11C2F81011C2F8381529
:104940007FF450AFE9E71F4B2E4A1B684FF400710C
:10495000116018E71C4B1968CBE71B4B1A68AFE7CF
:10496000294A0123C2F80435D2F80034002BFBD0C9
:104970004FF010231221244AC3F80012D2F8003459
:10498000002BFBD04FF0102312211F4AC3F8041252
:10499000D2F80034002BFBD000231B49C2F80435A9
:1049A000D1F80034002BFBD0BFF34F8F1749184BC1
:1049B000CA6802F4E0621343CB60BFF34F8F00BFBD
:1049C000FDE700BF3001001034010010D8000020C6
:1049D0000090D003E00F00F0E80F00F000C00040AE
:1049E000148100008C5600404881030014810000AF
:1049F00000F000401481000058020010E40E004056
:104A0000148100004096024000E0014000ED00E00B
:104A10000400FA0500F0C2BFF8B50E4A431C52F874
:104A2000204052F82360B44212D2361B013E04F1FA
:104A3000100326F007061E440834002754E9023507
:104A400028460834984708B105B1AF60B442F5D1A3
:104A5000F8BD00BF1881000070B50F4A0F4DAA4283
:104A600016D006461446A36813B12368B34210D08B
:104A70001034AC42F7D1AA420AD0074CA3683046A2
:104A80001BB12168FEF79AFF18B11034AC42F5D182
:104A90000024204670BD00BF1804002088040020B8
:104AA000F8B505460E464FF04003EFF3118783F348
:104AB0001188BFF36F8F00F0F9FE31460446284697
:104AC000FFF744FE87F31188BFF36F8F2046BDE8E0
:104AD000F840FEF79DBE00BFFEF788BA08B50B4D43
:104AE0004FF04002EFF3118382F31188BFF36F8F11
:104AF00001F098F8022804464FF00101D8BF0120C8
:104B000001F0A0F82C62FEF71BFDE9E760E303204B
:104B1000024A03480021121AFEF7CABF90E603209A
:104B20000005002008B50648064A0749121AFEF794
:104B30008BFFBDE80840054A05490648FEF784BFDB
:104B40000000002000050020C882000000000000D6
:104B5000C88200000000002008B5094B0122022095
:104B60001A70FFF759FF0320FFF756FF00F03EFFD2
:104B7000FCF792F8034A137B23F00103137308BD7B
:104B800089E60320ECE203202DE98048DFF8F8B045
:104B9000A5B08BF30888364D364E6B69364FDFF87B
:104BA000ECA0DFF8EC90DFF8EC800024E02120227C
:104BB00043F400736B6185F82210EA772C766C76EB
:104BC000AC766B6A43F4E0236B62FEF7FFFDFEF701
:104BD000B1FC4FF0FF33AB6240F20112EB622046B2
:104BE00007ABADF82820B360CDE91F44FFF714FFF1
:104BF0000120FFF711FF00F0D5FD204B7762012562
:104C0000CDE90453384649464FF480625346CDE916
:104C10000244CDE9004400F0C3FE7B7B23F0040393
:104C200038467B7300F0C2FA0F23CDE904541449CF
:104C300003934046134B00944FF4A072CDE9014416
:104C400000F0AEFE98F80D50C6F804B0384625F0D6
:104C5000040506F11807534649464FF48062C6E939
:104C60000677C6F80C80347588F80D50FEF746FCC0
:104C700000ED00E060E30320ECE20320308100005F
:104C800090EA0320DD4A0000D0F30320594B0000D6
:104C900090E6032078E20320F0B41148114FB842A7
:104CA00017D2D0E9035343EA050212F0030213D1ED
:104CB0008668426111460EB908E023460132B242CD
:104CC000196003EB050443611946F6D11C30B84264
:104CD000E7D30020F0BC70476FF01500F0BC7047C0
:104CE000880400208804002070B441EA02040025F2
:104CF00014F00304C0E903218360856111D144618C
:104D000025460BB908E031460134A3420D6001EBA2
:104D1000020641610D46F6D1C0E90000002070BCDA
:104D200070476FF01500FAE770B50E4682B01D4669
:104D30004FF04003EFF3118183F31188BFF36F8FBE
:104D4000436963B1826933601B68436101328261E8
:104D5000002081F31188BFF36F8F02B070BD14463D
:104D600054EA050203D133606FF00B00F1E702460D
:104D7000CDE90045044800F08BFC0028EDD1034B41
:104D80009B685B693360E8E760E3032060E303202E
:104D900070B50D4604464FF04003EFF3118683F3E0
:104DA0001188BFF36F8F00F0CFFC58B12A684261C1
:104DB0000022026700F0FAF931460948BDE8704068
:104DC00000F024B9D4E905132A6811602A686261E9
:104DD000013BA36186F31188BFF36F8F70BD00BFE5
:104DE00060E3032003460020C3E90033C3E9020067
:104DF000704700BF2DE9F041044682B01F464FF0D6
:104E00004003EFF3118583F31188BFF36F8FC368FD
:104E10007BB9364A926892F90E1021610133C4E9D8
:104E2000022385F31188BFF36F8F002002B0BDE825
:104E3000F08116462D4A80689268904201D121691E
:104E4000EBE756EA07034AD092F90E1090F90E30BC
:104E50009942A8BF194621EAE1718B4239DC4FF033
:104E60000008CDE9006722482946224600F010FCE0
:104E70000028DBD04FF04003EFF3118583F3118856
:104E8000BFF36F8F23689C4227D033B393F90E1082
:104E900023699942A8BF194621EAE171A06890F9F7
:104EA0000E30994209D1B8F1000F0BD010482946B5
:104EB00000F0ACF86FF00A00B8E700F0FDFB002846
:104EC000F1D0F3E785F31188BFF36F8F6FF00A001D
:104ED000ACE700F0F1FB8046C3E72169DEE785F32C
:104EE0001188BFF36F8F6FF00F009FE760E303201F
:104EF00060E3032038B58368002B3BD01F4A9268DB
:104F0000934234D1DA7B013A0446DA73C368012B49
:104F100021D14FF04003EFF3118583F31188BFF3E4
:104F20006F8F8068216990F90E3099421CD120461C
:104F300000F00AFCA06088B190F90E2022610022E6
:104F4000026700F033F90E48294600F05FF800F0E0
:104F5000D5F8002038BD013BC360F8E7E06085F379
:104F60001188BFF36F8FF2E700F0A6FBDFE74FF089
:104F7000FF3038BD6FF0150038BD00BF60E303207F
:104F800060E3032008B5FEF71BF90549054A03460F
:104F90000868034413610021BDE8084000F052BED8
:104FA00098E3032060E30320F8B50C464FF040037C
:104FB000EFF3118583F31188BFF36F8F104B4FF41C
:104FC000004240F2E7360027E2FB006700221A6148
:104FD00030464FF47A7200233946FBF791F8094ABC
:104FE000094B1460186020B985F31188BFF36F8FE7
:104FF000F8BDFFF7C7FF85F31188BFF36F8FF8BDCA
:1050000060E3032094E3032098E3032021B9EFF346
:10501000058008B9FEF7C8B981F31188BFF36F8F17
:10502000704700BF034620B9EFF305820AB9FEF7C7
:10503000BBB983F31188BFF36F8F70474FF0400304
:10504000EFF3118183F31188BFF36F8F044B9A68DC
:10505000D37B013BD37381F31188BFF36F8F70470C
:1050600060E30320094B03F12802824207D0D1E913
:105070000020002302605060C1E9003370479B6844
:105080008B42F4D14B7BDB06F8D1F0E760E30320E1
:105090000368984204D0002B38BF0023184670479D
:1050A0000020704738B5134D024605F12800FFF780
:1050B000EFFFAB68597B0446880644BF41F0080106
:1050C00059738CB14AB95A7BD20606D1A26922B96A
:1050D000DA897F2A01D96B6238BDA34202D0064B20
:1050E0001B681BB96C6238BDEC68EBE7FFF74AFF41
:1050F0006C62F8E760E3032098E3032010B54FF0FB
:105100004003EFF3118483F31188BFF36F8F0C4BCF
:105110009A68D37B0133D3730020FFF7C3FF84F376
:105120001188BFF36F8F4FF04003EFF3118083F3CB
:105130001188BFF36F8FBDE81040FFF773BF00BF4A
:1051400060E30320437BDB0601D1836903B1704731
:1051500070B4154C224652F8281F914203D0002902
:105160000B4638BF0023E66A53B190F90E5093F90D
:105170000E108D4211DBB34202D01B68002BF6D11A
:105180004660E36A02601860E062437B63F07F037D
:10519000437370BC0020FFF785BF5A68C0E9003236
:1051A00010605860F1E700BF60E3032010B54FF0D6
:1051B0004003EFF3118483F31188BFF36F8FFFF780
:1051C000C1FF84F31188BFF36F8F10BD38B550F85D
:1051D000103C0446A0F11801C3B14FF04003EFF3B7
:1051E000118583F31188BFF36F8F50F8100CFFF710
:1051F00039FF14F80B3C002223F0020304F80B3CA7
:1052000044F8102C85F31188BFF36F8F14F80B3C12
:1052100023F0140304F80B3CBDE838400846FFF7C0
:10522000C5BF00BF10B54FF04002EFF3118482F309
:105230001188BFF36F8F427B530704D484F3118826
:10524000BFF36F8F10BD22F004024273FFF77AFFA5
:1052500021460248BDE81040FFF7D8BE94E3032082
:10526000F8B503464FF04002EFF3118782F311883F
:10527000BFF36F8F90F90D202349447B8868002A83
:105280002FDB8A6ADFF884C0624538D0002A38BF35
:105290000022CE6A52B193F90E5092F90E40A54207
:1052A0000BDBB24202D01268002AF6D15E60CA6AF5
:1052B000C3F800C01360CB6204E05168C3E9002169
:1052C0000B6053605A7B181A62F07F02B0FA80F0CC
:1052D00040095A73FFF7E6FE87F31188BFF36F8F1B
:1052E000F8BD83420DD0D3E9004500222C606560F3
:1052F000C3E90022DFF814C08A6A6245C6D10022E1
:10530000C7E7E206BDD1EEE760E3032088E30320B0
:105310001849194B70B51A688C68944215D0174D0E
:105320002A6800261E606AB1E3897F2B0AD8144BD5
:1053300094F90E201B689A4204DB124B9C4201D068
:10534000A36953B100230B6170BD0C4B1B68002B8C
:10535000FAD0BDE87040FFF715BE0B69834202DD4D
:10536000181A086170BD2046FFF77AFF2B68002BE2
:10537000EFD170BD60E3032090E3032098E30320A6
:1053800094E3032078E2032070B50446183000F05F
:1053900023FC4FF04003EFF3118683F31188BFF332
:1053A0006F8F94F90D20194D637BA868002A10DBDC
:1053B000201A43F01003B0FA80F063734009FFF73E
:1053C00071FE86F31188BFF36F8FAB68A3420DD0D7
:1053D00070BD844216D0D4E9003213605A600022B6
:1053E000C4E90022637B03F07F03E1E74FF0400351
:1053F000EFF3118083F31188BFF36F8FBDE8704026
:10540000FFF710BEDA06EED1E5E700BF60E3032048
:10541000836D2DE9F047054603B1984705F1180063
:1054200000F0DAFB4FF04003EFF3118983F31188AA
:10543000BFF36F8F6B7B13F01F0101D1AA69A2B379
:105440009A0744D4AC6A05F1280643F00803A64243
:105450006B7336D0DFF8C0804FF0000A08F12807E0
:1054600012E0D4E9003213605A60C4E900AA637BF9
:10547000C4F808A023F002036373C4F870A0FFF718
:1054800061FEAC6AB4421CD004F11800CCB100F04B
:10549000A3FBA368BB422046E3D1D8F808309C4266
:1054A000DFD1637BD906E3D1DBE71B0622D41A4B9D
:1054B0009868401BB0FA80F04009FFF7F3FD6B7B62
:1054C000C0E789F31188BFF36F8FBDE8F087124AF8
:1054D000AC6802F12800844217D0D5E9003213608D
:1054E0005A600022C5E900226B7B002203F0FD0315
:1054F000AA60A7E7D5E900310B6059606B7B2A6091
:1055000003F07F036A606B73D1E792689542E4D140
:105510000029E2D0E9E700BF60E3032090F90D2005
:10552000437B002A07DB104B9A68801AB0FA80F0A0
:105530004009FFF7B7BD0C4A9268904210D0D0E9FD
:1055400000310B6059600021C0E90011437B03F07A
:105550007F034373801AB0FA80F04009FFF7A2BDC1
:10556000D906F4D1EBE700BF60E3032010B54FF09C
:105570004003EFF3118483F31188BFF36F8FFFF7BC
:10558000CDFF84F31188BFF36F8F10BDF8B50546CA
:1055900000F0F2FB2C184FF04003EFF3118783F378
:1055A0001188BFF36F8F0D4E0D4BB0681860FFF779
:1055B000DDFFB0680B492A46EB17183000F088FA77
:1055C000B268537B43F0100353733846FDF7ECFE8B
:1055D00000F0D2FB201A20EAE070F8BD60E303205F
:1055E00090E30320CD51000038B504460D46FFF787
:1055F00095FF637B43F002036373DDB12B68A56005
:105600009D4218D0002B38BF0023A3B194F90E108F
:1056100093F90E20914208DB6A6893420CD01B6814
:1056200053B193F90E209142F6DA5A68C4E9003278
:1056300014605C6038BD6A6862606B6825601C60DD
:105640006C6038BD2DE9F04114461D4606464FF00A
:105650004003EFF3118783F31188BFF36F8FFFF7D8
:10566000C3FF87F31188BFF36F8F6B1C08BFB4F1C2
:10567000FF3F01D1BDE8F08122462B4606F118001C
:105680000249BDE8F04100F023BA00BFCD5100004F
:1056900010B50748074B806818600C461146DDE9D5
:1056A0000223FFF7CFFF2046BDE81040FDF77CBE88
:1056B00060E3032090E30320F8B54FF04003EFF3DD
:1056C000118483F31188BFF36F8F437BDB0601D115
:1056D000836933B18173002084F31188BFF36F8F26
:1056E000F8BDD0E90057174E3D606F60C0E9003348
:1056F000324649B252F8285F8173954203D0002D9B
:105700002B4638BF0023F76A43B193F90E508D4200
:1057100012DCBB4202D01B68002BF6D14760F36A53
:1057200002601860F0620120FFF7BCFC012084F3E6
:105730001188BFF36F8FF8BD5A68C0E9003210605E
:105740005860F0E760E3032038B54FF04003EFF313
:10575000118283F31188BFF36F8FFFF799FC044622
:1057600082F31188BFF36F8FC8B14FF04003EFF39E
:10577000118583F31188BFF36F8F01468068FFF7AF
:1057800071FC637B002223F002036373A26085F344
:105790001188BFF36F8F04F1180000F01DFA204646
:1057A00038BD00BF044B002103F12802C3E90A22DF
:1057B0000846FFF7F9BB00BF60E303202849F8B5AE
:1057C0008A68284B9A4236D04FF04003EFF3118598
:1057D00083F31188BFF36F8F8A68537B13F01F0325
:1057E00005D1D2E9000420604460C2E900338B6A2D
:1057F0001D4FBB4231D0002B38BF0023CE6A53B1BE
:1058000092F90E4093F90E00844220DBB34202D09D
:105810001B68002BF6D15660CB6A17601A60CA620B
:10582000537B63F07F0353730120FFF73BFC85F349
:105830001188BFF36F8F4FF04003EFF3118083F3B4
:105840001188BFF36F8FBDE8F840FDF7ADBD596813
:10585000C2E900310A605A60E2E70023CEE700BFE8
:1058600060E3032078E2032088E30320013108BFCE
:10587000B0F1FF3F10B510D0044650B1FFF786FEDF
:105880004FF47A7380FB0301C40B44EA4144204681
:1058900010BDFFF793FF204610BD034B9868FFF73C
:1058A00073FD4FF0FF34F2E760E30320014B98688B
:1058B000704700BF60E303203AB18A4205D3C0E9D4
:1058C0000212C0E90000002070476FF01500704719
:1058D00038B504464FF04003EFF3118583F3118888
:1058E000BFF36F8FFFF730FF48B100220267FFF769
:1058F0005DFC29460848BDE83840FFF787BBD4E97E
:1059000002329A4218BF0133A36029460248BDE81B
:105910003840FFF77BBB00BF9CE3032030B51D463A
:1059200083B04FF04003EFF3118183F31188BFF38D
:105930006F8F836843B1013B836081F31188BFF3AC
:105940006F8F002003B030BD144654EA050306D023
:105950000246CDE900450548FFF79AFEF2E781F3DC
:105960001188BFF36F8F6FF00F00EBE79CE303200C
:1059700030B414461D462C4302D130BCFFF752BC54
:1059800030BC0249183000F0A3B800BFCD51000070
:10599000EFF30580003818BF01207047FEF7E4B828
:1059A000F0B587B00426109F467307730F9E0497C7
:1059B0000C9F867300F12805039600970D9E0E9F9D
:1059C000C0E90A550025C0E90655CDE90167C57350
:1059D0000446FDF777FD044B65659B68A56503B13B
:1059E0009B6EA36607B0F0BD60E303202DE9F04B8A
:1059F000234F244DAF4286B017D23C46D4E905323E
:105A0000D4E90710E66A0193CDE90406CDE9022145
:105A100023690093D4E90223D4E90001FFF7C0FF12
:105A200023685C653034AC42E8D3FFF707FBAF4234
:105A300020D2134C4FF4004740F2E7384FF00009F2
:105A4000666AC34626EAE671CC46C7FB01BC01364E
:105A50004FF47A724FF000035846614607D0FAF7C8
:105A60004FFB2668024600233046FFF781FF3034A3
:105A7000AC42E5D306B0BDE8F04BFFF73FBB00BF3B
:105A800088040020880400200E4B10B51C689C423E
:105A90000D4B1B680DD093B100206CB1A368181A90
:105AA00020EAE070094B1B6913B19842A8BF184661
:105AB00010BD0BB9FDF784FB6FF00040F2E7FDF776
:105AC0007FFBEAE7DC0000209CE3032060E3032087
:105AD0002DE9F84F5C1C08BFB2F1FF3F5DD0551CAB
