:1000000000000420298100006D8100006F81000044
:100010007181000073810000758100000000000004
:1000200000000000000000000000000077810000D8
:1000300079810000000000007B8100007D810000CC
:100040008951000079B400007F8100007F810000A9
:100050007F8100007F8100007F8100007F810000A0
:100060007F8100007F8100007F8100007F81000090
:100070007F810000E93D00007F8100007F8100005A
:100080007F8100007F8100007F8100007F81000070
:100090007F8100007F8100007F8100007F81000060
:1000A0007F8100007F8100007F8100007F81000050
:1000B0007F8100007F810000000000000000000040
:1000C0007F8100007F8100007F8100007F81000030
:1000D0006D3D00007F8100007F81000045610000D0
:1000E0007F8100007F8100007F8100000000000010
:1000F000000000007F810000000000007F81000000
:1001000000000000000000000000000000000000EF
:1001100000000000000000000000000000000000DF
:1001200000000000000000000000000000000000CF
:1001300000000000000000000000000000000000BF
:1001400000000000000000000000000000000000AF
:10015000000000000000000000000000000000009F
:10016000000000000000000000000000000000008F
:10017000000000000000000000000000000000007F
:10018000000000000000000000000000000000006F
:10019000000000000000000000000000000000005F
:1001A000000000000000000000000000000000004F
:1001B000000000000000000000000000000000003F
:1001C000000000000000000000000000000000002F
:1001D000000000000000000000000000000000001F
:1001E000000000000000000000000000000000000F
:1001F00000000000000000000000000000000000FF
:1002000010B5054C237833B9044B13B10448AFF350
:1002100000800123237010BD1801002000000000A1
:10022000A815010008B5034B1BB103490348AFF300
:10023000008008BD000000001C010020A81501007E
:10024000A3F5803A704700BF174B002B08BF134B34
:100250009D46FFF7F5FF00218B460F461348144AD1
:10026000121A0DF0E9FA0E4B002B00D098470D4BF7
:10027000002B00D098470020002104000D000D48FD
:10028000002802D00C48AFF300800DF073FA200074
:10029000290000F015F80DF047FA00BF0000080033
:1002A00000000000000000000000042018010020F1
:1002B000D031002000000000000000007047000066
:1002C00070B505460E463146284604F003FB02F0A1
:1002D00069FB044628B90B4B0B4A0C486A210DF008
:1002E00005FA00F055F804F029FB18B1204602F099
:1002F0005DFBE8E7204602F010FC204604F024FBFA
:10030000F1E700BFB4EC00004EED0000BDEC0000D2
:1003100070B5044604F58B550E4600F019FD04F641
:10032000541104F6381000F050F923462946154AB6
:1003300004F5146000F0AAF904F65A13C4F854390D
:1003400041F25C124FF40063A4F858390023A35221
:10035000AA1D2A604FF40072AA8041F2683204F5A7
:100360009B50A35431462346074A0C3002F06CFCE4
:1003700006492246201D00F033FA04F0C9FC20464D
:1003800070BD00BFAD050000A1040000C503000062
:1003900010B5054C01462046FFF7BAFF00F05EFDA0
:1003A000844200D0FEE710BD38010020D0F8542967
:1003B00000F65A139A4204D100F59B500C3002F01B
:1003C00059BC7047FFF7F2BF2DE9F04100F58A579D
:1003D0000446061D1D3704F58A551C35304600F0CD
:1003E00005FB2B7870B1022B49D0D4F8541904F6D0
:1003F0005A10091A89B2002950D004F091FC002843
:100400004CD0FEE7012B21D0022B38D0002BE5D1B8
:10041000204600F029FD08B103F026FE204600F03A
:100420002DFD0028E1D104F6381000F0D2F80028A4
:10043000DBD1304600F025FB01232B70304600F065
:1004400035FB58B9304600F03AFB3870397804F67D
:10045000381000F0C7F80028F0D0C6E794F898806C
:10046000304600F0FFFBB8F1000F06D094F898304A
:100470001BB941F268330122E25402232B7004F6C7
:10048000381000F0DDF80028AFD141F26833E218EF
:10049000E35C2870002BA1D010709CE7BDE8F081D0
:1004A00008B500F0DBFCBDE80840FFF78DBF00F6A3
:1004B0005A13C0F854394FF40063A0F8583900F5C6
:1004C0009B500C3002F0D6BB08B500F0C7FC18B149
:1004D000BDE80840FFF7EBBF08BD13B50446019126
:1004E00000F0BCFC40B1019A214600F5146002B056
:1004F000BDE8104000F0D2B802B010BDF0B50C4617
:10050000A1B015461E4600F0C3FC2346194A1A4FF7
:10051000802168460DF06EFD68460DF0A7FD694626
:100520000246002001F0AEFB0024A642A0B20ED08D
:10053000292C0BD0A4EB840104EB44002B5D3A463C
:10054000803168440DF056FD0134EEE7204600EBA3
:100550004000C0F18001094A68440DF04BFD684637
:100560000DF084FD0DF10101421E002001F08AFB17
:1005700021B0F0BD53ED000067ED00006DED00000F
:1005800038B500F58B552C4654F8063B1B1B9BB227
:1005900041B91A46214601F0D7F94FF400732C6097
:1005A000AB8038BD2246FFF7A9FFF6E7FFF7E8BFAB
:1005B000838843B103685A1C026019708388013B29
:1005C00083800020704703207047002201608280F2
:1005D000704708B54FF6FF7383807E210068FFF7F0
:1005E000E7FF08BD7E2938B505460C4600680AD8E5
:1005F0007C2903D801F0FD03112B06D18388012B40
:1006000008D8032005E0F829F7E72146FFF7D0FFD7
:1006100040B138BD7D21FFF7CBFF286884F0200171
:10062000FFF7C6FFAA88054B5440E4B2002033F818
:10063000143083EA1223AB80EBE700BF70ED0000BB
:10064000F7B50368044693E80300A6886D4685E87D
:100650000300F1438FB22046C9B2FFF7C3FF034640
:1006600058B9390A2046FFF7BDFF034628B920686C
:100670007E21FFF79DFF034628B122680098A988D4
:1006800010609180A680184603B0F0BD30B50025FB
:10069000C0E90112C0E90335057030BD2DE9F8430A
:1006A000384F04460D468E184FF00208AE4266D011
:1006B000237815F8011B012B0BD0022B3ED0002B09
:1006C000F4D17E29F2D1012323704FF6FF73236109
:1006D000ECE77D2917D07E2918D06068B0F8049027
:1006E000B9F1000F44D0B4F810C081EA0C02D2B2C4
:1006F00037F8123083EA1C232382FFF759FF638AFD
:1007000001336382D2E784F80080CFE7638A002B4D
:10071000DBD0012B10D9228A4FF2B8039A420BD1B9
:1007200063681A68023A1A609A8802329A80002135
:10073000D4E902309847C8E70621F9E76068B0F8C5
:100740000490B9F1000F13D0B4F810C081F020016B
:1007500081EA0C02D2B237F8123083EA1C232382DA
:10076000FFF726FF638A01336382012323709DE72D
:10077000A368E0680321984784F8009096E7BDE8F5
:10078000F88300BF70ED000010B5036803625A1EC5
:1007900011468B4202D904892144FAE741620221C1
:1007A000017700210163A1F58031C0E90A33C0E976
:1007B0000D13934202D901890A44FAE7C0E90F23D5
:1007C000C0E9113310BD10B5002301601144C0E928
:1007D0000333C0E9053341600281FFF7D5FF10BD47
:1007E000C0E903127047C0E905127047012B09D018
:1007F000022B0ED073B9114442688A420AD8038989
:10080000C91AFAE7891A02688A4203D90389194486
:10081000FAE7FEE708467047012B0DD0022B14D0F3
:10082000A3B98A4202D3521A90B270474368006853
:10083000591A121A0A44F7E78A4201D88A1AF3E7CA
:10084000436800689A1A091AF4E7FEE70022EBE70A
:1008500010B5144612120A700122FFF7C7FF047088
:1008600010BD10B5134601220C78FFF7BFFF0078CA
:100870002402204480B210BD73B5037FC26A019385
:100880000E46816A00910446FFF7C6FF01280099D1
:10089000054613D9019B20461A46FFF7E2FF023DA9
:1008A000C5F30D0535432843019B009982B22046CC
:1008B000FFF7CEFFE36AA36202B070BDE162FBE71F
:1008C0002DE9F3411F46037F022B04460D461646D1
:1008D00021D0826A4968914221D1C26A0193009174
:1008E000FFF79AFF2D68019B009980462A46204613
:1008F000FFF792FF3844404511DC3744BE4210D028
:1009000016F8013B2B702946237F01222046FFF772
:100910006DFF0546F2E70D2002B0BDE8F08107202B
:10092000FAE70020F8E7037F022BF7B504460D46EF
:100930001CD0826A4968914218D1C76A00933A462E
:100940000191FFF769FF2D68009B019906462A4631
:100950002046FFF761FF864208D9009B3A462946A8
:10096000204603B0BDE8F040FFF756BF002003B0BB
:10097000F0BD037F022B73B504460D4616D0826A84
:100980004968914214D1C26A01930091FFF744FF74
:100990002D68019B009906462A462046FFF73CFF3A
:1009A000864205D9E562002002B070BD0D20FBE74C
:1009B0000720F9E738B5037F022B044612D0002147
:1009C000FFF75AFF227FA06A04EB8203196A2163B2
:1009D0001862E56815B120692346A84702232377EA
:1009E000002038BD0D20FCE7006B7047C26B436AE6
:1009F0009A4205D1836B006A1B1A584258417047CE
:100A00000020704790F8353033B9C36B426A9B1AA7
:100A100018BF012380F8343070472DE9F84390F86F
:100A2000348000EB88060446376A656C2564BD4255
:100A300022D0424629462046FFF713FF030402D581
:100A4000B36B9D4218D1C0F30D00821C434629466A
:100A50002046FFF7CBFE43468146606402222946CA
:100A60002046FFF7C3FE8145A064DED0012384F851
:100A700035300020BDE8F883032384F83530172093
:100A8000F8E708B50146FFF7B1FF68B90846FFF778
:100A9000B9FF91F834300E3351F82330C1E91033E7
:100AA000BDE80840FFF7B9BF172008BD90F8350032
:100AB00003281ABFB0FA80F040090120704790F86F
:100AC0003520012A38B504460ED1816C90F83430B7
:100AD0000D78FFF78BFE636CA064984202D120462C
:100AE000FFF79BFF284638BD0025FBE7D0E90E2322
:100AF000416A99420CD1017F012909D00168531E36
:100B0000994202D902891344FAE74362C3637047EA
:100B1000016A91420AD1027F42B141680133994290
:100B200002D802899B1AFAE7036283637047037F46
:100B3000022B06D0083350F82330C0E90A330223D1
:100B40000377FFF7D3BFF8B5047F022C05460E46A6
:100B500000D1FEE72346C76AB4FA84F4640901228F
:100B600039460834FFF742FE55F82430834203D05B
:100B70003E70E8620020F8BD2846FFF7D8FF03204A
:100B8000F9E7D0E90A239A4270B505461BD1037FE5
:100B90000833002150F82360B2420CBF4FF40046E6
:100BA0000026FFF7D0FF044658B901462846FFF754
:100BB000CAFF044628B92B7FA96A32462846FFF7A8
:100BC00047FE204670BD0024FBE738B5037F022BAB
:100BD00004460D4607D0FFF7D4FF18B9E36A2B602F
:100BE000A36A6B6038BD0D20FCE713B5037F01914C
:100BF000022B044609D0FFF7C4FF38B901992046FB
:100C000002B0BDE81040FFF79EBF0D2002B010BD3E
:100C1000F8B5037F022B07460D46164610D0FFF7A6
:100C2000B0FF044650B92E44B54207D015F8011B59
:100C30003846FFF788FF0028F6D004462046F8BD66
:100C40000D24FBE738B50D460446FFF770FF0DB1E4
:100C5000012D00D12577237F083354F82330C4E9D0
:100C60000A3338BD2DE9F0470446FFF7BFFE0028E0
:100C70003BD12046FFF7C6FE94F834A004EB8A0867
:100C80000B26D8F83870D8F820903D46A94516D0E4
:100C9000524629462046FFF7E4FD030401D5BD4234
:100CA0000DD1C0F30D00821C294653462046FFF7A4
:100CB0009DFD013E16F0FF060546E7D1FEE7C8F8A8
:100CC00038502046FFF712FF656900264FF6FF7384
:100CD00084F83560E38655B1A06994F83420234642
:100CE0003946A8473046BDE8F0871720FBE728467D
:100CF000F9E7182826D8DFE800F0280D0F11251392
:100D0000151725252525191B1D1F252525252525D5
:100D100025232100012070470E2070470B207047CB
:100D20000C2070470920704703207047022070474D
:100D3000042070471120704712207047132070471D
:100D40001420704700F58040704700207047000075
:100D50002DE9F0410646044646F8041B4FF40062B4
:100D60000F4600F1D1013046FFF72DFD0025266525
:100D700004F1540304F17402C3E9005508339A42A4
:100D8000FAD1C4E91E55A4F8745004F1800001F0B2
:100D9000E9FA2D4A84F89850C823C4E9282304F1BD
:100DA000AC084FF6FF73294AA4F8A8303946234609
:100DB000C4F89C50404601F047FF042184F8C81055
:100DC0002349C4F8B4500968C4F8CC104FF07F41EF
:100DD00000230022C4F8141904F51361C4E92E237A
:100DE000C4E9302384F8D05084F8D158A4F8D258FC
:100DF000C4F8105984F81859C4F81C59C4F820597B
:100E0000C4F82459C4F8285984F82C59C1E900239E
:100E1000236803B9FEE70F4B0F491C60224630469A
:100E2000FFF7E1FC3C22002104F6D4000CF004FDA5
:100E30007722002104F1B80001F0CEFC404601F019
:100E400019FF2046BDE8F08100F8FF07ED11000012
:100E500070EF0000B014002053120000014B18681E
:100E6000704700BFB014002090F8C830042B1ABFA0
:100E700090F8980080F001000020704790F8C8308A
:100E8000012B06BF90F8980080F001000020704709
:100E9000D0F81C390133C0F81C3970472DE9F843EC
:100EA000994690F814390D1E0446164608BF702561
:100EB00013B10D20BDE8F88300F1B8072946384684
:100EC00001F008FD0028F4D194F8D22894F8D33822
:100ED0009A420AD00B220021384601F07DFC04F131
:100EE000AC0001F0C7FE0320E4E704F150082B46F4
:100EF00006228021404601F03CFC48B9206D1FFAD3
:100F000089F23146FFF784FE10B9404601F014FC27
:100F10000328CFD1DEE70000013804289ABF024B36
:100F2000185C0020704700BF74EF0000F8B511F0A6
:100F30000F0601F00F0708D1022A04D11A463146E4
:100F4000B83001F049FC3046F8BD90F8D35890F81D
:100F5000D2186C1A0E2C06DD0E220021B83001F0DA
:100F60003BFC0326EFE790F8D148B44218D08D42FD
:100F700016D90C460E2C02D90F3CE4B2FAE704F560
:100F80000D7400EB840494F804C01CF0100F0DD015
:100F90000CF00F0EB64509D16FF3041C84F804C0A1
:100FA0002C460E2C05D90F3CE4B2FAE70131C9B248
:100FB000DDE702F0030247F0100141EA421104F5B7
:100FC0000D74084A00EB840402EAC31319436368F2
:100FD00003F00043194301356160002680F8D358BF
:100FE000B1E700BF80FFFF7F13460222FFF79EBFDD
:100FF00038B511F0300F00F1500408BFC0F89C2044
:10100000154600230622204601F0B3FB48B92946C5
:10101000204601F0F6FA20B92046BDE8384001F03C
:101020008BBB38BD2DE9F74304460D466846114693
:1010300091461E4601F066F9DDE900782FB918F0F7
:10104000010F02D1E6B932461BE004F150064B46CF
:1010500006222946304601F08CFBC8B94FEA6803E6
:1010600018F0010F18BFE35804EB680018BFDF59F0
:10107000B84768B9304603B0BDE8F04301F05CBB47
:101080000D222946204603B0BDE8F043FFF7B0BF6C
:1010900003B0BDE8F08370B50446002694F8D2583A
:1010A00094F8D338AB4238D005F50D7504EB8502C2
:1010B0001379D90616D404EB85052B796FF3041345
:1010C0002B7194F8D2380133DBB20F2B84F8D2386D
:1010D000E4D194F8D33884F8D2680E2B1AD90F3B98
:1010E000DBB2FAE703F00F01526803F06003402B14
:1010F00041F08001C2F3D71205D12046FFF778FFF7
:101100000028D8D070BDB3FA83F35B092046FFF7FF
:1011100089FFF5E784F8D338C0E70020F2E7000044
:101120002DE9F74FD0E92E23134304464BD0B830B6
:1011300001F04FFB2C4F804600254FF0010AEBB227
:10114000434540D2D4E92E30C5F12001A5F120025B
:10115000EB4000FA01F10B4320FA02F2134313F0C3
:10116000010FC5F12009A5F1200602D10C37013588
:10117000E5E73A686ABBD7F804B0BBF1770F06D150
:10118000206802F057FF082898BF00F1700B5A46FC
:1011900080212046FFF72CFFA8B9D4E92E120AFAC5
:1011A00006F62AFA09F90AFA05F321EA030346EAE0
:1011B0000906009322EA06030193DDE90023C4E94E
:1011C0002E231343D2D1012384F82C3903B0BDE878
:1011D000F08F94F82C39002BDFD00123802120469A
:1011E000FFF720FFD8E700BFA0F20000014B18680E
:1011F000FFF796BFB014002090F8983010B5044661
:1012000033B1D0F8CC308B4204BF002380F8983043
:101210002046FFF740FFD8B994F8D01099B10123C8
:101220000C222046FFF7FEFE90B994F8C83084F8EF
:10123000D000042B07D0201DFFF7D6FB0123C4F8F4
:10124000CC0084F898302046BDE81040FFF768BF16
:1012500010BDFFF7D1BFF8B500F150050446284690
:10126000069EBDF81C7001F084FA50B9206D3A4614
:101270003146FFF7CDFC20B92846BDE8F84001F023
:101280005BBAF8BD2DE9F04F042B87B004460D463C
:10129000174602D0052B18D0FEE7114604A801F02E
:1012A00049F8DDE904864FF0070906F0010BB8F1B3
:1012B000000F13D1BBF1000F10D10D22294620469B
:1012C000FFF792FE07B0BDE8F08F114604A801F0C9
:1012D0003DF84FF00809DDE90486E6E704F1800AED
:1012E000504601F01EF90DF10A0203A9504601F023
:1012F000F8F8504601F01CF9002384F8143904EB87
:1013000066007310BBF1000F02D0E35853F8088059
:10131000C047012384F81439064618B1FFF7E9FCE9
:101320000246CBE7BDF80A300193039B00934A467F
:101330003B4629462046FFF78EFF0028C2D03246A2
:10134000BCE708B50022FFF74FFE08BD38B50446DC
:10135000006801F02DFB722280212046FFF748FE35
:10136000054648B104F1B8007722002101F034FAB3
:1013700004F1AC0001F07EFC024B00221A6028460A
:1013800038BD00BFB014002010B50446006801F05D
:1013900018FB0146206DBDE81040FFF726BC10B5D4
:1013A0000446006801F0A4FB0146206DBDE8104032
:1013B000FFF71BBC37B50023054601A98030019318
:1013C00001F06AF8044688B99DF80410286801F015
:1013D00091FB044650B9286801F0F3FA30B195F852
:1013E00012391BB1286801F011FB0446204603B0F6
:1013F00030BD10B50446006801F0ECFA002818BFB3
:101400000221206D08BF0021BDE81040FFF7EDBBB1
:1014100013B5002304460DF1070180308DF8073025
:1014200000F0B8FF58B99DF8073023B1013B012BFC
:1014300007D9072003E00146206801F0D1FA02B085
:1014400010BD0121F8E710B5044654F8500B01F027
:1014500054FB01462046BDE8104001F076B813B5B4
:1014600004460DF10601803000F0C2FF20B9BDF83E
:101470000610206801F043FB02B010BD10B5044611
:10148000006801F03FFB08220146206DBDE81040D6
:10149000FFF7BEBB13B50822044601A9803001F056
:1014A00012F818B90199206801F02EFB02B010BDA6
:1014B00010B5044654F8500B01F029FB01462046B4
:1014C000BDE8104001F041B890F81219006DFFF727
:1014D0008CBB37B5002305460DF1070180308DF830
:1014E000073000F067FF044670B9286801F069FA18
:1014F00030B19DF8073028684BB101F087FA0446F7
:101500009DF8073085F81239204603B030BD01F050
:1015100073FAF4E7F8B505460E460024012707FAEA
:1015200004F33342E1B204D10134202CF7D100207E
:1015300004E0286DFFF759FB0028F5D0F8BD002323
:10154000F7B505460C460B6000F180070126B5F89B
:101550008620B5F888309A420FD00DF10701384641
:1015600000F018FF50B99DF807301F2B08D82268EB
:1015700006FA03F313432360E9E7002003B0F0BD4C
:101580000720FBE7D0F8A010FFF7C4BF13B5002376
:1015900001A904460193FFF7D2FF10B9019BC4F8DB
:1015A000A03002B010BDB0F8A410503000F0CDBF94
:1015B00000F1A401803000F01BBF10B504460068A4
:1015C00001F0FFF9014628B194F9173901330CBF36
:1015D00000210221206DBDE81040FFF706BB00008E
:1015E00037B5002305460DF1070180308DF807302F
:1015F00000F0D0FE044608BB9DF80730F3B1022B83
:101600001FD1286801F0DDF9C0B195F91739013310
:1016100019D1D5F8A030C3B15A1E1A4015D15B08B4
:10162000D1B2104602F10102F9D185F81709084B31
:10163000B5F8A420286801F0F4F90446204603B068
:1016400030BD0C24FAE70D24F8E70724F6E700BFC5
:10165000311F000013B5044601A9803000F01CFFC3
:1016600028B90199012204F1B80001F0EBF802B0A9
:1016700010BD13B5044601A9803000F00DFF28B954
:101680000246019904F1B80001F0DCF802B010BD87
:10169000D0F89C10503000F0B4BF10B500F15004E9
:1016A0000421204600F0ADFF28B920460321BDE803
:1016B000104000F0A6BF10BD0321503000F0A1BFC4
:1016C0000021503000F09DBF10B500F150040521FD
:1016D000204600F096FFD0B90C21204600F091FF83
:1016E000A8B91821204600F08CFF80B9222120469D
:1016F00000F087FF58B940F20121204600F081FF39
:1017000028B920464021BDE8104000F07ABF10BD46
:1017100010B5044601F04EF9014604F15000BDE851
:10172000104000F0ABBF006D0121FFF75EBA006D05
:101730000021FFF75ABA006D0421FFF756BA0C20BA
:10174000704713B504466946006801F0E2F9206D60
:1017500008226946FFF75CFA02B010BD0221503042
:1017600001F025B890F8C810006DFFF73EBA0000F0
:1017700073B504460E4680300DF1070100F00AFEF5
:1017800080BB9DF80730022B23D002D9DA1E012A34
:1017900021D884F8C830002384F8D0300C220123EB
:1017A00031462046FFF73EFC94F8C830042B05462E
:1017B00008D090B9201DFFF717F9C4F8CC00012319
:1017C00084F8983015B184F8D0600025284602B01E
:1017D00070BD0123DDE70323DBE7074B1B68C4F87B
:1017E000CC30ECE7FFF785FA314602462046FFF79A
:1017F000FFFB0546EAE700BF70EF00000C2A10B5BA
:101800001C4603D0712A06D0002010BDFFF7B0FFA0
:1018100020700120F9E700F0D1FCF9E7F0B585B0C0
:1018200004460D4602A81146002716468DF807709B
:1018300000F074FDDDE9023000F0010273B96AB90D
:101840000DF10703324629462046FFF7D7FFF8B9C6
:101850000D2229462046FFF7C7FB17E0411084F808
:10186000147904EB60000AB16258D35898470122FA
:101870008DF8070084F8142918B1FFF73AFA0246E8
:10188000E7E7334629462046FFF750FB8DF807006F
:101890009DF8070005B0F0BD73B5002304460D4662
:1018A000803001A91646019300F0F6FD024640B1D2
:1018B000FFF71FFA294602462046FFF795FB02462E
:1018C00004E0032E15D004D8022E0CD0104602B02E
:1018D00070BD331F012BF9D8019A334629462046A3
:1018E000FFF7D0FCEBE7019B29462046FFF71EFBE4
:1018F000E5E7019A29462046FFF790FFDFE737B575
:1019000004460D46803001A900F0C6FD80B9019A59
:10191000012A0FD008D9931E032B10D9052229467E
:101920002046FFF761FB03E029462046FFF709FD4B
:1019300003B030BD29462046FFF708FDF8E72946E9
:101940002046FFF7A9FFF3E730B5012385B080F803
:10195000143904460025803001908DF80F5000F0B6
:101960000EFD0423019884F8C83084F898500DF1D6
:101970000F0100F00FFD90B99DF90F309DF80F1089
:10198000AB420CDAD4F8203911F0300F03F1010327
:10199000C4F8203908D006222046FFF729FB00238F
:1019A00084F8143905B030BD2046FFF7A8FF38B1E0
:1019B0009DF80F10FFF79DF902462046FFF714FB34
:1019C00094F8D32894F8D2389A4202D02046FFF7F0
:1019D00062FB9DF80F3094F8D12803F00F0332B169
:1019E0009A421EBFD4F824290132C4F824290F2BAF
:1019F00014BF0133012384F8D138D0E710B5044671
:101A0000006802F05DFCC1B2206DBDE81040FFF738
:101A1000ECB810B50446006802F0BCFEC1B2206DFF
:101A2000BDE81040FFF7E1B810B50446006801F0CA
:101A30005FF80146B0B10A280CD84FF4FA60414370
:101A400001F55C2101F5346104F15000BDE810405E
:101A500000F08ABD192807D8044841F2883303FBF7
:101A60000101F1E70249EFE70021EDE7B0DB2300D8
:101A7000CC3F0D0013B504460DF10701006802F0DC
:101A800097FC30B99DF80710206DFFF7AEF802B053
:101A900010BDFFF72EF9014604F1500000F087FE5B
:101AA000F5E713B5002304460DF1070180308DF8EA
:101AB000073000F091FC20B99DF90710206802F072
:101AC0008BFC02B010BD13B504460DF10701006890
:101AD00002F064FC30B99DF80710206DFFF785F81F
:101AE00002B010BDFFF705F9014604F1500000F007
:101AF0005EFEF5E713B5002304460DF107018030C3
:101B00008DF8073000F068FC20B99DF907102068B7
:101B100002F082FE02B010BD13B504460DF10701BC
:101B2000006802F077FC30B99DF80710206DFFF7D0
:101B30005CF802B010BDFFF7DCF8014604F150007C
:101B400000F035FEF5E713B5002304460DF107015B
:101B500080308DF8073000F03FFC20B99DF9071068
:101B6000206802F061FC02B010BD37B500F18005BD
:101B700004460DF10601284600F00CFC60B90DF199
:101B80000701284600F028FC30B99DF907209DF890
:101B90000610206802F052FE03B030BD13B50446B3
:101BA0000DF1060154F8500B02F060FE30B9BDF89B
:101BB0000610204600F0C9FC02B010BDFFF799F8EE
:101BC0000146204600F0F3FDF6E713B504460DF19B
:101BD0000601803000F00CFC20B9BDF8061020682A
:101BE00002F050FE02B010BDFEE7FEE710B504465D
:101BF00000F091FFFFF790F90146206DBDE810401D
:101C0000FEF7F3BFF7B5002300220546CDE9002318
:101C100001F0CDFF6946044605F1800000F014FC98
:101C200070B9DDE9006723460024A74208BF9E4241
:101C300008D3F21A67EB0403C5F83029C5F8343924
:101C400003B0F0BD0720FBE700F51363D3E90023E1
:101C5000503000F0A4BC10B50446006801F0FEFB53
:101C600001462046BDE81040FFF754BC10B50446BD
:101C7000006801F0F7FB01462046BDE81040FFF781
:101C800049BC00001346074A10B4146834B10A4630
:101C9000014620465DF8044BFFF700B90D205DF8C2
:101CA000044B7047B01400200321503000F0A9BC51
:101CB000F8B50646174600F150050C4649B142B941
:101CC0008A880968284600F0C7FC002875D00120E2
:101CD000F8BD0021284600F038FC0028F7D1002C80
:101CE0006BD12146306DC9B2FEF77FFF0028EED1DF
:101CF000306D8021FEF779FF0028E8D1002C5FD0FD
:101D0000E37D13F0010F0CBF002110219B0701D5CB
:101D100041F02001284600F018FC0028D7D12846C1
:101D200000F0C6FC01460028D1D104B1A179306D84
:101D3000FEF75BFF01460028C9D104B1A17D306DDB
:101D4000FEF753FF0028C2D1002C3BD0D4E9022378
:101D5000284600F024FC0028B9D1284600F0C7FC32
:101D60000028B4D1284600F0A3FC0028AFD13946A2
:101D7000284600F046FC0028A9D1284600F0B7FC10
:101D80000028A4D1284600F093FC014600289ED1EB
:101D900004B1217D306DFEF728FF002897D1A4B152
:101DA0002169284600F0E0FB002890D1284600F089
:101DB0009EFC003818BF01208AE794F9151091E7BE
:101DC0002146A7E700220023C2E72146E9E7F8B54C
:101DD00000F1500704460D46164671230622802165
:101DE000384600F0C6FC50B9324629462046FFF777
:101DF0005FFF20B93846BDE8F84000F09DBCF8BD53
:101E0000014B1868FFF7E3BFB01400202DE9F7433A
:101E10000E4690F81619044615461F4681B341F048
:101E2000800122B3136893F80090C9F300190023CE
:101E300004F1500884F816390622404600F099FC57
:101E4000F0B93846FEF755FF0146404600F0D9FB91
:101E5000B0B9206D4946FEF7C8FE88B94FB1336866
:101E60001B781B070FD4404600F066FC08E0914643
:101E7000DDE73A4629462046FFF71AFF0028EED054
:101E800003B0BDE8F0830DF10301304601F032F8F4
:101E90000028F5D101A9304601F01CF80028EFD147
:101EA0009DF80310206DFEF7A0FE0028E8D10199EF
:101EB000404600F059FB0028D5D0E1E70148006812
:101EC000FFF7A4BFB0140020F8B5FF23054690F932
:101ED000177980F81739044655F8500B0E4600F074
:101EE00095FD392306228021284600F042FCF0B9F6
:101EF000206DF9B2FEF779FEC8B9206DF1B2FEF798
:101F000074FEA0B9284600F017FC80B98021302368
:101F10000622284600F02DFC014640B9206DFEF750
:101F200064FE20B92846BDE8F84000F005BCF8BDC5
:101F3000014B1868FFF7C8BFB014002010B5044665
:101F400054F8500B00F06AFD01462046BDE81040F1
:101F500000F057BB90F81819006DFEF746BE10B59B
:101F6000044654F8500B00F0C1FD02460B462046D3
:101F7000BDE8104000F013BB10B500F61811044680
:101F8000803000F017FA30B994F818192068BDE8CD
:101F9000104000F049BD10BD73B50446006800F064
:101FA00087FD0546B8B904F18006B4F88830B4F866
:101FB00086209B1A9BB2012B0DD90DF106013046EC
:101FC00000F016FA30B9BDF80610206800F038FDB0
:101FD0000028EAD00546284602B070BD73B5044615
:101FE000006800F071FD0546B0B904F18006B4F850
:101FF0008830B4F886209B1A9BB2072B0CD9082294
:1020000001A9304600F05FFA28B90199206800F074
:1020100021FD0028EBD00546284602B070BD13B55F
:1020200004460DF10601803000F0E2F920B9BDF858
:102030000610206800F020FD02B010BD13B5082284
:10204000044601A9803000F03EFA18B901992068D1
:1020500000F01CFD02B010BD13B504460DF10601E1
:10206000803000F0C5F920B9BDF80610206800F0F6
:10207000E7FC02B010BD13B500230446082201A9F5
:102080008030019300F01FFA18B90199206800F020
:10209000E1FC02B010BD000013B500230DF10701F3
:1020A000044680308DF8073000F084F9014630B9DD
:1020B0009DF8073020682BB900F080FC01460846E7
:1020C00002B010BD0049F7E7011E000013B5044639
:1020D0000DF10601803000F08BF920B9BDF8061033
:1020E000206800F073FC02B010BD7FB500F18006DF
:1020F0000C460DF10A0203A9304600F0FDF9054631
:10210000002856D1BDF80A207F2A55D825460399C4
:1021100055F8060BA2800BF067FB2946304600F00D
:1021200039F90546002844D14FF441732383A37E37
:1021300023F00B0343F00203C4E90400A37604F187
:102140001801304600F026F998BB04F11901304619
:1021500000F020F968BB0DF10701304600F02AF9C4
:1021600038BB02A9304600F025F910BB0DF109017A
:10217000304600F01FF9E0B904F11001304600F0DC
:102180004BF9B0B904F11401304600F045F980B9BB
:102190009DF807209DF8083043EA42039DF8092086
:1021A00043EAC203A27E03F00B0322F00B021343A7
:1021B000A376284604B070BD0625FAE738B5044674
:1021C00000680D4600F0FDFBE8B1206800F021FC3E
:1021D0000146D0B12046FFF788FF034648B905F015
:1021E0000F0384F816390A49206800F014FC0346EE
:1021F00068B11846FEF77DFD294602462046BDE837
:102200003840FEF7F5BE0D23F3E70323F1E738BDB1
:10221000BD1E000030B500F1800487B0054602A95C
:10222000204600F0B7F820B99DF80830082B02D0FE
:10223000072007B030BD0DF10901204600F0AAF8D3
:102240000028F6D10DF10A0203A9204600F054F946
:102250000028EED1BDF80A30102BE9D10DF10A02A9
:1022600004A9204600F048F90028E2D1BDF80A3060
:10227000102BDDD10DF10A0205A9204600F03CF932
:102280000028D6D1BDF80A30102BD1D1059B01937F
:10229000049B00939DF80920039B9DF80810286873
:1022A00000F01EFCC5E713B5044601A9803000F01C
:1022B000B3F818B90199206800F015FC02B010BD00
:1022C000F0B5013A044600260C20B2420AD995190D
:1022D0006D0800FB05F7CF599F4201D26E1CF4E751
:1022E0002A46F2E700FB06F288188A5893420BBF91
:1022F000D0E901010023C4E90001C4E9003320460C
:10230000F0BD000010B50B46044603492722FFF735
:10231000D7FF204610BD00BF7CEF000010B50B4674
:10232000044603491622FFF7CBFF204610BD00BF2D
:1023300050F1000010B50B46044603490322FFF795
:10234000BFFF204610BD00BF58F2000010B50B467D
:10235000044603490322FFF7B3FF204610BD00BF28
:102360007CF200000022C0E90022C0E9022270478E
:10237000838803810022C280827283817047002992
:1023800008BF002210B501608280FFF7F1FF83884B
:10239000838110BDC388028910B55C1C94429FBF25
:1023A0000268D35C0B70C3889BBF0133C3800620D7
:1023B000002010BD13B50C460DF10701FFF7EAFF31
:1023C00018B99DF8073013B9207002B010BD012B69
:1023D0000CBF23700620F8E713B50C460DF107017A
:1023E000FFF7D8FF10B99DF80730237002B010BD79
:1023F000C288038930B5941C9C420BD80468A3188A
:102400005D78A35C43EA05230B80C3880233C38055
:10241000002030BD0620FCE7F0B5C4880389251DE7
:102420009D420FD806683219345D93785778D27878
:102430001B0443EA0723234343EA02630B60C5807E
:102440000020F0BD0620FCE7B0F806C00389F0B517
:102450000CF108049C421DD8D0F800E00EEB0C05EE
:10246000AA786E782B79120442EA06221EF80C60D4
:102470003243EE7842EA06626E7943EA0623AE7989
:1024800043EA0643EE7943EA0663C1E90023C480C8
:102490000020F0BD0620FCE737B5C38804460D4692
:1024A00001890068C91A184401AA00F037FA002807
:1024B000C1BFE388C018019BE080D2BF0620002086
:1024C0002B6003B030BD10B5C488038922449A4202
:1024D000DDBF03681B190B600620DCBFC280002033
:1024E00010BD10B40389C4881B1B9BB213805DF818
:1024F000044B1A46FFF7E7BF73B50E460DF1060110
:1025000005461446FFF774FF48B9BDF8062031466A
:102510002846FFF7D8FF10B9BDF80630238002B077
:1025200070BDC38883810389C381837AC372704776
:10253000838982889A4281BFC380C3890381C37A19
:1025400086BF837200200D20704738B504460D46C3
:102550000068C9B2FEF749FB28B92068290ABDE81E
:102560003840FEF742BB38BD38B504460D4600681A
:10257000C9B2FEF73AFB88B92068C5F30721FEF718
:1025800034FB58B92068C5F30741FEF72EFB28B984
:102590002068290EBDE83840FEF727BB38BD70B56E
:1025A000D1B20446006816461D46FEF71EFB38BB36
:1025B0002068C6F30721FEF718FB08BB2068C6F3A6
:1025C0000741FEF712FBD8B92068310EFEF70DFB6C
:1025D000B0B92068E9B2FEF708FB88B92068C5F3F6
:1025E0000721FEF702FB58B92068C5F30741FEF743
:1025F000FCFA28B92068290EBDE87040FEF7F5BA4C
:1026000070BD13B50A4604460621684600F0B3F9CA
:10261000694682B22068FEF7FBFA02B010BD70B5C1
:1026200004460D4611F00F0118BF002300680EBFCD
:1026300084F82410012184F824301646FEF702FBAA
:1026400020682946FEF7D1FA28B931462046BDE870
:102650007040FFF7D6BF70BD37B50D461146044632
:102660000192FFF772FF38B9019A2068294603B03A
:10267000BDE83040FEF7CCBA03B030BD13B5044618
:10268000084601910BF0F2FC4FF6FF72824228BF20
:1026900002460199206892B2FEF7BAFA014628B9BB
:1026A000206802B0BDE81040FEF79FBA02B010BD2E
:1026B00010B590F824100329044616D800EBC10188
:1026C00004310068FEF781FA70B901462068FEF710
:1026D0008CFA48B901462068FEF787FA20B994F8C9
:1026E0002430013384F8243010BD0D20FCE773B58D
:1026F00090F82410044611B90D2002B070BD0139C4
:10270000C9B20825042680F8241015FB0161014494
:102710000068FEF708F90128EED994F82410023871
:1027200015FB0161ADF80400022320680DEB0602E1
:102730002144FEF7C5F8E0E710B5044694F82430CC
:102740002BB12046FFF7D3FF0028F7D010BD20683B
:10275000BDE81040FEF72EB910B500F1280104467F
:102760000068FEF732FA18B994F8243084F825305E
:1027700010BD38B504461D46FFF751FF48B9204645
:10278000FFF7EAFF28B929462046BDE83840FFF7A1
:1027900038BF38BD10B500F1280104460068FEF7C7
:1027A000E8F818B994F8253084F8243010BD38B50D
:1027B00004460D46FFF7EEFF50B901462046FFF7ED
:1027C00020FF28B929462046BDE83840FFF719BF49
:1027D00038BD1F207047000030B5194C0023256814
:1027E0008D4225D16568954222D1D0E90225C3F1F9
:1027F000200405FA04F4A3F12001DA40224325FA6B
:1028000001F10A4312F0010FC3F12004A3F12002E9
:102810000DD1012101FA02F221FA04F4224301FA56
:1028200003F3D0E900140B432243C0E9003230BD6A
:102830000133DBB21F2B04F10C04D0D1F7E700BF4A
:10284000A0F200002DE9F04F0023214C93461F46D3
:10285000012694F814C05D1CBCF1000F26D0E2687C
:102860008A4223D11F3BC5F1200E26FA0EFE06FA3E
:1028700003F343EA0E0306FA05FAD0E902796FEA98
:102880000A086FEA030EBBF1000F18D04AEA0707E7
:1028900043EA0903C0E90273D0E9003703EA0803F9
:1028A00007EA0E07C0E9003731B967461E2D2B46EF
:1028B00004F10C04CDD14FB10020BDE8F08F08EA3F
:1028C00007070EEA0903C0E90273EDE70720F4E702
:1028D000A0F2000030B5104B00220132D2B21F2A04
:1028E00003F10C0301D1002015E01C7A002CF4D078
:1028F0001C688C42F1D1D0E90235C2F12004A2F16A
:10290000200123FA02F005FA04F4204325FA01F12C
:10291000084300F0010030BDA0F200000023F0B534
:10292000054618468842C0EBC0070DD005280BD0DD
:102930002E5C06F07F04BC402343340600F1010006
:10294000F0D402B11360F0BD4FF0FF30FBE77F28F9
:102950000BD9B0F5804F0AD3B0F5001F09D3B0F101
:10296000805F34BF0420052070470120704702209B
:1029700070470320704738B504461046FFF7E7FF5D
:1029800081420CDA38BD63F07F036354D209013110
:102990008D42D3B2F7D103F07F036355F2E70021F4
:1029A000451EF5E700F0DAB80120704700F0ECB8FA
:1029B00000F0E8B80048704714F40000143000F04C
:1029C00084B98069003818BF01207047143000F0C6
:1029D000A8B90000014801F085BC00BFB814002070
:1029E00008B5836923B1034801F07EFC002008BDCF
:1029F0000D20FCE7B8140020836913B1024801F0F0
:102A000021BC0D20704700BFB8140020143000F026
:102A100092B9806B7047143000F0A4B9243000F0F4
:102A2000D5BA143000F0B8B908B5836923B10348AA
:102A300001F05DFC002008BD0D20FCE7B81400206B
:102A4000836913B1024801F055BC0D20704700BFE7
:102A5000B8140020836907B553B16846012200F01D
:102A60005DFA0448694601F053FC03B05DF804FBCD
:102A70000D20FAE7B8140020836913B1024801F071
:102A800051BC0D20704700BFB8140020836907B502
:102A900053B16846012200F041FA0448694601F04A
:102AA0004FFC03B05DF804FB0D20FAE7B8140020DA
:102AB00008B5836923B1034801F04CFC002008BD30
:102AC0000D20FCE7B814002008B5836923B1034842
:102AD00001F043FC002008BD0D20FCE7B8140020E5
:102AE000143000F075B9143000F081B901F068B904
:102AF000007D7047143000F003B9C08A704714306D
:102B000000F0F1B82A307047143000F000B9008DA1
:102B1000704701F0E9BA0120704710B50446FFF78D
:102B200043FF20B1201DBDE8104000F0ADB810BD3E
:102B300038B504460025043000F08AF8C4E902558F
:102B400004F1100000F046F8214604F1140000F0F2
:102B5000ACF884F88C50204638BD000010B5064C07
:102B600094F88C302BB92046FFF7E2FF012384F85C
:102B70008C30014810BD00BFB814002000487047D9
:102B8000B814002001F036BA90F88C3010B5044625
:102B90005BB1002380F88C30243000F051FA04F14E
:102BA0001000BDE8104000F001B810BD034A1388C2
:102BB00003B9FEE7013B1380704700BF48150020B2
:102BC00031B16FF00043994208BF012101607047A5
:102BD0000121FBE737B50D4C23884FF6FF72934276
:102BE000054600D1FEE753B904210DEB010001F0C9
:102BF00097F900B1FEE701990548FFF7E1FF238847
:102C000028460133238003B030BD00BF48150020A3
:102C10004C150020026848F24E33A2FB032313EB4D
:102C2000520244BF22F00042013202601046704757
:102C3000034B1B8803B9FEE70248FFF7EBBF00BF59
:102C4000481500204C1500200260002242607047A9
:102C50000022026070470000036823B90160044845
:102C60004960FDF72BBB5A684A60596001607047A4
:102C7000B81400204368014613B90248FFF7ECBFBF
:102C8000704700BFBC14002038B5002504680560FB
:102C900054B1606884421CBF436863600368456048
:102CA00008BF00249847F3E738BD10B50B23037025
:102CB0004FF6FF7343800023C0E901330446C3602D
:102CC000103000F03FF9204610BD38B504460D46DF
:102CD000103019B100F09EF910B138BD00F0B0F914
:102CE00065600020F9E738B5436804460D462BB10E
:102CF000103000F06FF96580002038BD0D20FCE732
:102D0000436813B10170002070470D20704708B56B
:102D1000436823B1103000F069F9002008BD0D2090
:102D2000FCE708B5436823B1103000F059F90020E2
:102D300008BD0D20FCE743681BB110F8101B00F024
:102D400093B90D207047000010B444682CB122B92B
:102D5000234603485DF8044B18475DF8044B704761
:102D6000B814002038B5436804460D462BB1103026
:102D700000F0C1F900B9A56038BD0D20FCE70000E6
:102D800038B5856804461DB10248A8470023A360F2
:102D900038BD00BFB814002038B51D46436804464E
:102DA0002BB1103000F0B6F900B9E56038BD0D2048
:102DB000FCE70000436810B504462BB1C3681BB1A3
:102DC000024898470023E36010BD00BFB8140020FC
:102DD00013B544684CB1059C0194049C00941030D8
:102DE00000F0EAF9002002B010BD0D20FBE708B5A5
:102DF000436823B1103000F0DFFA002008BD0D2039
:102E0000FCE7036858781B7843EA0020704710F409
:102E100040431ABF80F04000C0F38010184670474E
:102E2000102804D0182814BF002008207047042060
:102E3000704708B510F44063014619D0B3F5406FF0
:102E400018D0B3F5006F1CD107220846FFF7DFFF4B
:102E500008B10232D2B201F44041B1F5004F0BD0BB
:102E6000B1F5404F0BD0002918BFFF22104608BD16
:102E70000322EAE70D22E8E70232D2B2F6E708328F
:102E8000FBE7FF22F2E708B58388042B05D9FFF79B
:102E9000B8FFBDE80840FFF7CCBFFF2008BD82881F
:102EA000022A05D903681B781B0701D5FFF7EBBF82
:102EB000FF20704738B505460C46FFF7F0FFFF28A6
:102EC0001FBF2B681B5C03F01803237014BF002086
:102ED000062038BD38B505460C46FFF7E0FFFF2851
:102EE0001FBF431C2A68DBB200201ABFD3582360DF
:102EF000062038BD38B505460C46FFF7D0FFFF2841
:102F0000024609D02B68185C00F01800FFF788FF14
:102F1000134403445B792370002038BD12B1012AA9
:102F200005D070470B6803604B684360704701F140
:102F30000803013813F8012D00F8012F8B42F9D155
:102F40007047000073B51F4E01910446304601F0F2
:102F5000C7F94FF6FE730025A38047F60173E3819E
:102F60002070657065802561304601F0A5F90199F2
:102F7000606104F1180000F025FA134B6565C4E99F
:102F8000173504F15C0363662946C4E9075584F8E4
:102F90005850C4F80650C4F80A50102204F1240016
:102FA0000AF04AFC2946102204F134000AF044FCDD
:102FB0001022294604F144000AF03EFC204602B0EB
:102FC00070BD00BFB8140020A9330000007840F0A5
:102FD00004007047014801F097B800BFB814002002
:102FE0008180014800F00CBAC914002007B50A68B6
:102FF000C0F806204A68C0F80A2001226846FFF798
:103000008DFF0348694600F0F5F903B05DF804FB55
:10301000C9140020437810B5044663B9074801F08D
:10302000F1F850B9054801F00DF930B96378012B7A
:1030300001D001236370002010BDFEE7B81400200A
:1030400010B504465C3000F0CDFA064801F0FAF8FD
:1030500030B9044801F0E0F810B9637803B160704A
:1030600010BD00BFB814002010B50446044801F09C
:10307000B9FB20B96378022B1CBF0223637010BD1B
:10308000B81400204378032B10B5044626D10378EA
:10309000DB0618D504236370E3691BB1226A6069FB
:1030A0000121984761690E4800F0B0F90D2808D158
:1030B00061690B6933B10023C1E90433084800F0AA
:1030C000A5F958B1FEE743690648997901F08AFBF2
:1030D00000B1FEE76378042BDED0DBE710BD00BF54
:1030E000C9140020B81400204378032B1CBF03230D
:1030F0004370FFF7C7BF427810B542B1033A022AC6
:1031000005D900244480FFF7EFFF204610BD0D20B5
:10311000FCE77047437810B504467BB1033B022BB4
:103120000CD903789B070BD5064801F019F9637891
:10313000052B01D005236370002000E00D2010BD99
:103140000C20FCE7B81400204378022B1CBF02239C
:103150004370183000F046B910B503789B07044659
:1031600000D5FEE7104801F0ABF87F2806D094F9AF
:103170000F307F2B01D0834200DAE07300F017FD9F
:103180002369C01A002808DA216E04F15C004FF4AC
:10319000FA32BDE8104000F01FBA94F90F10204633
:1031A000BDE81040FFF7D0BFB8140020007880F0D1
:1031B0000400C0F3800070472DE9F0430829DDE9E1
:1031C00007CE04460D4603D011F0EF0F28D0FEE7DE
:1031D00080F858201E4600F1240803F110093068D9
:1031E0007168474603C708364E45B846F7D166466C
:1031F00004F134080CF1100930687168474603C7C0
:1032000008364E45B846F7D1764644340EF11008DC
:1032100030687168274603C7083646453C46F7D1F3
:10322000CDE907CE29460248BDE8F04300F01EB9BB
:10323000B81400204165183000F0DAB8C36970B5E1
:1032400005460C4616466BB171B11AB9026A314691
:1032500020469847E37D9B0706D521692846FFF75E
:10326000E9FF01E00029F5D13246214605F11800B9
:10327000BDE8704000F0A8B837B50B681B781B0795
:1032800005460C4614D50DF103012046FFF712FE4A
:1032900000B1FEE79DF80330082B09D101A92046B3
:1032A000FFF718FE00B1FEE701992846FFF7C2FFBD
:1032B00003B030BD2DE9FF411E4604465C300D468B
:1032C000904600F08FF90E2E3BD004D8002E38D057
:1032D0000B2E0BD0FEE70F2EFCD10021AB7E9B07FF
:1032E00004D5AA7904F1180000F074F829462046A4
:1032F000FFF7C2FF0023A370E37826B32046FFF751
:1033000055FF074620B16F7E9F4294BF00270127DB
:1033100004F11800CDE900374246334629460390B0
:1033200000F059F8039887B1E3780133E370AB7E7E
:10333000204643F00103AB7604B0BDE8F041FFF74F
:10334000D3BE0121CAE73746E2E76378022B1CBFF0
:103350000223637042463346294604B0BDE8F0417B
:1033600000F03AB84378042B10B5044607D0052B7B
:1033700012D0032B14D1BDE81040FFF783BE436980
:103380000848997901F02EFA616920460E23BDE8BC
:1033900010400022FFF78EBFBDE81040FFF7DCBEF3
:1033A00010BD00BFB814002008B5FFF7E7FBBDE86B
:1033B00008402430FFF7D6BF4165014800F057B8F8
:1033C000B8140020704700000148FFF7BDBC00BFE3
:1033D000CC140020704770470148FFF7D1BC00BFF4
:1033E000CC1400200148FFF7E5BC00BFCC1400203E
:1033F00070470000014800F090BE00BFB8140020E4
:10340000014800F08DBE00BFB8140020014800F054
:1034100029BF00BFB814002090F88C3013B11230CF
:1034200000F0FAB8704790F88C3013B1123000F009
:10343000F9B8704710B490F88C4024B15DF8044B93
:10344000123000F0F5B85DF8044B704790F88C30FE
:1034500013B1123000F0F2B8704700000048704716
:1034600000F8FF0708B5FFF7F9FF08BD7047704780
:103470004368496810B59C1A8A1AD20FB2EBD47F00
:1034800008BF5B1A4FEAD47008BFD80F10BD000008
:1034900070B505680C4625B9BDE870404B68084812
:1034A00018478B6898476A68831A002B014623687F
:1034B000B8BF121ABDE870400148A8BF00221847E3
:1034C000B814002038B50C461146A2689442034651
:1034D00006D00568AC4204D10260FFF7D9FFA460B2
:1034E00038BD2A460021002AF9D0944208D011465E
:1034F0009268F8E78B68002BF1D09B688B60EEE751
:103500000029F7D1002DEAD0AA681A60E7E72DE973
:10351000F047936805460C46164698473246814662
:1035200021462846FFF7CEFFD5F800A04FF000084F
:10353000574647B14A4639462046FFF799FF10B92A
:10354000B846BF68F5E7B8F1000F08D1C4F808A085
:1035500031462C602846BDE8F047FFF799BFD8F800
:103560000830A360C8F80840BDE8F08770B5066869
:1035700004460D467EB18B6898477368C01A0028D0
:1035800009DB20462A463146FFF79CFF3368304668
:10359000BDE87040184729462046BDE87040FFF757
:1035A00077BF000010B50446FFF7FEF930B104F113
:1035B00008000349BDE81040FFF7D8BF10BD00BFA9
:1035C0006CF400004160024A01460248FFF79FBFC9
:1035D00060F40000C4140020002A00DAFEE7114461
:1035E000FFF7F0BF0146024A0248FFF76BBF00BF7A
:1035F00060F40000C414002010B50446FFF7D4F9AD
:1036000030B104F10C000349BDE81040FFF7AEBF34
:1036100010BD00BF60F400000148FFF70FBE00BFFF
:10362000DC1400200148FFF774BD00BFDC1400204B
:103630000148FFF73FBE00BFDC1400200148FFF740
:1036400083BD00BFDC1400202DE9F048204C460B60
:1036500046EAC1464D0BA6FB046704FB05774FEA1B
:10366000177C340F44EA071443F6095E4FEA4C26F0
:1036700046EAD4566702A4FB0E45021B0EFB0C550E
:1036800061EB050313480021994208BF904205D21F
:10369000114B124A124890210AF028F8114940F2C1
:1036A00031445443A2FB01BC01FB03444FF0FF3102
:1036B0001BEB0101A44447F6FF724CEB0202D00B56
:1036C000C0194FF0000146EB0101BDE8F08800BFD2
:1036D000D07B6308452C160078F40000F7F5000055
:1036E00086F400007B2DE8BD00F1402000F500309D
:1036F000002382B0036003680193019B02B070470E
:10370000264B37B519460120D3E84F2FD2B28DF89A
:1037100007209DF8072062B1BFF32F8F204B1A6856
:10372000204B12B91A68D20736D518680230400803
:1037300030E0C3E8420F002AE6D11B4B0222C3F857
:103740000823BFF35F8F03F58273164A1B684BB1E2
:10375000136801331360BFF35F8F4FF48270FFF77C
:10376000C3FF01231068104C022501304008C4F843
:103770000453BFF35F8F00240C705BB11368D9074B
:1037800005D40A4B0A4A0B48EA2109F0AFFF136837
:103790000133136003B030BD1868C8E7511500202D
:1037A0000441024054150020004002403FF5000053
:1037B00012F6000057F500002DE9F04106460C46D0
:1037C000FFF79EFF0546BFF35F8FDFF82080D8F834
:1037D0000475BFF35F8FFFF793FF3060854218BF1A
:1037E000D8F804752760BDE8F08100BF00400240B2
:1037F00008B5094B020103EB0010084B4168C3F800
:103800004813C168C3F808130089FFF76DFF044B24
:103810000021995408BD00BF28F600000040024076
:10382000601500202DE9F843314CDFF8CCC0174675
:1038300004EB071EDDE90832DEF80C60CCF8086303
:103840009842DEF80460CCF844634FEA07151E4640
:103850003ED9A0EB030CBCF1000F39DA003342F182
:10386000FF32944600260A184FF0000343F100038C
:1038700016EB02084CEB030937B94FF47A7303FBDC
:1038800009F2A8FB0389914440464946FFF7DCFE54
:1038900043F60953A0FB038903FB019940F2FF1390
:1038A00020F07F46002118EB030049EB0101C7B16E
:1038B000400A40EAC150490A0E4B0F4A2B44C3E963
:1038C0000201635903F5A87342F82360BDE8F88349
:1038D000B042C6D2361A002EC3DA003342F10102DA
:1038E000BFE74FF4FA22002309F084FDE4E700BFAC
:1038F00028F60000601500200040024073B506461F
:1039000001A96846FFF758FF019843F6095140F2B4
:10391000FF120023E1FB0023540A44EAC3545D0A6A
:10392000009A084BE3FB024546B9204629464FF46E
:103930007A72002309F05EFD04460D4620462946B2
:1039400002B070BD0080841EF8B51A4D05EB00135F
:103950000446060118890F46FFF7C6FE2046FFF70A
:10396000CDFF02460B463FB913493144D1E902016C
:103970008B4208BF82421CD33544104B6A68C3F89F
:103980004823022CEA68C3F808230AD0032C0CD081
:10399000094A012393550A4A1370BDE8F84000F024
:1039A000E0BFBDE8F84005F03FBEBDE8F84005F0D7
:1039B00025B9F8BD28F6000060150020004002403F
:1039C000501500202DE9FF410746884602A803A9AB
:1039D0001646FFF7F1FE039843F6095140F2FF1235
:1039E0000023E1FB0023540A44EAC3545D0A029A0F
:1039F000294BE3FB024546B9204629464FF47A722B
:103A0000002309F0F7FC04460D463246CDE9004597
:103A100041463846FFF706FF204B039AD3F804359A
:103A20009A4203D003A902A8FFF7C6FE039B43F600
:103A30000950991C40F2FF120023E0FB0123540AB5
:103A400044EAC3545D0A029A134BE3FB024546B9AC
:103A5000204629464FF47A72002309F0CBFC044635
:103A60000D460F4A02EB0612D2E902239D4208BF1F
:103A700094424FEA061107D301213046FFF764FF55
:103A800040BF04B0BDE8F081064B0B44DA68034B3D
:103A9000C3F80423F5E700BF0080841E0040024005
:103AA0006015002028F6000038B52A484022002181
:103AB00009F0C2FE284B00201860284B1870284BD4
:103AC00000240025C3E9004501F0A6F901F0E2F960
:103AD0000028FBD0234BC02283F824231022C3F8F4
:103AE00084215A60204A0023C2F808354FF48270BE
:103AF000FFF7FAFD0223C2F844334FF4A070C2F876
:103B00000433FFF7F1FD4FF48033C2F848334FF42C
:103B1000A270C2F80833FFF7E7FD4FF40033C2F894
:103B200048334FF4A470C2F80833FFF7DDFD4FF4BB
:103B30008023C2F848334FF4A670C2F80833FFF769
:103B4000D3FD4FF40023C2F84833C2F808330123F1
:103B5000136038BD60150020541500205115002059
:103B60005815002000E100E0004002402DE9F0413E
:103B700000260B4F0446B0460A4D87F800802B788C
:103B80001BB120462E70FFF70DFD2B7C1BB120468C
:103B90002E74FFF731FD3B78002BEDD1BDE8F081AD
:103BA00050150020601500200120FFF7A7BE08B5C2
:103BB000FFF7FAFF4FF47A72002309F01BFC08BDEF
:103BC000084611460022FFF7FDBE0020FFF710BE99
:103BD00008B5FFF7E9FF08BD084611460122FFF7C7
:103BE000F1BE0120FFF704BE70477047044B4FF44D
:103BF0008022C3F80823BFF34F8FBFF36F8F704746
:103C000000400240024B4FF48022C3F80423704767
:103C100000400240FFF7DCBF1F2070470222FFF781
:103C2000D1BE0220FFF7E4BD2DE9FF48154F164E27
:103C300040F2FF14002502A903A8FFF7BDFD029A78
:103C400043F6095320462946E3FB0201400A039B41
:103C500040EAC150490AE7FB03018C468346032230
:103C6000CDE900BC3E215846FFF7DCFD4FF40023B0
:103C7000C6F80433D6F80435029A9A42DBD104B070
:103C8000BDE8F0880080841E0040024037B504463D
:103C900003200D46FFF732FE0322CDE9000129463D
:103CA0002046FFF7BFFD034B4FF40022C3F8042367
:103CB00003B030BD004002400320FFF799BD000073
:103CC00008B5224B01221A604FF4A070FFF70CFDDB
:103CD0001F4A4FF48033C2F848334FF4A270C2F841
:103CE0000833FFF701FD4FF40033C2F848334FF4B7
:103CF000A470C2F80833FFF7F7FC4FF48023C2F832
:103D000048334FF4A670C2F80833FFF7EDFC4FF4C8
:103D10000023C2F84833C2F808330223C2F808333C
:103D20004FF48270C2F84833FFF7DEFCFFF7C4FFA0
:103D3000084B1022C3F88420C3F88421002283F8A2
:103D40002423BDE8084001F091B800BF04400240C0
:103D50000040024000E100E0004870474C41024052
:103D6000014B986B704700BF60150020114B1B681A
:103D700070B52BB1104B0222C3F80823FFF7C0FC2B
:103D80000E4D0D4E0024D6F80423EB681A420AD0DB
:103D90002B8903F1402303F500331B681BB100217D
:103DA000E0B2FFF7D1FD0134042C05F11005EAD192
:103DB00070BD00BF044102400040024028F60000F0
:103DC000FFF7F2BE064B00221A6082B01B68019317
:103DD000019B044B0122C3F804231A6002B0704710
:103DE00000D1004000D00040144B1A6813B51AB33C
:103DF000134AD2F80813C9071ED5002119601B68A1
:103E00000193019BD2F808450E4B0F4A19681068C0
:103E1000091A7F2906D81968481C186001F07F012B
:103E20000A4844541B6812689B1A7F2B81BF044ABE
:103E30000123C2F80833536002B010BD00D1004026
:103E400000D000402816002024160020A0150020D5
:103E500070B58022234D244C2448002109F0ECFC4D
:103E6000234900232B602360C02381F80D334FF4D6
:103E70000053C1F880310B601E49D1F8040540F0B1
:103E80000100C1F80405D1F8000220F00100C1F8DA
:103E90000002FFF797FF2B46224611681868091A9F
:103EA0000329FAD911681868091A032917D90F4D7F
:103EB00004240020166819688E421DBF19684E1C24
:103EC00001F07F0100211CBF695C1E600002013C03
:103ED00040EA0100EED1BDE870400AF04DB8002084
:103EE000F9E700BF2416002028160020A0150020A6
:103EF00000E100E000D00040074A0123C2F8083387
:103F00005360064B4FF40052C3F88020C3F8802161
:103F1000002283F80D23704700D0004000E100E04C
:103F20002DE9F047234E337803F0FF042BB1224BE9
:103F3000224A2348C72109F0D9FB01233370002806
:103F400036D0002934D0DFF880801E4F2546C14688
:103F5000D8F800403B68E41AE4B24B1B9C42C8BF4F
:103F6000DCB2F4B1DFF864E000EB050C0022D9F814
:103F700000A03B689A451EBF3B6803F1010A03F0AD
:103F80007F0302F101021ABF1EF80330C7F800A038
:103F9000002394420CF8013BE9D8FFF713FF2C44AF
:103FA000A5B28D42D4D3002000233370BDE8F08742
:103FB0000720F9E72016002068F600001EF7000031
:103FC0007CF600002416002028160020A0150020F2
:103FD000704770474FF08043044AD3F800141160D3
:103FE0004FF0FF32C3F80024704700BF2C160020AA
:103FF0007047000008B500F0BEFE0A4B187018B1FB
:10400000094B04221A6008BDBFF34F8F0749084BC4
:10401000CA6802F4E0621343CB60BFF34F8F00BF66
:10402000FDE700BF4C2800202C16002000ED00E02A
:104030000400FA050B4B1B68D9070BD49A070BD465
:1040400059070BD41A070BD413F4F81F14BF06201A
:1040500000207047012070470820704702207047F9
:10406000032070472C16002070470000012303FA3C
:1040700000F0084A82B0C04352E8003F0193019B20
:1040800003400193019B42E800310029F4D102B0C2
:10409000704700BF70160020074A82B052E8003F08
:1040A0000193019B23F001030193019B42E800313E
:1040B0000029F3D102B07047701600200123094A8D
:1040C00082B003FA00F052E8003F0193019B0343E2
:1040D0000193019B42E800310029F4D102B000F0C5
:1040E00040BC00BF70160020F4230B70CE234B7031
:1040F00036238B704FF0805382B01A6E5B6EC1F81E
:104100000330CA7102B0704707B501A8ADF80410BA
:1041100004F0FEFD03B05DF804FB084604F0FABDB0
:1041200007B501A8ADF8041004F0F6FD03B05DF882
:1041300004FB000008B5124B01221A70114B7F22BC
:104140001A70114B114A1A60114A00231370114A58
:10415000184659010133102B8850FAD10E4A00231A
:104160007F210133102B02F8011BFAD10B482022CA
:10417000002109F061FBBDE8084004F0DABD00BF92
:10418000521600205116002080180020A11800208F
:1041900074160020781600205D16002030160020CE
:1041A00008B504F00BFE04F0E9FD024B00221A6092
:1041B00008BD00BF7016002008B50E4B1B78A3B9D0
:1041C00004F0F0FD0238052808D8DFE800F01003FD
:1041D00005030505022008BD0320FCE7064B074A3E
:1041E00007484FF4CD7109F081FA0020F3E7012070
:1041F000F1E700BF52160020DDFD0000FDF70000D2
:104200002FF70000034B1A7812B100201870704786
:104210000D2070475216002010B5084C22784AB97C
:10422000FFF7CAFF012803D0054B1B68DB0703D546
:1042300001232370002010BD0D20FCE75216002042
:104240007016002008B504F0BCFD28B900F0F1FBA1
:10425000FFF722FF002008BDFFF71EFF0020FFF739
:104260002DFFF7E70B688A8870B503F8012C064626
:104270000C4604F097FD022801D100F0D9FBA0798B
:1042800004F02CFDA17E206811F0020100F1FF3046
:104290000ED004F002FE0125FFF7FEFE2146304657
:1042A000FFF7C1F815B90220FFF708FF002070BD25
:1042B00004F095FD0546EFE70048704780180020A0
:1042C00008B5064B4FF4206043F00103984704F013
:1042D000B3FDBDE8084004F0B1BD00BF90F8000098
:1042E0001B20704704F0BBBD084604F0BABD084669
:1042F00004F0B9BD07B5ADF8041001A8002104F021
:10430000B4FD00280CBF0320002003B05DF804FBBF
:1043100008B50846012104F0A8FD00280CBF0320C1
:10432000002008BD07B5ADF8041001A8002104F075
:10433000A5FD00280CBF0A20002003B05DF804FB97
:1043400008B50846012104F099FD00280CBF0A2099
:10435000002008BD002004F094BD012004F091BDB0
:104360004FF47A7310B55A430A4C0B4B226008463F
:104370001970FFF791FE04F0B1FC206804F03BFDDA
:1043800020B10520FFF772FE002010BD0520FFF7C9
:1043900095FEF9E7581600205416002010B50C467B
:1043A00021B104F0AEFC2070002010BD0720FCE716
:1043B00013B50C4661B101A804F06DFD054A9DF8E6
:1043C000053012785E3B9B1A2370002002B010BDAE
:1043D0000720FBE75C16002013B50D4B1B78194432
:1043E00048B210F15E0F10DB0024ADF805408DF8E7
:1043F00007408DF8044004F095FC8DF8050001A8F5
:1044000004F042FD204602B010BD0720FBE700BFCC
:104410005C16002021B1034B1B780B700020704705
:10442000072070475C160020F7B50B4C054601A825
:104430000E4694F9007004F02EFD9DF805302178A9
:1044400026705E3B591A49B22846FFF7C5FF00B1F6
:10445000277003B0F0BD00BF5C160020F8B5002641
:10446000404D044637462B684BB120460022294672
:10447000FEF7D2FF28682F60013804F0C1FC013636
:10448000102E05F12005EED1374D2B689F0714D56E
:10449000364E0120FFF7EAFD32683549002A2046F2
:1044A0004FF0000318BF3246FEF7C4FF306820B15A
:1044B000013804F0A5FC002333602B685E0708D5A3
:1044C0000220FFF7D3FD2A490F2300222046FEF7E2
:1044D000B1FF2B68180708D50320FFF7C7FD244953
:1044E0000E2300222046FEF7A5FF2B68D90608D52B
:1044F0000420FFF7BBFD1F4B00211A782046FEF772
:104500008BFF2B685A0608D50620FFF7AFFD1A4B24
:10451000204693F90010FEF799FF2C6814F001046F
:1045200008D004F04EFC0446A0B900F082FA204600
:10453000FFF79CFD2B689B0611D5104B187804F0F3
:10454000CDFB0F4B186804F056FC28B9BDE8F840C5
:1045500000F007BA0124EDE70520FFF787FD002CE6
:10456000F4D1F8BD78160020701600203016002017
:1045700080180020741600205316002054160020C6
:10458000581600202DE9F84FDFF8A4B01F46054665
:10459000894692460023D8465C0154F80B10A1BB13
:1045A0000BEB04062022304609F046F96B1C4BF851
:1045B00004302B78B38086F8159086F816A004F0A6
:1045C0009CFBB0716A78DFF86C9012F0200226D163
:1045D0004444E37D62F30003E375FFF7F9FA2978B9
:1045E0000646384604F0A1FB0546FFF7DDFA761BC8
:1045F000801B4FF0000361F10001C4E9020189F85A
:104600000030BDE8F84F00F0ACB90133102BC3D136
:10461000044B054A054840F2DA3109F067F899F889
:104620000020D5E7CFF7000011F800002FF70000B9
:104630007816002050160020013808B5104B0828C5
:1046400016D8DFE800F0050F11131313130513003C
:1046500012221A700B4B00221A700420BDE8084089
:10466000FFF72CBD1122F4E71622F2E70122F0E752
:10467000054B064A064840F21F4109F037F800BFD3
:104680007416002050160020DDFD000033F80000F5
:104690002FF700004378024AC3F3001313707047EA
:1046A000501600202DE9F0471F461A4BDDF820A0D8
:1046B00083420D46904606D0174B184A184840F2E0
:1046C000654109F013F8174C29B92160BDE8F0479E
:1046D0000120FFF7F3BCFFF77BFAA946064619F85D
:1046E000011B504604F021FB8246FFF75DFA0246AB
:1046F000A6EB0A00121A61F10003C4E90223C4F810
:1047000000902B78A38084F81580A77504F0F5FA43
:10471000A071DBE7A0180020E5F700004DF80000CD
:104720002FF700003016002008B50F4B834206D04B
:104730000E4B0F4A40F27E410E4808F0D7FF013978
:1047400006290CD8DFE801F0040909040904040073
:104750000220BDE80840FFF7B1BC0320F9E7064B93
:10476000034A4FF49261E7E7A0180020E5F7000044
:1047700072F800002FF70000DDFD000008B504F01E
:10478000CDFA034B1870BDE808400620FFF796BC31
:10479000531600206FF0630070477047704708F0B1
:1047A000D7BD0000A0F10B030F2B9DBF024BC0181B
:1047B00010F90B0C7F2070475D16002008B5FFF73D
:1047C000F1FF074B93F900307F2B04D09842A8BF2C
:1047D000184640B208BD7F2808BF0020FAE700BF96
:1047E0005116002010B508460C4604F077FA04F084
:1047F000D9FA022801D100F01BF92046FFF7DEFFAD
:1048000004F07DFA04F0E5FAFFF746FC00280CBF3F
:104810000D20002010BD000010B50C4604F06DFA0C
:104820007F2C07D0044B1C70FFF7C8FF04F067FA19
:10483000002010BD0720FCE751160020A1F10B035A
:104840000F2B10B50C460DD8074B0B4403F80B2C5F
:1048500004F053FAA04203D1FFF7B0FF04F04FFA7F
:10486000002000E0072010BD5D16002021B1034BA1
:104870001B880B80002070470720704778180020A5
:104880007047000008B5034B08461980FFF7F8FF92
:10489000002008BD7818002010B50D4C00F0C7F8B6
:1048A00000F06AF8FFF77CFCFFF7A2FB22780AB958
:1048B000FFF78FFB207800F058FAFFF71DFBFFF79A
:1048C000FFF900F0B9F8BDE81040002007F04ABF3A
:1048D0004C28002010B5154C23780BB1FFF7DCFFF6
:1048E000134B144914480122C3F8402508F024FD55
:1048F000002007F035FF00F077FA00F09BF8FFF793
:10490000D3F8FFF7A5FA23780BB9FFF761FB2078FE
:1049100000F026FAFFF75EFBFFF70CFC00F022F830
:1049200000F084F80023237010BD00BF4C28002045
:1049300000E001404FD300004DD30000014B187838
:10494000704700BF4C28002010B50446FFF786FDD5
:1049500000F00FFA00F018F82046BDE81040FFF70D
:1049600005B97047034B00221A60A3F204530122D9
:104970001A60704704C50040014B01225A6070471D
:1049800000C00040000000001F4B2DE9F7431F4C02
:10499000D3F8002125688AB10022C3F80021D3F89A
:1049A00000210192019AD3F80825D3F80835920521
:1049B00044BF6FEA83536FEA93532360FFF7F4F821
:1049C000134B1A680FF23809D9E90089861A5A6818
:1049D00061EB0207B94508BFB0453FBF0A4A01264F
:1049E0001660C3E900012368AB4204D003B0BDE800
:1049F000F04304F08BB903B0BDE8F083AFF300805F
:104A000080C3C9010000000000C000402819002038
:104A10002019002070477047034B18680028B8BF62
:104A2000033040F387007047281900207047704713
:104A30007047704700F002B800F00EB808B50121C9
:104A4000002000F03FF80028A2BF024B01221A709C
:104A500008BD00BF2C190020014B00221A707047BE
:104A60002C19002010B5114C114AA2610223C4E98F
:104A70000433104BE361A2644FF400730E4A0F49F4
:104A80002362E26400231022E01DA3626362E362FA
:104A9000A3656365E365226509F0E0FA08492046ED
:104AA00009F0DCFA2023A37110BD00BF50280020BC
:104AB00096F800003D1900202D1900209FF80000F5
:104AC000A3F8000070B50C4D2B7804460E460BB9C8
:104AD000FFF7C8FF2B69A3420BD9002000F060F953
:104AE000182000FB04540020E66200F05BF900206F
:104AF00070BD4FF0FF30FBE7502800200838062833
:104B000014D8DFE800F0060D10131313040001F0B1
:104B100009BF074B00221A84064B01221A75704701
:104B2000044B0022FAE7034B01225A75704700BF7D
:104B3000401B0020C81D0020FFF713BF07B50B481E
:104B400001AA012103F0D8FA68B9019840B1FFF732
:104B50002EF8074B1B69C01A0A2894BF00200120B9
:104B600003B05DF804FB0020FAE700BF7CF9000009
:104B7000C81D0020012910B514D0022907D081B921
:104B80000A4C0123237603F080FAA06009E008496B
:104B900008484FF4007203F07DFAFFF708F8034B62
:104BA000186110BD014BD975FBE700BFC81D00207F
:104BB000C81B00207CF9000008B51C220021114808
:104BC00008F03AFE02F034FD0F4801F0E5FD30B187
:104BD0000E4B0F4A40F213110E4808F087FD0E48A5
:104BE00001F0BCFE20B1094B094A4FF48E71F3E786
:104BF00001F07EFE20B1054B054A40F21F11EBE7A4
:104C000008BD00BFC81D0020A0F90000AAF80000E0
:104C10006EF90000BDF800007CF9000008B500F056
:104C200093FF58B101F090FE02F064F90028FBD127
:104C300001F020FFBDE8084001F022BE00F07AFF3D
:104C40000028F5D001F06EFEF2E70000024B0022D2
:104C50009A751A609A807047C81D002010B502F03E
:104C600049F90028FBD1274C237B0BB1237DDBB214
:104C7000627B03F001039A4206D063737BB300F0BA
:104C800059FF08B901F04CFE637D33B10023637511
:104C900000F050FF08B101F047FE237E7BB1A16810
:104CA00029B1194889B2FBF718FC0023A360164903
:104CB00016484FF4007203F0EDF900B9207623682E
:104CC000B3B1FFF73BFF98B1A28821680F4803F00A
:104CD000BBF918B90123A3752060A08010BD00F0B6
:104CE00033FF10B101F030FECEE701F01BFECBE741
:104CF000E37D002BF2D00023E375A375BDE81040DF
:104D0000FBF7E2BBC81D0020C81B00207CF9000097
:104D1000024B01221A730020704700BFC81D0020FB
:104D200070B50D4CA37D05460E4683B9236873B953
:104D3000FFF704FF10B92560A68070BD0748324612
:104D4000294603F081F9012318B9A375F5E7052079
:104D5000F3E71846F1E700BFC81D00207CF900000A
:104D600008B9FFF729BFFFF771BF08B9FFF756BFB2
:104D70007047FFF773BF01207047000072B6024A08
:104D80001368013313607047E41D0020034A136861
:104D9000013B136003B962B6704700BFE41D0020F9
:104DA000FFF7ECBFFFF7F2BF38B5074C051E04F163
:104DB000080318BF1C4623682BB11A6822605B6881
:104DC00028469847F7E738BDF01D002020B9054B6D
:104DD00001225A70FFF7E8BF012802D1014A907002
:104DE000F8E77047E81D002038B5094C23786BB907
:104DF00008486360A3602361E36000F091F8054612
:104E000000F09AF801232370284638BD8525FBE77A
:104E1000E81D0020CD4D000038B5134CA3780546A1
:104E200003F0FF0073B115B16B68012098470020B3
:104E3000FFF7B6FFE3680133E3600020BDE83840C8
:104E4000FFF7B0BFFFF7ACFF25B1226913463BB9AE
:104E50002A602561E368002BECD100F083F8E9E7D4
:104E60009D42F7D01B68F2E7E81D002038B5084CDA
:104E70000020FFF795FFE368013BE360E56815B9A3
:104E800000F082F8A570BDE838400020FFF78ABF27
:104E9000E81D00204FF08043D3F81804C0F3004011
:104EA0007047000038B5134C6378054603F0FF00E7
:104EB00073B115B16B68002098470020FFF770FFB1
:104EC0006368013363600020BDE83840FFF76ABFC4
:104ED000FFF766FF25B1A26813463BB92A60A560BB
:104EE0006368002BECD100F05BF8E9E79D42F7D056
:104EF0001B68F2E7E81D002038B5084C0020FFF7DA
:104F00004FFF6368013B6360656815B900F05AF8AC
:104F10006570BDE838400020FFF744BFE81D002061
:104F2000044A137923B90121106091801846704713
:104F300085207047FC1D0020084B1A68D2075FBF10
:104F4000E02283F8002301221A604FF080420123FF
:104F5000C2F81835024A1370704700BF00E100E044
:104F6000C8280020074B00221A6082B01B680193FA
:104F7000019B4FF080430222C3F8042301229A6070
:104F800002B0704704010040044B01221A604FF048
:104F90008042D2F81834DB03FBD470470C00004089
:104FA000074B00221A6082B01B680193019B4FF0EF
:104FB00080430122C3F804231A6002B0704700BF87
:104FC00000010040074B01221A604FF08042D2F8E6
:104FD0000C3403F00113B3F1011FF8D0024B00228F
:104FE0005A71704704000040FC1D0020154B07B5A6
:104FF0001A687AB100221A601B680093009B4FF078
:1050000080430122C3F808230F4B587910B95A7115
:105010001B6898470D4B1A6882B100221A601B6802
:105020000193019B4FF080430222C3F80823064BF3
:105030001B68012003B05DF804EB184703B05DF86E
:1050400004FB00BF00010040FC1D002004010040E3
:1050500000F1804382B01A68002A14BF01200020AA
:1050600004D000221A601B680193019B02B07047B4
:105070000E4B1A78C2B902784FF08041C2F3400259
:10508000C1F88025027802F00102C1F87825084AAB
:105090001168C9075FBFE02182F800130121116088
:1050A00001221A700020704785207047C92800200F
:1050B00000E100E0014B02681A6070470C1E0020FE
:1050C0004FF080434FF46072C3F8042370474FF0F1
:1050D00080434FF46072C3F808237047014B0022ED
:1050E0001A6070470C1E00204FF0804310B5D3F8B3
:1050F0000443620707D54FF48470FFF7A9FF10B18E
:105100001E4B1B689847A30608D54FF48A70FFF71B
:105110009FFF18B11A4B00201B689847600608D5FE
:105120004FF48C70FFF794FF18B1154B01201B68EA
:105130009847210608D54FF48E70FFF789FF18B104
:10514000104B00201B689847E20508D54FF490707B
:10515000FFF77EFF18B10B4B01201B689847A30592
:105160000AD54FF49270FFF773FF28B1054BBDE8E5
:1051700010401B680220184710BD00BF041E00200D
:10518000081E00200C1E002008B5FFF7ADFFBDE88B
:105190000840FFF72BBF00F1804000F51C300123D1
:1051A0000360BFF36F8FBFF34F8F7047064B1B68D1
:1051B000082B01BF054B1868B0FA80F0400918BFF2
:1051C000002000F001007047300100103401001091
:1051D00030B54C680D689C4229BFC0E900530021DE
:1051E000E41AED1832BFC0E900514C600D609342E3
:1051F00003D1201E18BF012030BD0020FCE74B6802
:1052000010B59A420C6828BF1A46C0E90042981AA5
:105210000B6848601A4400380A6018BF012010BDAE
:1052200030B54C680B68A24228BF2246002A14BF42
:105230001D460025C0E90052A4EB02041A444C604C
:105240000A6014BF0120002030BD0000054B10F0A3
:10525000800FA3F1900208BF134600F00F0003EB8C
:1052600000107047AC1E002010F0800F14BF002308
:10527000102300F00F00184470470000054B1B6816
:10528000082B02BF044B00221A60044B00221A7044
:10529000704700BF300100101C7C0240111E00202E
:1052A00007B5094A00231370084AADF8053013709A
:1052B0008DF8073001238DF80430054B01A81B68D9
:1052C000984703B05DF804FB101E0020401F00202B
:1052D0003C1F0020704700004B68934228BF1346D4
:1052E00070B51D46094B0C4606462A460968184605
:1052F00008F07AFAC6E9000560682268401B606021
:105300002A440038226018BF012070BD481F0020C9
:105310004B68934228BF134670B506460D461C469F
:105320008BB10A4B09682246184608F05DFA3060D6
:105330006B6874601B1B6B602B68201E23442B6002
:1053400018BF012070BD0360F2E700BF481F0020B6
:1053500007B500238DF804300B4BD3F82025ADF8AA
:105360000620D3F8C034094A002B13680CBF4FF451
:1053700080714FF001210B431360054B01A81B689E
:10538000984703B05DF804FB00700240181E00202F
:105390003C1F002008B50146FFF770FFFFF756FFDE
:1053A000837B032B0BD10846FFF75EFF012303FA33
:1053B00000F0C143BDE80840034803F02DB803687E
:1053C000002BF0D008BD00BF141E00208720FFF77F
:1053D000E1BF8620FFF7DEBF8520FFF7DBBF84201B
:1053E000FFF7D8BF8320FFF7D5BF8220FFF7D2BFDA
:1053F0008120FFF7CFBF000008B5FFF73FFF084B44
:1054000093F89E20032A06D1BDE8084005486FF0B6
:10541000010103F001B8D3F89030002BF4D008BD9F
:105420001C1E0020141E0020FFF7E6BF07B5FFF783
:1054300025FF0D4B93F88E20032A11D0D3F880302E
:1054400073B90A486FF0807102F0E6FF06238DF809
:1054500004300823ADF80630054B01A81B689847B7
:1054600003B05DF804FB00BF1C1E0020141E0020CA
:105470003C1F002007B5FFF701FF104B93F81E21DA
:10548000032A07D10E486FF4807102F0C5FF03B004
:105490005DF804FBD3F81031002BF8D16FF4807164
:1054A000074802F0B9FF06238DF804308823ADF8D1
:1054B0000630044B01A81B689847E8E71C1E002033
:1054C000141E00203C1F0020244B13B5D3F80044C9
:1054D000C3F80044BFF36F8FBFF34F8FBFF36F8FDD
:1054E000BFF34F8FE1050ED51D4B01221A7000232B
:1054F000ADF805308DF8073002238DF80430194BD4
:1055000001A81B689847A2050DD5154A0023137002
:10551000ADF805308DF8073003238DF80430114BBA
:1055200001A81B689847630516D50D4B1A789AB1E8
:1055300000221A70094B0121C3F808155820FFF703
:105540002AFE04238DF80430064BADF805201B68B5
:105550008DF8072001A8984702B010BD00700240E6
:10556000101E00203C1F0020064B1868082802D19E
:1055700004331B6823B9A0F10D035842584170470A
:105580000120704730010010012273B502FA01F5C5
:105590001E491F4E0B6810F0800F43EA05030446B6
:1055A0000B6027D000F00F021A4B33F8123003F1D2
:1055B000804303F51C331A684AB100221A60BFF316
:1055C0006F8FBFF34F8F802811D0FFF7E3FE316854
:1055D00029400AD106238DF804308DF806408DF855
:1055E00007100D4B01A81B68984702B070BDFFF76C
:1055F00003FFECE733681D42F7D106238DF8043032
:105600008DF806008DF80720EBE700BF181E00207C
:10561000141E0020B6F900003C1F002008B5054B01
:105620001A781046FFF720FEBDE8084001461046F4
:10563000FFF7AABF401F00202DE9F04F7C4B87B039
:105640001A780093002A40F08380DFF810A2DFF878
:10565000E4B1784BDAF800101D68294078D011F0D9
:10566000012578D095FAA5F5B5FA85F50F2D86BFF9
:10567000A5F11004E4B245F080042046FFF7E6FDF2
:105680004FFA84F8B8F1000F8289064604F0080941
:1056900066DAD0E9003104A8984700B93060664B5B
:1056A0001B68082B02BF654B82221A60009B059A7B
:1056B000049801211970B368A940DBF80050134425
:1056C00025EA0101B8F1000FB360CBF800105C4B84
:1056D00004F00F047FDAB9F1000F74D0C3F8A0060C
:1056E000C3F8A426FFF762FD25B2A300554A564928
:1056F0006400002800F08180B8F1000FB2BF0425DB
:1057000028250A46514E524F1D4414444FF00008BC
:10571000C6F80080BFF36F8FBFF34F8F2846FFF7A7
:105720003AFD022002F06CFE3368002BF0D01E2000
:1057300002F066FE3B689B065DD5012002F060FE2C
:10574000238803F1804303F51C331B68002BDFD053
:1057500007B0BDE8F08F91FAA1F1B1FA81F585E7C4
:105760003749B9F1000F27D0D1F8C03413F4803F86
:1057700018BF002371683768019304A8B847049ADA
:10578000002A8AD0059A019B9A4286D201214FF0C5
:105790000208A94086F80E80C943504602F03CFE3C
:1057A00006238DF80C302B4B8DF80E401B688DF8BE
:1057B0000F8003A898474CE704F00F0303F5947398
:1057C00051F82330D6E7142101FB0433C3F8000657
:1057D000C3F8042686E7B9F1000F04D0C3F8A00788
:1057E000C3F8A4277EE7142101FB0433C3F80007A4
:1057F000C3F8042776E702209AE7B8F1000FB4BF98
:10580000042028201844FFF7C6FC12EA280838BFF5
:105810008846114938F8153003F1804303F51C33ED
:105820001A68002A94D10A68002AF9D090E700BFCC
:10583000111E0020181E0020300100101C7C0240A8
:1058400000700240B6F90000D2F900000471024075
:10585000747402403C1F002000710240141E00209E
:1058600038B5174BD3F86C44C3F86C44BFF36F8F53
:10587000BFF34F8FFFF79AFC38B1124A136823F039
:10588000011103F001130C43136001251CB9BDE89D
:105890003840FFF7D1BE94FAA4F1B1FA81F30F2B8F
:1058A000C8BFA3F110001946D4BF43F08000C0B2B6
:1058B00005FA03F324EA0304FFF766FEE6E700BFF8
:1058C00000700240441F002037B50446FFF7D6FCA5
:1058D000FFF7BCFC837B032B0DD12046FFF7C4FCF4
:1058E000012303FA00F0C1430F4802F095FDFFF7D2
:1058F000A3FE03B030BD0568002DF8D12046FFF7A8
:10590000B3FC012303FA00F0C143074802F084FD11
:1059100006238DF80430054B8DF806401B688DF882
:10592000075001A89847E2E7141E00203C1F002002
:105930000720FFF7C9BF0620FFF7C6BF0520FFF706
:10594000C3BF0420FFF7C0BF0320FFF7BDBF022085
:10595000FFF7BABF0120FFF7B7BF0000024A0023DC
:105960001360024A137070473C1F0020121E002073
:105970004D4B4FF4006210B5C3F80024BFF36F8F96
:10598000BFF34F8FFFF7F0FD80B10020FFF708FA5B
:10599000464B474A1868032100287AD149F27530EE
:1059A0001860116018600020FFF7FCF9414B1B687C
:1059B000082B10D10020FFF7F3F93C4B3E4A186842
:1059C000C021002867D149F2753018601160186055
:1059D0000020FFF7E7F9344B0122C3F80025BFF39D
:1059E0006F8FBFF34F8FD3F800241205FBD54FF410
:1059F0000062C3F80024BFF36F8FBFF34F8F2D4BAE
:105A00001B68082B1DD10020FFF7CAF9274B2A4A33
:105A10001868002841D149F2753119601060196089
:105A20000020FFF7BFF9234B1B68082B09D1234B3C
:105A300040F2E3721A6040225A60BFF36F8FBFF3E7
:105A40004F8F194B00248022C3F81C25C3F8304522
:105A50001B4B40F2FF121A601A4B1C60FFF70EFC42
:105A6000194B1C70194B02221A70FFF77DFDC8B14B
:105A70002046FFF795F90D4B0D4A186880B949F299
:105A80007531196010601960BDE810400020FFF703
:105A900089B9116087E711609AE700231360BFE7B7
:105AA0001460F1E710BD00BF0070024000EC06403A
:105AB00014ED06403001001014EC0640007802405E
:105AC000181E0020141E0020401F0020121E00205F
:105AD00008B50F4B00221A70C0B9FFF767FB0D4BDA
